:020000040800F2
:108000000050002005A00008319E0008379E00089F
:108010003D9E0008439E0008499E000800000000A5
:108020000000000000000000000000004F9E00085B
:108030005B9E000800000000679E0008739E000819
:108040004DA000084DA000084DA000084DA000085C
:108050004DA000084DA000084DA000084DA000084C
:108060004DA000084DA000084DA000084DA000083C
:108070004DA000084DA000084DA000084DA000082C
:108080004DA000084DA000084DA000084DA000081C
:108090004DA000084DA000084DA000084DA000080C
:1080A0004DA000084DA000084DA000084DA00008FC
:1080B0004DA000084DA000084DA000084DA00008EC
:1080C0004DA000084DA000084DA000084DA00008DC
:1080D0004DA000084DA00008819E0008959E000854
:1080E0004DA000084DA000084DA0000800000000B1
:1080F0000000000000000000000000000000000080
:0C81000000000000000000005FF808F123
:10810C0010B5054C237833B9044B13B10448AFF3C5
:10811C0000800123237010BD980000200000000097
:10812C00BCD0000808B5034B1BB103490348AFF39F
:10813C00008008BD000000009C000020BCD000089E
:10814C0080B58AB000AFB9607A603B600346FB73C0
:10815C004A4AFB7B13704A4ABB681360494A7B68E6
:10816C001360494A3B681360484A3B6B1360484BA9
:10817C0000221A70FB7B002B76D0012B72D1404B66
:10818C001B68184600F096FD01F09EF90346FB842F
:10819C00FB8C002B01D104236CE03B4B1B681A6851
:1081AC00394B1B689B889BB21946104602F0A2FC07
:1081BC000346012B5AD100F0FDFD0346FB84FB8CDA
:1081CC00002B01D0042355E0324A07F1180307CAEB
:1081DC0083E8070007F118030C21184600F05CFE39
:1081EC000346FB84FB8C002B01D0042342E030209F
:1081FC0000F01AFF0346FB84FB8C002B01D00423F8
:10820C0038E0254A07F1100392E8030018600433A4
:10821C00198007F11003184600F088FF0346FB8411
:10822C00FB8C002B01D0042324E0302001F048F813
:10823C000346FB84FB8C002B01D004231AE0302076
:10824C0001F0C0F80346FB84FB8C002B01D0042307
:10825C0010E000F03DFD0346FB84FB8C002B05D0A9
:10826C00042307E0042305E000BF00E000BF00F09A
:10827C0015F8002318462837BD4680BDD4040020CD
:10828C00D0040020C8040020D8040020CC04002016
:10829C00B4000020D4D00008E0D0000880B500AFB6
:1082AC00054B01221A70054B1B6801220449184624
:1082BC0003F0C5F900BF80BDC4040020D004002029
:1082CC00B400002080B400AF034B00221A7000BF32
:1082DC00BD4680BC704700BFC404002080B582B08E
:1082EC0000AF7860124B1B78002B1CD0114B1B7805
:1082FC00012B14D8104B1B78AA2B08D101F00CFCC5
:10830C0000F01EF80346184601F014FC0BE00B4B72
:10831C001B6801220849184603F091F903E0042078
:10832C0001F008FCFFE700BF0837BD4680BD00BF69
:10833C00C4040020D4040020B4000020D004002089
:10834C0080B582B000AF344B00221A60334B01224F
:10835C001A70334800F068F80346FB71FB79042B64
:10836C003FD0042B42DC002B02D0022B30D03DE05E
:10837C002B4800F011FA0346FB71294B00221A70AE
:10838C00FB79042B22D801A252F823F0AD8300080C
:10839C00B7830008C1830008C5830008CF83000899
:1083AC00002000F09DFA00BF25E0002000F098FAB4
:1083BC0001232CE004232AE0012000F091FA03238E
:1083CC0025E0012000F08CFA042320E0FB791EE06C
:1083DC00144B1B6801221249184603F030F9022392
:1083EC0015E0012000F07CFA042310E0012000F0DD
:1083FC0077FAFB790BE0094B1B78002BA9D1094BC1
:10840C001B6801220649184603F019F90023184687
:10841C000837BD4680BD00BFC0040020BD0400204D
:10842C00B4000020D004002080B588B000AF786084
:10843C000023FB839C4B1B78002B03D0012B00F0FB
:10844C00D6807FE1994B1B78002B21D1984B186873
:10845C00FB8B7A68D11842F22833012203F05DF8C5
:10846C0003467B827B8ADBB2184600F0B3FA0346E4
:10847C007B82B7F91230002B02D07B8ADBB287E10A
:10848C00FB8B7A6813441B78AA2B01D004237FE161
:10849C00FB8B0133FB83864B1868FB8B7A68D118F6
:1084AC0042F22833012203F038F803467B827B8AA0
:1084BC00DBB2184600F08EFA03467B82B7F9123015
:1084CC00002B02D07B8ADBB262E1FB8B5A1CFA8355
:1084DC001A467B6813441B78032B01D9042357E1FC
:1084EC0000BF734B1868FB8B7A68D11842F22833A3
:1084FC00022203F012F803467B827B8ADBB2184619
:10850C0000F068FA03467B82B7F91230002B02D0D8
:10851C007B8ADBB23CE1FB8B7A6813441B88BB8300
:10852C00FB8B0233FB830023FB821FE0604B18683C
:10853C00FB8B5A1CFA831A467B68991842F2283333
:10854C00012202F0EAFF03467B827B8ADBB21846EB
:10855C0000F040FA03467B82B7F91230002B02D0B0
:10856C007B8ADBB214E1FB8A0133FB82FA8ABB8B78
:10857C009A42DBD34E4B1868FB8B7A68D11842F2C7
:10858C002833042202F0C9FF03467B827B8ADBB2CC
:10859C00184600F01FFA03467B82B7F91230002B05
:1085AC0002D07B8ADBB2F3E0FB8B7A6813441B6846
:1085BC00BB61FB8B0433FB833D4B1868FB8B7A68E8
:1085CC00D11842F22833012202F0A7FF03467B8226
:1085DC007B8ADBB2184600F0FDF903467B82B7F9C3
:1085EC001230002B00F0B0807B8ADBB2D0E02F4B36
:1085FC001B78002B19D1FB8B7A68134442F228327A
:10860C000121184601F006F803467B82B7F91230B7
:10861C00002B02D07B8ADBB2BAE0FB8B7A68134466
:10862C001B78AA2B01D00423B2E0FB8B0133FB8314
:10863C00FB8B7A68134442F228320121184600F071
:10864C00E9FF03467B82B7F91230002B02D07B8AFC
:10865C00DBB29DE0FB8B5A1CFA831A467B681344F1
:10866C001B78032B01D9042392E000BFFB8B7A68A3
:10867C00134442F228320221184600F0CBFF034685
:10868C007B82B7F91230002B02D07B8ADBB27FE001
:10869C00FB8B7A6813441B88BB83FB8B0233FB83F5
:1086AC000023BB821EE000BFD4040020B4000020D5
:1086BC00D0040020FB8B5A1CFA831A467B681344A7
:1086CC0042F228320121184600F0A4FF03467B82B7
:1086DC00B7F91230002B02D07B8ADBB258E0BB8A90
:1086EC000133BB82BA8ABB8B9A42E3D3FB8B7A6889
:1086FC00134442F228320421184600F08BFF034643
:10870C007B82B7F91230002B02D07B8ADBB23FE0C0
:10871C00FB8B7A6813441B68BB61FB8B0433FB83B4
:10872C00FB8B7A68134442F228320121184600F080
:10873C0071FF03467B82B7F91230002B06D07B8A7F
:10874C00DBB225E0042323E000BF00E000BFFB8B7D
:10875C005A1CFA831A467B6813441B78BB2B01D036
:10876C00042315E07B680433BA8B1146184600F0DD
:10877C0049F9F860FA68BB699A4201D0042307E012
:10878C00FB8B40F20942934201D9042300E0002301
:10879C0018462037BD4680BD80B586B000AF7860E6
:1087AC007B687B617B695B78002B05D17B691B79CE
:1087BC00022B01D1012389E0464B1B78042B00F2DC
:1087CC00848001A252F823F0E9870008ED870008A5
:1087DC000B8800085788000891880008002375E072
:1087EC007B695B78002B08D17B691B79002B04D14A
:1087FC00384B02221A70002368E0042366E07B6881
:10880C00BB60BB685B78022B1DD1BB68DB7C012B8A
:10881C0002DC002B03DA14E0022B02D011E003235C
:10882C0054E02D4B1B68BA6852681A602A4B1B68BF
:10883C00BA6892685A6000BF264B03221A70002354
:10884C0044E0042342E0042340E07B68FB60FB68C7
:10885C005B78012B14D17B681A1DFB685B889BB27B
:10886C001946104600F08CF81B4B1B681A681B4B02
:10887C001B689A4202D8174B04221A70002325E079
:10888C00042323E07B695B78002B1CD17B691B796B
:10889C00012B18D1104B1B6803F108020E4B1B68FF
:1088AC001B681946104600F0ADF838610A4B1B687E
:1088BC005B683A699A4201D0042307E0054B002219
:1088CC001A70002302E0042300E004231846183732
:1088DC00BD4680BDBD040020CC040020C004002097
:1088EC0080B586B000AF0346FB71AA233B7303230C
:1088FC007B730123FB81FB793B7400237B74002386
:10890C00BB740023FB7400233B75BB237B7507F101
:10891C000C0304330121184600F074F80346C7F821
:10892C001130154B1B78002B02D0012B12D01CE000
:10893C00124B186807F10C0142F228330A2202F09C
:10894C0069FD0346FB75FB7D184600F043F80346B2
:10895C00FB750CE007F10C0342F228320A21184691
:10896C0000F038FE0346FB7501E0042300E0FB7DBC
:10897C0018461837BD4680BDD4040020D004002012
:10898C0080B485B000AF78600B467B800023FB8100
:10899C0012E0FB897A68D1180C4B1A680C4B1B68D7
:1089AC00097813440A461A72094B1B680133084AAA
:1089BC001360FB890133FB81FA897B889A42E8D3E7
:1089CC0000BF00BF1437BD4680BC7047CC040020EC
:1089DC00C004002080B483B000AF0346FB71FB7968
:1089EC00012B06D0002B06DD023B012B03D8022302
:1089FC0002E0042300E0FB7918460C37BD4680BC2E
:108A0C007047000080B487B000AF786039604FF0D9
:108A1C00FF337B613B68B3F1FF3F01D17B691CE005
:108A2C0000233B6114E07B691B0EFB737A683B6986
:108A3C0013441A78FB7B5340FB737B691A02FB7B54
:108A4C00084951F8233053407B613B6901333B614A
:108A5C003A693B689A42E6D37B6918461C37BD4697
:108A6C0080BC7047CCD7000880B584B000AF274BD2
:108A7C00274A1A60274BFB602BE0FB68DB7FFF2B40
:108A8C0021D1224B1B68DB7F002B1CD11F4B1B6899
:108A9C0004331C2211461846FFF7B4FFB8601B4B79
:108AAC001B681B68BA689A4218D000F053F803464A
:108ABC00FB80FB88002B01D0052322E0134B002206
:108ACC001A6000231DE0114AFB681360FB68203319
:108ADC00FB60FB68104A9342CFD300E000BFFB68F9
:108AEC000D4A934207D1094B1B68DB7FFF2B02D148
:108AFC00064B00221A6000F04DF80346FB80FB8801
:108B0C00DBB218461037BD4680BD00BFDC04002028
:108B1C00E0EF010800E0010800F0010880B584B026
:108B2C0000AF7860094B1B68FB60FB68002B01D120
:108B3C00074BFB60FB68043318221946786803F076
:108B4C0093FD002318461037BD4680BDDC04002081
:108B5C0000E0010880B582B000AF0C4800F04EF880
:108B6C000346FB80FB88002B02D0FB88DBB209E0BC
:108B7C00074800F043F8FB88002B02D0FB88DBB2DF
:108B8C0000E0002318460837BD4680BD00E0010810
:108B9C0000E8010880B582B000AF144B1B68144A82
:108BAC00934209D1134BDB7F002B05D1124800F007
:108BBC0025F80346FB8012E00C4B1B680E4A9342CF
:108BCC000BD10A4B1B68203BDB7F002B05D10848DF
:108BDC0000F014F80346FB8001E00023FB80FB88C7
:108BEC00DBB218460837BD4680BD00BFDC04002050
:108BFC0000E00108E0EF010800E8010880B588B04A
:108C0C0000AF786001F07EFC0346FB77FB7F1846D3
:108C1C0000F038F80346FB77FB7F002B01D0FB7F7D
:108C2C002CE00023FB6001233B617B687B6101230B
:108C3C00BB6107F1080207F10C031146184601F05D
:108C4C002DFD0346FB77FB7F184600F01BF803460F
:108C5C00FB77FB7F002B01D0FB7F0FE001F078FC52
:108C6C000346FB77FB7F184600F00CF80346FB77B6
:108C7C00FB7F002B01D0FB7F00E000231846203740
:108C8C00BD4680BD80B483B000AF0346FB71FB7959
:108C9C00012B06D0002B06DD023B012B03D802234F
:108CAC0002E0042300E0FB7918460C37BD4680BC7B
:108CBC007047000080B483B000AF7860034A7B68D3
:108CCC00136000BF0C37BD4680BC7047E004002029
:108CDC0080B582B000AF00F0BDFC334B41221A705E
:108CEC00314B54225A70304B2B229A702E4B5222FD
:108CFC00DA702D4B45221A712B4B53225A712A4B89
:108D0C0045229A71284B5422DA71284B18684FF47B
:108D1C00A0730822244902F07DFB03467B807B88EC
:108D2C00DBB2184600F0B0FC03467B80B7F902308A
:108D3C00002B02D07B88DBB231E01C4B18684FF45F
:108D4C00A0730822184902F0E8FB03467B807B885D
:108D5C00DBB2184600F098FC03467B80B7F9023072
:108D6C00002B02D07B88DBB219E000237B600EE085
:108D7C000D4A7B6813441A780D497B680B441B78A9
:108D8C009A4201D004230AE07B6801337B607B6844
:108D9C00072BEDDD4FF47A7001F0B6F9002318467D
:108DAC000837BD4680BD00BFE4040020E00400206D
:108DBC001800002080B582B000AF00F04BFC334BA4
:108DCC0041221A70314B54225A70304B2B229A701C
:108DDC002E4B5222DA702D4B45221A712B4B4E2200
:108DEC005A712A4B45229A71284B5722DA71284B1B
:108DFC0018684FF4A0730822244902F00BFB0346B9
:108E0C007B807B88DBB2184600F03EFC03467B80FF
:108E1C00B7F90230002B02D07B88DBB231E01C4B5F
:108E2C0018684FF4A0730822184902F076FB034629
:108E3C007B807B88DBB2184600F026FC03467B80E7
:108E4C00B7F90230002B02D07B88DBB219E000238B
:108E5C007B600EE00D4A7B6813441A780D497B68E1
:108E6C000B441B789A4201D004230AE07B6801333F
:108E7C007B607B68072BEDDD4FF47A7001F044F9D1
:108E8C00002318460837BD4680BD00BFE40400200F
:108E9C00E00400202000002080B584B000AF786092
:108EAC000B46FB70FB780C2B01D90423B1E000239B
:108EBC00FB7300F0CFFBFB7B5A1CFA731A46574B23
:108ECC0041219954FB7B5A1CFA731A46534B54217B
:108EDC009954FB7B5A1CFA731A46504B2B2199540C
:108EEC00FB7B5A1CFA731A464C4B4E219954FB7B54
:108EFC005A1CFA731A46494B41219954FB7B5A1C54
:108F0C00FA731A46454B4D219954FB7B5A1CFA7344
:108F1C001A46424B45219954FA78FB7B1344FB7259
:108F2C000023BB730CE0BB7B7A681A44FB7B591C97
:108F3C00F97319461278394B5A54BB7B0133BB7306
:108F4C00FA7BFB7A9A42EED3354B1868FB7B9AB2CC
:108F5C004FF4A073314902F05DFA03463B813B8923
:108F6C00DBB2184600F090FB03463B81B7F90830A2
:108F7C00002B02D03B89DBB24BE0FB780733FB7351
:108F8C00274B1868FB7B9AB24FF4A073234902F06D
:108F9C00C4FA03463B813B89DBB2184600F074FBF4
:108FAC0003463B81B7F90830002B02D03B89DBB27A
:108FBC002FE000237B730CE07B7B184AD25C7B7B1D
:108FCC001849CB5C9A4201D0042322E07B7B01330D
:108FDC007B737B7B062BEFD9FA787B7B1344FB727C
:108FEC0000233B7310E07B7B5A1C7A731A460B4BA5
:108FFC009A5C3B7B79680B441B789A4201D0042322
:10900C0007E03B7B01333B737A7BFB7A9A42EAD3D2
:10901C00002318461037BD4680BD00BFE404002075
:10902C00E00400200000002080B584B000AF0346AF
:10903C00FB71FB79303B012B01D904236BE000BFA2
:10904C0000F008FB364B41221A70354B54225A70F3
:10905C00334B2B229A70324B5222DA70304B4F2208
:10906C001A712F4B4C225A712D4B45229A712C4A56
:10907C00FB79D3712B4B18684FF4A0730822284945
:10908C0002F0C8F90346BB81BB89DBB2184600F07D
:10909C00FBFA0346BB81B7F90C30002B02D0BB891D
:1090AC00DBB238E01F4B18684FF4A07308221C4940
:1090BC0002F033FA0346BB81BB89DBB2184600F0E1
:1090CC00E3FA0346BB81B7F90C30002B02D0BB8905
:1090DC00DBB220E00723FB720023FB730EE0FB7B6B
:1090EC000F4AD25C104B1968FB7B0B441B789A42DD
:1090FC0001D004230FE0FB7B0133FB73FA7BFB7A7B
:10910C009A42ECD3FB7B064AD35CFA799A4201D0A3
:10911C00042300E0002318461037BD4680BD00BF75
:10912C00E4040020E00400200800002080B586B094
:10913C0000AF78600023FB750CE0FB7D7A6813446C
:10914C001B78303B092B01D90423AEE000BFFB7D1B
:10915C000133FB75FB7D052BEFD90023BB7500F0AC
:10916C0079FABB7D5A1CBA751A46524B4121995457
:10917C00BB7D5A1CBA751A464E4B54219954BB7D73
:10918C005A1CBA751A464B4B2B219954BB7D5A1C51
:10919C00BA751A46474B50219954BB7D5A1CBA7567
:1091AC001A46444B41219954BB7D5A1CBA751A4638
:1091BC00404B53219954BB7D5A1CBA751A463D4BF2
:1091CC005321995400237B750CE07B7D7A681A44FB
:1091DC00BB7D591CB97519461278364B5A547B7D98
:1091EC0001337B75BB7D0C2BEFD9334B18684FF4D7
:1091FC00A0730D222F4902F00DF903463B823B8AE6
:10920C00DBB2184600F040FA03463B82B7F9103047
:10921C00002B02D03B8ADBB247E0274B18684FF497
:10922C00A0730D22234902F078F903463B823B8A56
:10923C00DBB2184600F028FA03463B82B7F910302F
:10924C00002B02D03B8ADBB22FE00723FB730023F9
:10925C003B750EE03B7D174AD25C184B19683B7D81
:10926C000B441B789A4201D004231EE03B7D013352
:10927C003B753A7DFB7B9A42ECD30023FB7410E0E8
:10928C003B7D5A1C3A751A460A4B9A5CFB7C7968F2
:10929C000B441B789A4201D0042306E0FB7C01337B
:1092AC00FB743B7D0C2BEBD9002318461837BD46BD
:1092BC0080BD00BFE4040020E00400200C0000206E
:1092CC0080B584B000AF0346FB71FB79302B03D023
:1092DC00322B01D004236BE000BF00F0BBF9364BFE
:1092EC0041221A70344B54225A70334B2B229A70F1
:1092FC00314B5422DA70304B59221A712E4B5022BA
:10930C005A712D4B45229A712B4AFB79D3712B4BF9
:10931C0018684FF4A0730822274902F07BF8034623
:10932C00BB81BB89DBB2184600F0AEF90346BB81AA
:10933C00B7F90C30002B02D0BB89DBB238E01F4BE5
:10934C0018684FF4A07308221B4902F0E6F8034694
:10935C00BB81BB89DBB2184600F096F90346BB8192
:10936C00B7F90C30002B02D0BB89DBB220E007230D
:10937C00FB720023FB730EE0FB7B0F4AD25C104B9D
:10938C001968FB7B0B441B789A4201D004230FE035
:10939C00FB7B0133FB73FA7BFB7A9A42ECD3FB7BAE
:1093AC00054AD35CFA799A4201D0042300E00023E9
:1093BC0018461037BD4680BDE4040020E0040020B0
:1093CC001000002080B584B000AF0346FB71FB7920
:1093DC00303B022B01D904236BE000BF00F03AF9BB
:1093EC00364B41221A70354B54225A70334B2B2278
:1093FC009A70324B4D22DA70304B4F221A712F4B30
:10940C0044225A712D4B45229A712C4AFB79D37107
:10941C002B4B18684FF4A0730822284901F0FAFF6F
:10942C000346BB81BB89DBB2184600F02DF903461D
:10943C00BB81B7F90C30002B02D0BB89DBB238E012
:10944C001F4B18684FF4A07308221C4902F065F8F2
:10945C000346BB81BB89DBB2184600F015F9034605
:10946C00BB81B7F90C30002B02D0BB89DBB220E0FA
:10947C000723FB720023FB730EE0FB7B0F4AD25CCD
:10948C00104B1968FB7B0B441B789A4201D00423C8
:10949C000FE0FB7B0133FB73FA7BFB7A9A42ECD334
:1094AC00FB7B064AD35CFA799A4201D0042300E094
:1094BC00002318461037BD4680BD00BFE4040020D1
:1094CC00E00400201400002080B582B000AF00F052
:1094DC00C1F83D4B41221A703B4B54225A703B4B06
:1094EC0018684FF4A0730222374901F093FF03462A
:1094FC00BB80BB88DBB2184600F0C6F80346BB80C5
:10950C00B7F90430002B01D0002359E02F4B186819
:10951C004FF4A07302222C4901F0FFFF0346BB80DD
:10952C00BB88DBB2184600F0AFF80346BB80B7F936
:10953C000430002B01D0002342E00023FB710CE02F
:10954C00FB79214AD25CFB792149CB5C9A4201D050
:10955C00002335E0FB790133FB71FB79012BEFD94B
:10956C001A4B1868FB79184A99184FF4A073052206
:10957C0001F0D3FF0346BB80BB88DBB2184600F07A
:10958C0083F80346BB80B7F90430002B14D0B7F92D
:10959C000430022B01D1012312E0002310E0FB79EF
:1095AC00094AD25CFB790A49CB5C9A4201D0002370
:1095BC0006E0FB790133FB71FB79062BEFD9022313
:1095CC0018460837BD4680BDE4040020E0040020A6
:1095DC002800002080B586B000AFF8600B467A609A
:1095EC007B810B4B18687A897B68F96801F012FF54
:1095FC000346FB82FB8ADBB2184600F045F80346B3
:10960C00FB82FB8ADBB218461837BD4680BD00BF13
:10961C00E004002080B586B000AFF8600B467A609D
:10962C007B810B4B18687A897B68F96801F075FFB0
:10963C000346FB82FB8ADBB2184600F025F8034692
:10964C00FB82FB8ADBB218461837BD4680BD00BFD3
:10965C00E004002080B582B000AF094B18684FF4CD
:10966C00A0730122074901F058FF0346FB71FB79F7
:10967C00032B01D0FFF7EEFF00BF0837BD4680BDBE
:10968C00E0040020E404002080B483B000AF034663
:10969C00FB71FB79012B06D0002B06DD023B012B65
:1096AC0003D8022302E0042300E0FB7918460C37B0
:1096BC00BD4680BC7047000080B500AF00F0C2FC16
:1096CC0000F01CF800F0D2F800F052F800F07AF834
:1096DC0000F0A2F8002304221946064802F004FE0A
:1096EC0000F03AF90449012000F082F900F0BAF9CF
:1096FC00FEE700BFE8D000088805002080B590B0D8
:10970C0000AF07F1180328220021184602F032FF9F
:10971C003B1D00221A605A609A60DA601A610123BC
:10972C00BB614FF48033FB6100237B6307F11803AB
:10973C00184601F00FFA0346002B01D000F07AFA1C
:10974C000F237B600123BB609023FB6000233B61F4
:10975C0000237B613B1D0021184601F07DFC034674
:10976C00002B01D000F066FA00BF4037BD4680BD2B
:10977C0080B500AF114B124A1A60104B4FF4E13216
:10978C005A600E4B00229A600C4B0022DA600B4B95
:10979C0000221A61094B0C225A61084B00229A6173
:1097AC00064B0022DA61054801F0E4FD0346002B6C
:1097BC0001D000F03FFA00BF80BD00BFF8040020CC
:1097CC000038014080B500AF114B124A1A60104BA3
:1097DC004FF4E1325A600E4B00229A600C4B00227F
:1097EC00DA600B4B00221A61094B0C225A61084BB0
:1097FC0000229A61064B0022DA61054801F0BAFD9D
:10980C000346002B01D000F015FA00BF80BD00BF4D
:10981C00400500200044004080B500AF114B124AB7
:10982C001A60104B4FF416525A600E4B00229A607D
:10983C000C4B0022DA600B4B00221A61094B0C22F4
:10984C005A61084B00229A61064B0022DA610548E6
:10985C0001F090FD0346002B01D000F0EBF900BFA6
:10986C0080BD00BF880500200048004080B588B04E
:10987C0000AF07F1100300221A605A609A60DA6098
:10988C002A4B9B69294A43F010039361274B9B6930
:10989C0003F01003FB60FB68244B9B69234A43F0E5
:1098AC0020039361214B9B6903F02003BB60BB68D1
:1098BC001E4B9B691D4A43F0040393611B4B9B6930
:1098CC0003F004037B607B68184B9B69174A43F0D9
:1098DC0008039361154B9B6903F008033B603B68DD
:1098EC0001224FF40051124801F01BF94FF40053C0
:1098FC003B6101237B610023BB610223FB6107F108
:10990C00100319460A4800F071FF4FF480433B6185
:10991C0000237B610223BB6107F110031946044845
:10992C0000F064FF00BF2037BD4680BD0010024030
:10993C000010014080B582B000AF7860391D4FF047
:10994C00FF330122034801F065FD7B681846083798
:10995C00BD4680BDF804002080B584B000AF002364
:10996C00FB731D4802F026FD00F0C4FB034603F513
:10997C00FA737B600023BB6002E000F0BBFBB860B5
:10998C00BA687B689A42F8D3FFF76EF803467B807F
:10999C00FB7B0133FB73B7F90230002B06D10F4868
:1099AC00FFF7BCF80E4802F005FD11E0FB7B1946F1
:1099BC000C4802F099FCFB7B022BD5D90A4802F02B
:1099CC00F9FC00224FF40051084801F0AAF8FEE718
:1099DC001037BD4680BD00BF08D10008D00500205F
:1099EC0048D100089CD1000800D2000800100140AA
:1099FC0080B586B002AF03463960FB71134802F0A4
:109A0C00D9FC134BBB604FF48043BB8107F10803B7
:109A1C00F879104A0092104A3968FEF791FB034618
:109A2C00FB73FB7B002B09D00C4802F0C3FC00221B
:109A3C004FF40051064801F074F8FEE7084802F0B4
:109A4C00B9FC00BF1037BD4680BD00BF68D200080E
:109A5C0000100140E8050020D00500209CD2000831
:109A6C00FCD2000880B582B000AF234802F0A2FC03
:109A7C00224B9B68B3F1FF3F03D0204B9B68002B1C
:109A8C0009D11F4802F096FC00224FF400511D48EA
:109A9C0001F047F8FEE7194BDB68B3F1FF3F09D142
:109AAC00194802F087FC00224FF40051154801F0D0
:109ABC0038F8FEE7114B9B6819461448FEF7A2FFD5
:109ACC0078600E4BDB687A689A420DD00B4BDB68E2
:109ADC001A4679680E4802F007FC00224FF4005138
:109AEC00084801F01EF8FEE70A4802F063FC00BFCC
:109AFC000837BD4680BD00BF4CD30008D005002000
:109B0C0094D3000800100140E8D30008008000083E
:109B1C0044D40008E8D4000880B500AF034802F034
:109B2C0049FC034802F046FC00BF80BD4CD5000840
:109B3C007CD5000880B584B000AF0346FB71FB797F
:109B4C00042B4ED801A252F823F000BF6D9B0008E5
:109B5C00C59B0008079C0008D19B0008E39B0008EC
:109B6C00294802F027FC294802F024FC0023FB6062
:109B7C000BE0274AFB68134408331B781946254829
:109B8C0002F0B2FBFB680133FB60214B1B685A1ED1
:109B9C00FB689A42EDD81E4B1B68013B1C4A1344D0
:109BAC001B7A19461C4802F09FFB194B1B7AFF2BA2
:109BBC0025D1FEF787FB22E0184802F0FBFBFEF7ED
:109BCC006DFB1DE0164802F0F5FB164802F0F2FBA7
:109BDC0000F0D5FB14E0144802F0ECFBFEF75EFB42
:109BEC000EE0FB791946114802F07EFB00224FF47F
:109BFC0000510F4800F095FFFEE700BF00E000BFEA
:109C0C0000BF1037BD4680BDD4D5000814D600085F
:109C1C00E80500204CD6000854D600085CD6000895
:109C2C0094D60008C8D6000848D700087CD700088E
:109C3C000010014080B400AF72B600BFFEE7000018
:109C4C0080B483B000AF0E4B9B690D4A43F0010307
:109C5C0093610B4B9B6903F001037B607B68084BA2
:109C6C00DB69074A43F08053D361054BDB6903F092
:109C7C0080533B603B6800BF0C37BD4680BC7047CF
:109C8C000010024080B58CB000AF786007F1200363
:109C9C0000221A605A609A60DA607B681B685B4A23
:109CAC00934232D15A4B9B69594A43F48043936196
:109CBC00574B9B6903F48043FB61FB69544B9B69D5
:109CCC00534A43F004039361514B9B6903F0040323
:109CDC00BB61BB694FF400733B6202237B620323BD
:109CEC00FB6207F1200319464A4800F07FFD4FF450
:109CFC0080633B6200237B620023BB6207F120037D
:109D0C001946444800F072FD7CE07B681B68424AAF
:109D1C00934238D13E4BDB693D4A43F40033D36167
:109D2C003B4BDB6903F400337B617B69384B9B69EC
:109D3C00374A43F004039361354B9B6903F00403EA
:109D4C003B613B6904233B6202237B620323FB627E
:109D5C0007F1200319462F4800F048FD08233B6209
:109D6C0000237B620023BB6207F1200319462948BC
:109D7C0000F03CFD00220021262000F0D6FA26201F
:109D8C0000F0EFFA3EE07B681B68244A934239D11D
:109D9C001F4BDB691E4A43F48023D3611C4BDB69E8
:109DAC0003F48023FB60FB68194B9B69184A43F052
:109DBC0008039361164B9B6903F00803BB60BB68F7
:109DCC004FF480633B6202237B620323FB6207F147
:109DDC0020031946124800F009FD4FF400633B6262
:109DEC0000237B620023BB6207F1200319460C4859
:109DFC0000F0FCFC00220021272000F096FA27201E
:109E0C0000F0AFFA00BF3037BD4680BD00380140CE
:109E1C00001002400008014000440040004800408F
:109E2C00000C014080B400AFFEE780B400AFFEE749
:109E3C0080B400AFFEE780B400AFFEE780B400AFA3
:109E4C00FEE780B400AF00BFBD4680BC704780B455
:109E5C0000AF00BFBD4680BC704780B400AF00BFF0
:109E6C00BD4680BC704780B500AF00F031F900BF33
:109E7C0080BD000080B500AF024801F005FC00BFBA
:109E8C0080BD00BF4005002080B500AF024801F046
:109E9C00FBFB00BF80BD00BF8805002080B586B0ED
:109EAC0000AFF860B9607A6000237B610AE0AFF321
:109EBC0000800146BB685A1CBA60CAB21A707B6932
:109ECC0001337B617A697B689A42F0DB7B681846C8
:109EDC001837BD4680BD80B586B000AFF860B9605C
:109EEC007A6000237B6109E0BB685A1CBA601B785E
:109EFC001846FFF71FFD7B6901337B617A697B682C
:109F0C009A42F1DB7B6818461837BD4680BD80B499
:109F1C0083B000AF78604FF0FF3318460C37BD4666
:109F2C0080BC704780B483B000AF786039603B6808
:109F3C004FF400525A60002318460C37BD4680BCC3
:109F4C00704780B483B000AF7860012318460C379B
:109F5C00BD4680BC704780B485B000AFF860B96076
:109F6C007A60002318461437BD4680BC7047000049
:109F7C0080B586B000AF7860144A154BD31A7B615C
:109F8C007B693B61134B1B68002B02D1114B124AAE
:109F9C001A60104B1A687B6813443A699A4207D2CC
:109FAC0002F036FB03460C221A604FF0FF3309E037
:109FBC00084B1B68FB60074B1A687B681344054A07
:109FCC001360FB6818461837BD4680BD0050002052
:109FDC0000040000F00D0020680F002080B400AFDA
:109FEC00034B044A9A6000BFBD4680BC704700BF5B
:109FFC0000ED00E000800008FFF7F0FF0B480C4973
:10A00C000C4A002302E0D458C4500433C4188C42C8
:10A01C00F9D3094A094C002301E013600432A2422F
:10A02C00FBD302F0FBFAFFF747FB70470000002060
:10A03C009800002034DC000898000020640F0020F9
:10A04C00FEE7000080B500AF084B1B68074A43F0E1
:10A05C0010031360032000F05DF90F2000F008F8E6
:10A06C00FFF7EEFD0023184680BD00BF0020024024
:10A07C0080B582B000AF7860124B1A68124B1B7817
:10A08C0019464FF47A73B3FBF1F3B2FBF3F31846B2
:10A09C0000F079F90346002B01D001230EE07B6818
:10A0AC000F2B0AD8002279684FF0FF3000F03DF9F1
:10A0BC00064A7B681360002300E00123184608372A
:10A0CC00BD4680BD30000020380000203400002048
:10A0DC0080B400AF054B1B781A46054B1B68134424
:10A0EC00034A136000BFBD4680BC70473800002097
:10A0FC00F40D002080B400AF024B1B681846BD461F
:10A10C0080BC7047F40D002080B584B000AF78603F
:10A11C00FFF7F0FFB8607B68FB60FB68B3F1FF3FB3
:10A12C0005D00A4B1B781A46FB681344FB6000BF32
:10A13C00FFF7E0FF0246BB68D31AFA689A42F7D8D9
:10A14C0000BF00BF1037BD4680BD00BF38000020E7
:10A15C0080B485B000AF78607B6803F00703FB60C8
:10A16C000C4BDB68BB60BA684FF6FF031340BB6057
:10A17C00FB681A02BB68134343F0BF6343F400331C
:10A18C00BB60044ABB68D36000BF1437BD4680BCBB
:10A19C00704700BF00ED00E080B400AF044BDB68FB
:10A1AC001B0A03F007031846BD4680BC704700BF6E
:10A1BC0000ED00E080B483B000AF0346FB7197F96B
:10A1CC000730002B0BDBFB7903F01F02064997F9D4
:10A1DC0007305B09012000FA02F241F8232000BF8E
:10A1EC000C37BD4680BC704700E100E080B483B002
:10A1FC0000AF03463960FB7197F90730002B0ADB7F
:10A20C003B68DAB20C4997F907301201D2B20B4411
:10A21C0083F800230AE03B68DAB20849FB7903F0C3
:10A22C000F03043B1201D2B20B441A7600BF0C3759
:10A23C00BD4680BC704700BF00E100E000ED00E0CF
:10A24C0080B489B000AFF860B9607A60FB6803F045
:10A25C000703FB61FB69C3F10703042B28BF04232D
:10A26C00BB61FB690433062B02D9FB69033B00E09D
:10A27C0000237B614FF0FF32BB6902FA03F3DA4330
:10A28C00BB681A407B699A404FF0FF317B6901FA39
:10A29C0003F3D9437B680B40134318462437BD4660
:10A2AC0080BC704780B400AFBFF34F8F00BF064B2C
:10A2BC00DB6803F4E0620449044B1343CB60BFF347
:10A2CC004F8F00BF00BFFDE700ED00E00400FA0572
:10A2DC0080B582B000AF78607B68013BB3F1807FC2
:10A2EC0001D301230FE00A4A7B68013B53600F2125
:10A2FC004FF0FF30FFF77AFF054B00229A60044BBA
:10A30C0007221A60002318460837BD4680BD00BFDF
:10A31C0010E000E080B582B000AF78607868FFF79D
:10A32C0017FF00BF0837BD4680BD80B586B000AFB3
:10A33C000346B9607A60FB7300237B61FFF72CFF47
:10A34C0078617A68B9687869FFF77AFF024697F9FD
:10A35C000F3011461846FFF749FF00BF1837BD46AE
:10A36C0080BD80B582B000AF0346FB7197F9073012
:10A37C001846FFF71FFF00BF0837BD4680BD80B5EC
:10A38C0000AFFFF78FFF80B582B000AF78607868C0
:10A39C00FFF79EFF034618460837BD4680BD80B4C4
:10A3AC0085B000AF78600023FB737B6893F8213095
:10A3BC00DBB2022B08D07B6804229A637B680022F4
:10A3CC0083F82020012320E07B681B681A687B68D7
:10A3DC001B6822F00E021A607B681B681A687B6887
:10A3EC001B6822F001021A607B681A6C7B68DB6BBD
:10A3FC00012101FA02F25A607B68012283F82120C4
:10A40C007B68002283F82020FB7B18461437BD465E
:10A41C0080BC704780B584B000AF78600023FB73BC
:10A42C007B6893F82130DBB2022B05D07B680422C9
:10A43C009A630123FB7351E07B681B681A687B6885
:10A44C001B6822F00E021A607B681B681A687B6816
:10A45C001B6822F001021A607B681B68224A934237
:10A46C0029D07B681B68214A934222D07B681B68E9
:10A47C001F4A93421AD07B681B681E4A934212D023
:10A48C007B681B681C4A93420AD07B681B681B4A7A
:10A49C00934202D14FF480130EE04FF080730BE027
:10A4AC004FF4803308E04FF4805305E04FF4807391
:10A4BC0002E0102300E00123114A53607B68012263
:10A4CC0083F821207B68002283F820207B685B6B5B
:10A4DC00002B03D07B685B6B78689847FB7B184636
:10A4EC001037BD4680BD00BF080002401C00024072
:10A4FC003000024044000240580002406C00024010
:10A50C000000024080B483B000AF0023FB710D4B00
:10A51C001B6903F08003002B0DD00A4B0A4A5A60CA
:10A52C00084B0A4A5A60074B1B6903F08003002B47
:10A53C0001D00123FB71FB7918460C37BD4680BC5A
:10A54C00704700BF0020024023016745AB89EFCD67
:10A55C0080B400AF054B1B69044A43F080031361C0
:10A56C0000231846BD4680BC704700BF0020024047
:10A57C0080B584B000AF7860FFF7BCFDF86010E0E8
:10A58C007B68B3F1FF3F0CD07B68002B07D0FFF743
:10A59C00B1FD0246FB68D31A7A689A4201D20323B2
:10A5AC0025E0154BDB6803F00103002BE8D1124BBF
:10A5BC00DB6803F02003002B02D00F4B2022DA6063
:10A5CC000D4BDB6803F01003002B0BD10A4BDB693E
:10A5DC0003F00103002B05D1074BDB6803F00403E8
:10A5EC00002B03D000F00AF8012300E000231846EA
:10A5FC001037BD4680BD00BF0020024080B483B040
:10A60C0000AF00237B60234BDB6803F01003002BAF
:10A61C0009D0214BDB6943F002031F4AD3617B68ED
:10A62C0043F010037B601B4BDB6803F00403002B2F
:10A63C0009D0194BDB6943F00103174AD3617B68DE
:10A64C0043F004037B60134BDB6903F00103002B25
:10A65C000BD0114BDB6943F004030F4AD3610D4B54
:10A66C00DB690C4A23F00103D3617B6840F20112D1
:10A67C00934206D1074BDB69064A23F00103D361F1
:10A68C0002E0044A7B68D36000BF0C37BD4680BC37
:10A69C00704700BF00200240F80D002080B584B048
:10A6AC0000AF786039600123FB730023BB602F4B34
:10A6BC001B7E012B01D1022353E02C4B01221A7675
:10A6CC007B681B68022B16D14CF25030FFF750FF01
:10A6DC000346002B41D1012000F04CF84CF25030D5
:10A6EC00FFF746FF0346FB73214B1B69204A23F0FF
:10A6FC000403136131E04CF25030FFF739FF03468D
:10A70C00002B2AD13B684FF0FF321A607B689B68A4
:10A71C00BB6019E0B86800F049F84CF25030FFF714
:10A72C0027FF0346FB73124B1B69114A23F00203EC
:10A73C001361FB7B002B03D03B68BA681A600CE0FA
:10A74C00BB6803F58063BB607B68DB689A027B683F
:10A75C009B681344BA689A42DCD3044B00221A76E5
:10A76C00FB7B18461037BD4680BD00BFF80D00209E
:10A77C000020024080B483B000AF7860094B002207
:10A78C00DA61094B1B69084A43F004031361064B59
:10A79C001B69054A43F04003136100BF0C37BD46EB
:10A7AC0080BC7047F80D00200020024080B483B0BC
:10A7BC0000AF78600B4B0022DA610B4B1B690A4A25
:10A7CC0043F002031361084A7B685361064B1B6913
:10A7DC00054A43F04003136100BF0C37BD4680BCF3
:10A7EC00704700BFF80D00200020024080B48BB0F1
:10A7FC0000AF7860396000237B6200233B6269E123
:10A80C0001227B6A02FA03F3FB613B681B68FA695D
:10A81C001340BB61BA69FB699A4240F058813B68AE
:10A82C005B689A4A93425ED0984A934275D8984A8C
:10A83C00934258D0964A93426FD8964A934252D03C
:10A84C00944A934269D8944A93424CD0924A934288
:10A85C0063D8924A934246D0904A93425DD8122BC9
:10A86C002AD8122B59D801A252F823F0F3A80008C9
:10A87C00CDA80008DFA8000821A9000827A9000816
:10A88C0027A9000827A9000827A9000827A900085C
:10A89C0027A9000827A9000827A9000827A900084C
:10A8AC0027A9000827A9000827A9000827A900083C
:10A8BC00D5A80008E9A80008794A934213D02CE0E7
:10A8CC003B68DB683B6229E03B68DB6804333B6236
:10A8DC0024E03B68DB6808333B621FE03B68DB68C5
:10A8EC000C333B621AE03B689B68002B02D10423BB
:10A8FC003B6213E03B689B68012B05D108233B624C
:10A90C007B68FA691A6109E008233B627B68FA6983
:10A91C005A6103E000233B6200E000BFBB69FF2BE0
:10A92C0001D87B6801E07B6804337B61BB69FF2B3A
:10A93C0002D87B6A9B0002E07B6A083B9B003B6170
:10A94C007B691A680F213B6901FA03F3DB431A4058
:10A95C00396A3B6901FA03F31A437B691A603B6855
:10A96C005B6803F08053002B00F0B1804D4B9B696A
:10A97C004C4A43F0010393614A4B9B6903F001037A
:10A98C00BB60BB68484A7B6A9B08023352F8233091
:10A99C00FB607B6A03F003039B000F2202FA03F3B4
:10A9AC00DB43FA681340FB607B68404A934213D048
:10A9BC007B683F4A93420DD07B683E4A934207D056
:10A9CC007B683D4A934201D1032306E0042304E053
:10A9DC00022302E0012300E000237A6A02F0030262
:10A9EC0092009340FA681343FB602F497B6A9B08E3
:10A9FC000233FA6841F823203B685B6803F4801348
:10AA0C00002B06D02D4B9A682C49BB6913438B60E5
:10AA1C0006E02A4B9A68BB69DB43284913408B60DC
:10AA2C003B685B6803F40013002B06D0234BDA68F9
:10AA3C002249BB691343CB6006E0204BDA68BB6943
:10AA4C00DB431E491340CB603B685B6803F4003367
:10AA5C00002B06D0194B5A681849BB6913434B603D
:10AA6C0006E0164B5A68BB69DB43144913404B6034
:10AA7C003B685B6803F48033002B21D00F4B1A68C2
:10AA8C000E49BB6913430B6021E000BF000032107C
:10AA9C0000003110000022100000211000001210E4
:10AAAC00000011100010024000000140000801409D
:10AABC00000C014000100140001401400004014052
:10AACC000B4B1A68BB69DB43094913400B607B6A6B
:10AADC0001337B623B681A687B6A22FA03F3002B12
:10AAEC007FF48EAE00BF00BF2C37BD4680BC7047D4
:10AAFC000004014080B485B000AF78600B467B80C9
:10AB0C007B689A687B881340002B02D00123FB736F
:10AB1C0001E00023FB73FB7B18461437BD4680BC59
:10AB2C00704780B483B000AF78600B467B801346CF
:10AB3C007B707B78002B03D07A887B681A6103E0EA
:10AB4C007B881A047B681A6100BF0C37BD4680BC39
:10AB5C007047000080B586B000AF78607B68002B32
:10AB6C0001D1012372E27B681B6803F00103002B07
:10AB7C0000F08780924B5B6803F00C03042B0CD025
:10AB8C008F4B5B6803F00C03082B12D18C4B5B686A
:10AB9C0003F48033B3F5803F0BD1894B1B6803F46E
:10ABAC000033002B6CD07B685B68002B68D10123D1
:10ABBC004CE27B685B68B3F5803F06D1804B1B6829
:10ABCC007F4A43F4803313602EE07B685B68002B74
:10ABDC000CD17B4B1B687A4A23F480331360784B7F
:10ABEC001B68774A23F4802313601DE07B685B6845
:10ABFC00B3F5A02F0CD1724B1B68714A43F4802320
:10AC0C0013606F4B1B686E4A43F4803313600BE088
:10AC1C006B4B1B686A4A23F480331360684B1B68C8
:10AC2C00674A23F4802313607B685B68002B13D086
:10AC3C00FFF760FA386108E0FFF75CFA02463B69FF
:10AC4C00D31A642B01D9032300E25D4B1B6803F478
:10AC5C000033002BF0D014E0FFF74CFA386108E019
:10AC6C00FFF748FA02463B69D31A642B01D9032338
:10AC7C00ECE1534B1B6803F40033002BF0D100E0E4
:10AC8C0000BF7B681B6803F00203002B63D04C4BA6
:10AC9C005B6803F00C03002B0BD0494B5B6803F093
:10ACAC000C03082B1CD1464B5B6803F48033002B40
:10ACBC0016D1434B1B6803F00203002B05D07B68B5
:10ACCC001B69012B01D00123C0E13D4B1B6823F014
:10ACDC00F8027B685B69DB00394913430B603AE08F
:10ACEC007B681B69002B20D0364B01221A60FFF7C2
:10ACFC0001FA386108E0FFF7FDF902463B69D31A07
:10AD0C00022B01D90323A1E12D4B1B6803F0020395
:10AD1C00002BF0D02A4B1B6823F0F8027B685B6990
:10AD2C00DB00274913430B6015E0264B00221A6009
:10AD3C00FFF7E0F9386108E0FFF7DCF902463B6900
:10AD4C00D31A022B01D9032380E11D4B1B6803F09E
:10AD5C000203002BF0D17B681B6803F00803002B67
:10AD6C003AD07B689B69002B19D0174B01221A60D3
:10AD7C00FFF7C0F9386108E0FFF7BCF902463B6900
:10AD8C00D31A022B01D9032360E10D4B5B6A03F04C
:10AD9C000203002BF0D0012000F0CEFA1CE00A4B8D
:10ADAC0000221A60FFF7A6F938610FE0FFF7A2F94D
:10ADBC0002463B69D31A022B08D9032346E100BF94
:10ADCC00001002400000424280044242924B5B6AF7
:10ADDC0003F00203002BE9D17B681B6803F004032A
:10ADEC00002B00F0A6800023FB758B4BDB6903F076
:10ADFC008053002B0DD1884BDB69874A43F080537D
:10AE0C00D361854BDB6903F08053BB60BB680123C6
:10AE1C00FB75824B1B6803F48073002B18D17F4B9E
:10AE2C001B687E4A43F480731360FFF763F9386143
:10AE3C0008E0FFF75FF902463B69D31A642B01D98E
:10AE4C00032303E1754B1B6803F48073002BF0D0D4
:10AE5C007B68DB68012B06D16F4B1B6A6E4A43F093
:10AE6C00010313622DE07B68DB68002B0CD16A4B6D
:10AE7C001B6A694A23F001031362674B1B6A664A1B
:10AE8C0023F0040313621CE07B68DB68052B0CD1F8
:10AE9C00614B1B6A604A43F0040313625E4B1B6AEE
:10AEAC005D4A43F0010313620BE05B4B1B6A5A4A89
:10AEBC0023F001031362584B1B6A574A23F0040317
:10AECC0013627B68DB68002B15D0FFF713F9386130
:10AEDC000AE0FFF70FF902463B69D31A41F28832B8
:10AEEC00934201D90323B1E04B4B1B6A03F00203DD
:10AEFC00002BEED014E0FFF7FDF838610AE0FFF705
:10AF0C00F9F802463B69D31A41F28832934201D9CF
:10AF1C0003239BE0404B1B6A03F00203002BEED192
:10AF2C00FB7D012B05D13C4BDB693B4A23F0805365
:10AF3C00D3617B68DB69002B00F08780364B5B6844
:10AF4C0003F00C03082B61D07B68DB69022B46D124
:10AF5C00334B00221A60FFF7CDF8386108E0FFF799
:10AF6C00C9F802463B69D31A022B01D903236DE0C1
:10AF7C00294B1B6803F00073002BF0D17B681B6A14
:10AF8C00B3F5803F08D1244B5B6823F400327B6817
:10AF9C009B68214913434B601F4B5B6823F474126D
:10AFAC007B68196A7B685B6A0B431B4913434B60D4
:10AFBC001B4B01221A60FFF79DF8386108E0FFF780
:10AFCC0099F802463B69D31A022B01D903233DE0C1
:10AFDC00114B1B6803F00073002BF0D035E0104BC5
:10AFEC0000221A60FFF786F8386108E0FFF782F854
:10AFFC0002463B69D31A022B01D9032326E0064BE8
:10B00C001B6803F00073002BF0D11EE07B68DB693A
:10B01C00012B07D1012319E0001002400070004001
:10B02C00600042420B4B5B68FB60FB6803F48032B0
:10B03C007B681B6A9A4206D1FB6803F470127B682A
:10B04C005B6A9A4201D0012300E0002318461837AE
:10B05C00BD4680BD0010024080B584B000AF786062
:10B06C0039607B68002B01D10123D0E06A4B1B684F
:10B07C0003F007033A689A4210D9674B1B6823F018
:10B08C00070265493B6813430B60634B1B6803F075
:10B09C0007033A689A4201D00123B8E07B681B6829
:10B0AC0003F00203002B20D07B681B6803F0040321
:10B0BC00002B05D0594B5B68584A43F4E06353604E
:10B0CC007B681B6803F00803002B05D0534B5B68AF
:10B0DC00524A43F460535360504B5B6823F0F002C8
:10B0EC007B689B684D4913434B607B681B6803F07E
:10B0FC000103002B40D07B685B68012B07D1474BC9
:10B10C001B6803F40033002B15D101237FE07B680F
:10B11C005B68022B07D1414B1B6803F00073002BBB
:10B12C0009D1012373E03D4B1B6803F00203002B94
:10B13C0001D101236BE0394B5B6823F003027B6880
:10B14C005B68364913434B60FEF7D4FFF8600AE0A6
:10B15C00FEF7D0FF0246FB68D31A41F288329342C5
:10B16C0001D9032353E02D4B5B6803F00C027B6881
:10B17C005B689B009A42EBD1274B1B6803F00703DB
:10B18C003A689A4210D2244B1B6823F007022249DA
:10B19C003B6813430B60204B1B6803F007033A68B2
:10B1AC009A4201D0012332E07B681B6803F0040350
:10B1BC00002B08D0194B5B6823F4E0627B68DB68DA
:10B1CC00164913434B607B681B6803F00803002B84
:10B1DC0009D0124B5B6823F460527B681B69DB005F
:10B1EC000E4913434B6000F021F802460B4B5B6891
:10B1FC001B0903F00F030A49CB5C22FA03F3094A3B
:10B20C001360094B1B681846FEF732FF00231846E3
:10B21C001037BD4680BD00BF002002400010024028
:10B22C00CCDB0008300000203400002080B487B054
:10B23C0000AF0023FB600023BB6000237B61002375
:10B24C007B6000233B611E4B5B68FB60FB6803F07B
:10B25C000C03042B02D0082B03D027E0194B3B61C5
:10B26C0027E0FB689B0C03F00F03174AD35C7B6051
:10B27C00FB6803F48033002B10D0114B5B685B0C24
:10B28C0003F00103114AD35CBB607B680D4A03FBDE
:10B29C0002F2BB68B2FBF3F37B6104E07B680C4AFF
:10B2AC0002FB03F37B617B693B6102E0054B3B6175
:10B2BC0000BF3B6918461C37BD4680BC704700BFB9
:10B2CC000010024000127A00E4DB0008F4DB0008F6
:10B2DC0000093D0080B400AF024B1B681846BD4608
:10B2EC0080BC70473000002080B500AFFFF7F2FF44
:10B2FC000246054B5B681B0A03F007030349CB5C52
:10B30C0022FA03F3184680BD00100240DCDB000873
:10B31C0080B500AFFFF7DEFF0246054B5B68DB0A2A
:10B32C0003F007030349CB5C22FA03F3184680BDF4
:10B33C0000100240DCDB000880B485B000AF786000
:10B34C000A4B1B680A4AA2FB03235B0A7A6802FBBE
:10B35C0003F3FB6000BFFB685A1EFA60002BF9D1A7
:10B36C0000BF00BF1437BD4680BC704730000020C2
:10B37C00D34D621080B582B000AF78607B68002B33
:10B38C0001D1012342E07B6893F84130DBB2002B02
:10B39C0006D17B68002283F840207868FEF772FCA7
:10B3AC007B68242283F841207B681B68DA687B6801
:10B3BC001B6822F40052DA60786800F057FE7B6854
:10B3CC001B681A697B681B6822F490421A617B68BF
:10B3DC001B685A697B681B6822F02A025A617B68D9
:10B3EC001B68DA687B681B6842F40052DA607B6881
:10B3FC0000225A647B68202283F841207B6820223B
:10B40C0083F842207B6800225A63002318460837D1
:10B41C00BD4680BD80B58AB002AFF860B9603B60B4
:10B42C001346FB8000237B61FB6893F84130DBB251
:10B43C00202B6DD1BB68002B02D0FB88002B01D1D7
:10B44C00012366E0FB6800225A64FB68212283F822
:10B45C004120FEF74FFE7861FB68FA889A84FB68FE
:10B46C00FA88DA84FB689B68B3F5805F08D1FB68C7
:10B47C001B69002B04D10023FB61BB68BB6103E09B
:10B48C00BB68FB610023BB612AE03B6800937B69CE
:10B49C0000228021F86800F0A6FB0346002B01D0A7
:10B4AC00032336E0FB69002B0BD1BB691B881A46C2
:10B4BC00FB681B68C2F308025A60BB690233BB61AC
:10B4CC0007E0FB691A78FB681B685A60FB6901335B
:10B4DC00FB61FB68DB8C9BB2013B9AB2FB68DA84A4
:10B4EC00FB68DB8C9BB2002BCFD13B6800937B6954
:10B4FC0000224021F86800F076FB0346002B01D0B7
:10B50C00032306E0FB68202283F84120002300E09F
:10B51C00022318462037BD4680BD80B58AB002AFE5
:10B52C00F860B9603B601346FB8000237B61FB68CD
:10B53C0093F84230DBB2202B7CD1BB68002B02D0BD
:10B54C00FB88002B01D1012375E0FB6800225A64B3
:10B55C00FB68222283F84220FB6800221A63FEF764
:10B56C00C9FD7861FB68FA889A85FB68FA88DA85E8
:10B57C00FB689B68B3F5805F08D1FB681B69002BE7
:10B58C0004D10023FB61BB68BB6103E0BB68FB61BA
:10B59C000023BB6143E03B6800937B6900222021C0
:10B5AC00F86800F020FB0346002B01D0032342E097
:10B5BC00FB69002B0CD1FB681B685B689BB2C3F367
:10B5CC0008039AB2BB691A80BB690233BB611FE0E6
:10B5DC00FB689B68B3F5805F07D0FB689B68002B0A
:10B5EC000AD1FB681B69002B06D1FB681B685B68E2
:10B5FC00DAB2FB691A7008E0FB681B685B68DBB2A7
:10B60C0003F07F03DAB2FB691A70FB690133FB614B
:10B61C00FB68DB8D9BB2013B9AB2FB68DA85FB6859
:10B62C00DB8D9BB2002BB6D1FB68202283F8422025
:10B63C00002300E0022318462037BD4680BD80B5AC
:10B64C0084B000AFF860B9601346FB80FB6893F8D8
:10B65C004230DBB2202B12D1BB68002B02D0FB880E
:10B66C00002B01D101230BE0FB6800221A63FB883D
:10B67C001A46B968F86800F024FB034600E0022380
:10B68C0018461037BD4680BD80B5BAB000AF7860A3
:10B69C007B681B681B68C7F8E4307B681B68DB6839
:10B6AC00C7F8E0307B681B685B69C7F8DC300023A7
:10B6BC00C7F8D8300023C7F8D430D7F8E43003F0FB
:10B6CC000F03C7F8D830D7F8D830002B0FD1D7F8E4
:10B6DC00E43003F02003002B09D0D7F8E03003F05E
:10B6EC002003002B03D0786800F001FC5BE2D7F854
:10B6FC00D830002B00F0DE80D7F8DC3003F00103EB
:10B70C00002B06D1D7F8E03003F49073002B00F037
:10B71C00D180D7F8E43003F00103002B0BD0D7F81D
:10B72C00E03003F48073002B05D07B685B6C43F036
:10B73C0001027B685A64D7F8E43003F00403002B51
:10B74C000BD0D7F8DC3003F00103002B05D07B685D
:10B75C005B6C43F002027B685A64D7F8E43003F068
:10B76C000203002B0BD0D7F8DC3003F00103002BC5
:10B77C0005D07B685B6C43F004027B685A64D7F895
:10B78C00E43003F00803002B11D0D7F8E03003F0BD
:10B79C002003002B05D1D7F8DC3003F00103002B7C
:10B7AC0005D07B685B6C43F008027B685A647B684D
:10B7BC005B6C002B00F0F281D7F8E43003F020032F
:10B7CC00002B08D0D7F8E03003F02003002B02D078
:10B7DC00786800F08CFB7B681B685B6903F04003A6
:10B7EC00002B14BF01230023DBB2C7F8D4307B68D5
:10B7FC005B6C03F00803002B03D1D7F8D430002B7B
:10B80C004FD0786800F096FA7B681B685B6903F090
:10B81C004003002B41D07B681B681433C7F89C3065
:10B82C00D7F89C3053E8003FC7F89830D7F89830D9
:10B83C0023F04003C7F8D0307B681B681433D7F86B
:10B84C00D020C7F8A820C7F8A430D7F8A410D7F890
:10B85C00A82041E80023C7F8A030D7F8A030002B6F
:10B86C00D9D17B68DB6B002B13D07B68DB6B7E4AFA
:10B87C005A637B68DB6B1846FEF7CCFD0346002B46
:10B88C0016D07B68DB6B5B6B7A68D26B1046984783
:10B89C000EE0786800F093F90AE0786800F08FF910
:10B8AC0006E0786800F08BF97B6800225A6475E139
:10B8BC0000BF73E17B681B6B012B40F04F81D7F805
:10B8CC00E43003F01003002B00F04881D7F8E0308F
:10B8DC0003F01003002B00F041810023BB607B6858
:10B8EC001B681B68BB607B681B685B68BB60BB68C4
:10B8FC007B681B685B6903F04003002B00F0B6808B
:10B90C007B68DB6B1B685B68A7F8BE30B7F8BE3092
:10B91C00002B00F045817B689B8DB7F8BE209A42C6
:10B92C0080F03E817B68B7F8BE20DA857B68DB6BE4
:10B93C009B69202B00F088807B681B680C33C7F850
:10B94C008830D7F8883053E8003FC7F88430D7F8F0
:10B95C00843023F48073C7F8B8307B681B680C33D1
:10B96C00D7F8B820C7F89420C7F89030D7F89010C3
:10B97C00D7F8942041E80023C7F88C30D7F88C30E6
:10B98C00002BD9D17B681B6814337B677B6F53E822
:10B99C00003F3B673B6F23F00103C7F8B4307B6873
:10B9AC001B681433D7F8B420C7F88020FB67F96FF5
:10B9BC00D7F8802041E80023BB67BB6F002BE1D197
:10B9CC007B681B6814333B663B6E53E8003FFB659A
:10B9DC00FB6D23F04003C7F8B0307B681B68143351
:10B9EC00D7F8B020FA66BB66B96EFA6E41E8002350
:10B9FC007B667B6E002BE3D17B68202283F8422090
:10BA0C007B6800221A637B681B680C33FB64FB6C3D
:10BA1C0053E8003FBB64BB6C23F01003C7F8AC3099
:10BA2C007B681B680C33D7F8AC20BA657B65796DE5
:10BA3C00BA6D41E800233B653B6D002BE3D17B687D
:10BA4C00DB6B1846FEF7ABFC7B6802225A637B6803
:10BA5C009A8D7B68DB8D9BB2D31A9BB219467868A2
:10BA6C0000F0B6F89CE000BF05BE00087B689A8D1C
:10BA7C007B68DB8D9BB2D31AA7F8CE307B68DB8D4D
:10BA8C009BB2002B00F08E80B7F8CE30002B00F06C
:10BA9C0089807B681B680C33BB63BB6B53E8003F2E
:10BAAC007B637B6B23F49073C7F8C8307B681B688F
:10BABC000C33D7F8C8207A643B64396C7A6C41E853
:10BACC000023FB63FB6B002BE3D17B681B681433F7
:10BADC007B627B6A53E8003F3B623B6A23F00103C5
:10BAEC00C7F8C4307B681B681433D7F8C4203A639A
:10BAFC00FB62F96A3A6B41E80023BB62BB6A002B1C
:10BB0C00E3D17B68202283F842207B6800221A63F1
:10BB1C007B681B680C333B613B6953E8003FFB605F
:10BB2C00FB6823F01003C7F8C0307B681B680C332C
:10BB3C00D7F8C020FA61BB61B969FA6941E8002302
:10BB4C007B617B69002BE3D17B6802225A63B7F8D7
:10BB5C00CE301946786800F03BF823E0D7F8E43093
:10BB6C0003F08003002B09D0D7F8E03003F08003FA
:10BB7C00002B03D0786800F053F914E0D7F8E430C8
:10BB8C0003F04003002B0ED0D7F8E03003F0400355
:10BB9C00002B08D0786800F092F904E000BF02E0B6
:10BBAC0000BF00E000BFE837BD4680BD80B483B065
:10BBBC0000AF786000BF0C37BD4680BC704780B4C6
:10BBCC0083B000AF786000BF0C37BD4680BC7047B7
:10BBDC0080B483B000AF78600B467B8000BF0C371D
:10BBEC00BD4680BC704780B590B000AFF860B960BE
:10BBFC003B601346FB7150E0BB6CB3F1FF3F4CD084
:10BC0C00BB6C002B07D0FEF775FA02463B68D31AC3
:10BC1C00BA6C9A4241D2FB681B680C33BB62BB6A9C
:10BC2C0053E8003F7B627B6A23F4D073FB63FB68B1
:10BC3C001B680C33FA6B7A633B63396B7A6B41E8A4
:10BC4C000023FB62FB6A002BE5D1FB681B681433F5
:10BC5C007B617B6953E8003F3B613B6923F0010347
:10BC6C00BB63FB681B681433BA6B3A62FB61F969FE
:10BC7C003A6A41E80023BB61BB69002BE5D1FB6844
:10BC8C00202283F84120FB68202283F84220FB68A5
:10BC9C00002283F8402003230FE0FB681B681A681E
:10BCAC00BB681340BA689A420CBF01230023DBB275
:10BCBC001A46FB799A429FD0002318464037BD465E
:10BCCC0080BD80B485B000AFF860B9601346FB80CE
:10BCDC00FB68BA689A62FB68FA889A85FB68FA88EE
:10BCEC00DA85FB6800225A64FB68222283F8422022
:10BCFC00FB681B69002B07D0FB681B68DA68FB68C4
:10BD0C001B6842F48072DA60FB681B685A69FB6836
:10BD1C001B6842F001025A61FB681B68DA68FB6819
:10BD2C001B6842F02002DA60002318461437BD4627
:10BD3C0080BC704780B495B000AF78607B681B689E
:10BD4C000C337B637B6B53E8003F3B633B6B23F40F
:10BD5C009073FB647B681B680C33FA6C3A64FB636E
:10BD6C00F96B3A6C41E80023BB63BB6B002BE5D14C
:10BD7C007B681B6814333B623B6A53E8003FFB61F2
:10BD8C00FB6923F00103BB647B681B681433BA6C3A
:10BD9C00FA62BB62B96AFA6A41E800237B627B6A89
:10BDAC00002BE5D17B681B6B012B19D17B681B68C1
:10BDBC000C33FB60FB6853E8003FBB60BB6823F0AF
:10BDCC0010037B647B681B680C337A6CBA617B61F3
:10BDDC007969BA6941E800233B613B69002BE5D1E5
:10BDEC007B68202283F842207B6800221A6300BF04
:10BDFC005437BD4680BC704780B584B000AF7860C6
:10BE0C007B685B6AFB60FB680022DA85FB680022BA
:10BE1C00DA84F868FFF7D3FE00BF1037BD4680BD4B
:10BE2C0080B485B000AF78607B6893F84130DBB2AA
:10BE3C00212B3ED17B689B68B3F5805F14D17B6866
:10BE4C001B69002B10D17B681B6AFB60FB681B888D
:10BE5C001A467B681B68C2F308025A607B681B6A2F
:10BE6C009A1C7B681A6208E07B681B6A591C7A680A
:10BE7C0011621A787B681B685A607B68DB8C9BB2FA
:10BE8C00013B9BB27A681946D184002B0FD17B6899
:10BE9C001B68DA687B681B6822F08002DA607B68BA
:10BEAC001B68DA687B681B6842F04002DA6000238A
:10BEBC0000E0022318461437BD4680BC704780B59D
:10BECC0082B000AF78607B681B68DA687B681B689F
:10BEDC0022F04002DA607B68202283F841207868E7
:10BEEC00FFF764FE002318460837BD4680BD80B5B9
:10BEFC008CB000AF78607B6893F84230DBB2222BB9
:10BF0C0040F0AE807B689B68B3F5805F17D17B688F
:10BF1C001B69002B13D10023FB627B689B6ABB62FD
:10BF2C007B681B685B689BB2C3F308039AB2BB6A5D
:10BF3C001A807B689B6A9A1C7B689A6226E07B68F5
:10BF4C009B6AFB620023BB627B689B68B3F5805FD6
:10BF5C0007D07B689B68002B0AD17B681B69002B80
:10BF6C0006D17B681B685B68DAB2FB6A1A7008E062
:10BF7C007B681B685B68DBB203F07F03DAB2FB6A99
:10BF8C001A707B689B6A5A1C7B689A627B68DB8D93
:10BF9C009BB2013B9BB27A681946D185002B5DD1CF
:10BFAC007B681B68DA687B681B6822F02002DA6009
:10BFBC007B681B68DA687B681B6822F48072DA6025
:10BFCC007B681B685A697B681B6822F001025A6106
:10BFDC007B68202283F842207B6800225A637B68AE
:10BFEC001B6B012B35D17B6800221A637B681B68A5
:10BFFC000C337B617B6953E8003F3B613B6923F069
:10C00C0010037B627B681B680C337A6A3A62FB61B3
:10C01C00F9693A6A41E80023BB61BB69002BE5D1A1
:10C02C007B681B681B6803F01003102B0AD10023DC
:10C03C00FB607B681B681B68FB607B681B685B682C
:10C04C00FB60FB687B689B8D19467868FFF7C0FD29
:10C05C0002E07868FCF742F9002302E0002300E0DC
:10C06C00022318463037BD4680BD000080B584B031
:10C07C0000AF78607B681B681B6923F440517B68B8
:10C08C00DA687B681B680A431A617B689A687B686C
:10C09C001B691A437B685B691343BB607B681B6835
:10C0AC00DB6823F4B05323F00C037A681268B96888
:10C0BC000B43D3607B681B685B6923F440717B681E
:10C0CC009A697B681B680A435A617B681B682C4A17
:10C0DC00934203D1FFF71CF9F86002E0FFF704F973
:10C0EC00F860FA6813469B0013449A001A447B6864
:10C0FC005B689B00B2FBF3F3224AA2FB03235B09B0
:10C10C001901FA6813469B0013449A001A447B6881
:10C11C005B689B00B2FBF3F21A4BA3FB02035B09B7
:10C12C00642000FB03F3D31A1B013233154AA2FB24
:10C13C0003235B0903F0F0031944FA6813469B00D0
:10C14C0013449A001A447B685B689B00B2FBF3F2C1
:10C15C000C4BA3FB02035B09642000FB03F3D31A13
:10C16C001B013233074AA2FB03235B0903F00F02C6
:10C17C007B681B680A449A6000BF1037BD4680BDBF
:10C18C00003801401F85EB51002310B50446C0E96F
:10C19C000033C0E90433836081814366C2818361CB
:10C1AC00194608225C3000F0E5F9054B2462636205
:10C1BC00044BA362044BE362044B236310BD00BF2A
:10C1CC00D1C30008F3C300082BC400084FC40008F7
:10C1DC00024A0349034800F069B800BF3C00002044
:10C1EC0029CF00084800002041680C4B10B599423B
:10C1FC00044601D000F092FEA168094B994202D08E
:10C20C00204600F08BFEE168064B994204D0204694
:10C21C00BDE8104000F082BE10BD00BF180E00201B
:10C22C00800E0020E80E002010B50B4B0B4C0C4A76
:10C23C0020461A6004210022FFF7A6FF04F16800D3
:10C24C0001220921FFF7A0FF04F1D0000222BDE872
:10C25C0010401221FFF798BF500F0020180E00203D
:10C26C00DDC10008014800F0FDB900BF590F0020E6
:10C27C00014800F0F8B900BF590F002010B5044672
:10C28C00FFF7F0FF236A1BB1BDE81040FFF7F0BFCA
:10C29C00044B2362044B1B68002BF5D1FFF7C4FF42
:10C2AC00F2E700BFF5C10008500F00202DE9F8435C
:10C2BC000746884614460026D4E90195B9F10109D0
:10C2CC0005D52468002CF7D13046BDE8F883AB893E
:10C2DC00012B07D9B5F90E30013303D02946384666
:10C2EC00C04706436835E9E70FB407B5064904AB08
:10C2FC00086853F8042B8168019300F0DFFA03B04F
:10C30C005DF804EB04B0704794000020036A70B52C
:10C31C0005460E4684680BB9FFF7B0FF636EDB076A
:10C32C0005D4A389980502D4A06D00F09BF9A389CC
:10C33C00190713D523698BB1013EA36816F8011FA9
:10C34C00013BA360E9B9002B2EDA22460A212846CC
:10C35C0000F07BF8013007D00A2507E0214628467B
:10C36C0000F0B0F80028E7D04FF0FF35636EDA0725
:10C37C0005D4A3899B0502D4A06D00F074F928465E
:10C38C0070BD002B04DAA2699A4206DC0A2904D09B
:10C39C0023685A1C22601970CFE72246284600F009
:10C3AC0054F80130C9D1DFE70A2523685A1C2260F2
:10C3BC001D70DBE7024B01461868FFF7A7BF00BFF3
:10C3CC009400002010B50C46B1F90E1000F0FCF8EA
:10C3DC000028ABBF636DA3891B1823F48053ACBF3B
:10C3EC006365A38110BD2DE9F0411F468B8905467D
:10C3FC00DB050C46164605D502230022B1F90E10BA
:10C40C0000F0D0F8A389324623F48053A381284648
:10C41C003B46B4F90E10BDE8F04100F0E7B810B59A
:10C42C000C46B1F90E1000F0BDF8431CA38915BFE2
:10C43C00606523F4805343F48053A38118BFA38118
:10C44C0010BDB1F90E1000F09DB8F8B50E461446AB
:10C45C00054618B1036A0BB9FFF710FFA369A36077
:10C46C00A3891A0725D523691BB323682269F6B261
:10C47C00981A63693746834204DC2146284600F04B
:10C48C004DFDE0B9A368013BA36023685A1C2260F0
:10C49C001E706269431C9A4204D0A389DB0706D53F
:10C4AC000A2E04D12146284600F038FD38B938460A
:10C4BC00F8BD2146284600F005F80028D5D04FF0ED
:10C4CC00FF37F4E738B52A4B054618680C4618B107
:10C4DC00036A0BB9FFF7D2FEA389B4F90C20180735
:10C4EC0022D4D90607D409232B6042F040034FF025
:10C4FC00FF30A38134E0580712D5616B41B104F1D0
:10C50C004403994202D0284600F0BCF80023636330
:10C51C00A38923F02403A381002363602369236090
:10C52C00A38943F00803A38123694BB9A38903F4BE
:10C53C002073B3F5007F03D02146284600F03BFD65
:10C54C00A089B4F90C2010F001030AD00023A360D9
:10C55C0063695B42A361236943B910F08000C4D1C5
:10C56C0038BD810758BF6369A360F4E70020F7E783
:10C57C009400002003460244934200D1704703F814
:10C58C00011BF9E738B50023054D044608462B601E
:10C59C00FDF7BDFC431C02D12B6803B1236038BDF1
:10C5AC00540F002038B50446084611460022054DAC
:10C5BC002A601A46FDF7CFFC431C02D12B6803B14D
:10C5CC00236038BD540F002038B504460846114688
:10C5DC000022054D2A601A46FDF760FC431C02D16F
:10C5EC002B6803B1236038BD540F002038B50446C6
:10C5FC00084611460022054D2A601A46FDF76BFCD1
:10C60C00431C02D12B6803B1236038BD540F0020AA
:10C61C00014B1868704700BF9400002070B50026CD
:10C62C000C4D0D4C641BA410A64209D100F040FD2A
:10C63C0000260A4D0A4C641BA410A64205D170BDFD
:10C64C0055F8043B98470136EEE755F8043B9847FC
:10C65C000136F2E72CDC00082CDC00082CDC00088E
:10C66C0030DC0008704770470A44914200F1FF33F8
:10C67C0000D1704710B511F8014B914203F8014FEE
:10C68C00F9D110BD38B50546002940D051F8043C0D
:10C69C000C1F002BB8BFE41800F0DCF81C4A136820
:10C6AC0033B9636014602846BDE8384000F0D8B850
:10C6BC00A34208D9206821188B4201BF19685B6816
:10C6CC0009182160EDE71A465B680BB1A342FAD951
:10C6DC0011685018A0420BD12068014450188342B5
:10C6EC001160E0D118685B68084410605360DAE7A9
:10C6FC0002D90C232B60D6E7206821188B4201BF8E
:10C70C0019685B680918216063605460CBE738BD19
:10C71C005C0F002070B50E4E0C463168054611B901
:10C72C0000F0A8FC30602146284600F0A3FC431C16
:10C73C000AD0C41C24F00304A04207D0211A2846B6
:10C74C0000F098FC013001D14FF0FF34204670BD51
:10C75C00600F00202DE9F843CD1C25F003050835AA
:10C76C000C2D38BF0C25002D074601DBA94205D93D
:10C77C000C2300263B603046BDE8F883DFF8D08000
:10C78C0000F068F8D8F800301C465CBB29463846E7
:10C79C00FFF7C0FF431C044655D1D8F8004026468D
:10C7AC00002E45D1002C48D023683146384604EB86
:10C7BC00030900F05FFC81453FD1216838466D1AB2
:10C7CC002946FFF7A7FF013037D023682B4423609D
:10C7DC00D8F80030002B38D05A68A2422BD1002256
:10C7EC005A600FE02268521B1FD40B2A17D961190B
:10C7FC00A342256018BF5960636808BFC8F80010D1
:10C80C0062514B60384604F10B0600F029F826F013
:10C81C000706231DF21AAED09B1BA350ABE7A34215
:10C82C006268DDD1C8F80020ECE723466468ACE709
:10C83C0034467668B4E71346CCE70C2338463B60A5
:10C84C0000F00EF897E72560DCE75B60FFDE00BFC9
:10C85C005C0F00200148FFF705BF00BF580F0020F8
:10C86C000148FFF700BF00BF580F0020936810B4B9
:10C87C00013B002B936007DA9469A34201DB0A2980
:10C88C0002D110BCFFF7E1BD1368581C1060197081
:10C89C00084610BC7047F8B506460F461446D51826
:10C8AC00AC4201D1002007E03A46304614F8011B97
:10C8BC00FFF7DCFF431CF3D1F8BD00002DE9F04F6E
:10C8CC000D461446984606469DB018B1036A0BB93E
:10C8DC00FFF7D4FC6B6ED90705D4AB899A0502D44B
:10C8EC00A86DFFF7BFFEAB891B0701D52B699BB960
:10C8FC0029463046FFF7E6FD70B16B6EDC0704D5B8
:10C90C004FF0FF301DB0BDE8F08FAB899805F7D420
:10C91C00A86DFFF7A8FEF3E70023099320238DF8F9
:10C92C00293030234FF00109CDF80C80DFF8AC81B1
:10C93C008DF82A3023469A4613F8012B0AB1252A82
:10C94C00F9D1BAEB040B0BD05B4622462946304694
:10C95C00FFF7A1FF013000F0A980099A5A4409920F
:10C96C009AF80030002B00F0A18000234FF0FF322A
:10C97C00CDE905230AF1010A049307938DF853308E
:10C98C001A935446052214F8011B544800F082FBFC
:10C99C00049AD8B9D10644BF20238DF8533013071D
:10C9AC0044BF2B238DF853309AF800302A2B15D026
:10C9BC00544600204FF00A0C079A214611F8013B0F
:10C9CC00303B092B4DD9B0B1079214E0A0EB080312
:10C9DC0009FA03F31343A2460493D2E7039B191DF0
:10C9EC001B680391002BBBBF5B4242F00202079312
:10C9FC000793B8BF049223782E2B0CD163782A2B83
:10CA0C0034D1039B02341A1D1B680392002BB8BF50
:10CA1C004FF0FF330593DFF8C8A00322504621786E
:10CA2C0000F038FB38B14022049BA0EB0A00824096
:10CA3C0013430134049314F8011B062229488DF882
:10CA4C00281000F027FB00283FD0274B1BBB039B73
:10CA5C00073323F0070308330393099B3B440993E3
:10CA6C0068E70C4601200CFB0232A6E700234FF0CE
:10CA7C000A0C194601340593204610F8012B303A64
:10CA8C00092A03D9002BC6D00591C4E7044601231B
:10CA9C000CFB0121F0E703AB00932A463046134B05
:10CAAC0004A9AFF300800746781CD6D16B6ED9076A
:10CABC0005D4AB899A0502D4A86DFFF7D4FDAB89D8
:10CACC005B063FF51DAF09981CE703AB00932A46A4
:10CADC003046064B04A900F07DF8E4E7F6DB0008CD
:10CAEC00FCDB000800DC000800000000A3C8000804
:10CAFC002DE9F047164699468A680B69074693421A
:10CB0C00B8BF1346336091F843200C46DDF8208003
:10CB1C000AB1013333602368990642BF336802338C
:10CB2C003360256815F0060506D104F1190AE3688F
:10CB3C0032689B1AAB422BDC94F84320131E2268FC
:10CB4C0018BF0123920630D44946384604F14302FB
:10CB5C00C047013023D02368226903F00603042B5D
:10CB6C0014BF002533684FF0000608BFE56804F1D8
:10CB7C001A0408BFED1A54F8123C08BF25EAE575F3
:10CB8C009342C4BF9B1AED18B5421AD1002008E09D
:10CB9C000123524649463846C047013003D14FF075
:10CBAC00FF30BDE8F0870135C1E73020E11881F88E
:10CBBC0043005A1C94F845102244023382F8431067
:10CBCC00C2E70123224649463846C0470130E6D029
:10CBDC000136D9E72DE9FF470F7E9146782F804625
:10CBEC000C469A460C9D01F1430207D8622F0AD8D5
:10CBFC00002F00F0D580582F00F0C18004F14205C1
:10CC0C0084F842703AE0A7F16303152BF6D801A122
:10CC1C0051F823F079CC00088DCC000809CC000821
:10CC2C0009CC000809CC000809CC00088DCC000800
:10CC3C0009CC000809CC000809CC000809CC000874
:10CC4C0093CD0008B9CC00084DCD000809CC0008E4
:10CC5C0009CC0008B5CD000809CC0008B9CC0008F7
:10CC6C0009CC000809CC000855CD00082B681A1D0A
:10CC7C001B682A6004F1420584F842300123A0E0CD
:10CC8C0020682B68070603F10401296001D51E6892
:10CC9C0003E04606FBD5B3F90060002E03DA2D2322
:10CCAC00764284F843300A23594812E02B682068F6
:10CCBC00191D2960050601D51E6802E04106FBD549
:10CCCC001E886F2F0CBF08230A235148002184F8BB
:10CCDC0043106568002DA8BF2168A560A4BF21F092
:10CCEC00040121600EB9002D4BD01546B6FBF3F1B3
:10CCFC0003FB1167C75D05F8017D3746BB420E4645
:10CD0C00F4D9082B0BD12368DE0708D52369616899
:10CD1C009942DEBF302305F8013C05F1FF35521B6B
:10CD2C0022614B4621464046CDF800A003AAFFF7EE
:10CD3C00DFFE01304AD14FF0FF3004B0BDE8F08780
:10CD4C00236843F0200323607827324884F8457029
:10CD5C00236829681F0651F8046B02D45F0648BF8C
:10CD6C00B6B2DF0748BF43F02003296048BF2360F9
:10CD7C001EB9236823F0200323601023A6E7244860
:10CD8C00E4E71546BDE72B682668181D6169286025
:10CD9C0035061B6801D5196002E07006FBD51980B9
:10CDAC00002315462361BCE72B6800211A1D2A605D
:10CDBC001D686268284600F06DF908B1401B606080
:10CDCC0063682361002384F84330AAE72A46494666
:10CDDC0040462369D0470130ADD023689B0713D45C
:10CDEC00E068039B9842B8BF1846A6E70123324679
:10CDFC0049464046D04701309DD00135E368039940
:10CE0C005B1AAB42F2DCEBE7002504F11906F5E7FF
:10CE1C0007DC000818DC00088A89F8B505461007FD
:10CE2C000C4657D44B68002B04DC0B6C002B01DC3C
:10CE3C000020F8BDE66A002EFAD0002312F48052CE
:10CE4C002F68216A2B6032D0606DA3895A0705D5F3
:10CE5C006368C01A636B0BB1236CC01A00230246C3
:10CE6C00E66A2846216AB047431CA38906D1296883
:10CE7C001D292BD8284A0A41D60727D400226260E4
:10CE8C002269D904226004D5421C01D12B6803B954
:10CE9C006065616B2F600029CAD004F1440399428C
:10CEAC0002D02846FFF7EEFB00206063C1E70123A8
:10CEBC002846B047411CC8D12B68002BC5D01D2B70
:10CECC0001D0162B01D12F60B2E7A38943F04003A8
:10CEDC00A381AEE70F69002FAAD0930718BF0023D8
:10CEEC000E6808BF4B69F61B0F608B60002E9FDD30
:10CEFC0033463A462846216AD4F828C0E047002831
:10CF0C0006DCA3894FF0FF3043F04003A38190E788
:10CF1C000744361AEAE700BFFEFFBFDF38B50B69DE
:10CF2C0005460C4613B90025284638BD18B1036ACE
:10CF3C000BB9FFF7A3F9B4F90C30002BF3D0626EE8
:10CF4C00D00704D4990502D4A06DFFF78BFB2846BB
:10CF5C002146FFF761FF636E0546DA07E4D4A38927
:10CF6C009B05E1D4A06DFFF77EFBDDE770B50C46A9
:10CF7C00B1F90E10154600291E4696B00CDAA3899D
:10CF8C00002113F0800F0CBF4FF48063402300206E
:10CF9C0031602B6016B070BD6A4600F049F800286D
:10CFAC00EDDB019901F47041A1F50053594259414F
:10CFBC004FF48063EBE78B8973B59D0706460C46EF
:10CFCC0007D504F14703236023610123636102B099
:10CFDC0070BD6A4601ABFFF7C9FF009905463046A4
:10CFEC00FFF7B8FB48B9B4F90C309A05EFD423F02D
:10CFFC00030343F00203A381E3E7A389206043F01A
:10D00C008003A381009B20616361019B5BB130466F
:10D01C00B4F90E1000F01EF828B1A38923F0030315
:10D02C0043F00103A381A3891D43A581CFE7000031
:10D03C0038B50023064D0446084611462B60FCF714
:10D04C0071FF431C02D12B6803B1236038BD00BFB4
:10D05C00540F002038B50023054D044608462B60BC
:10D06C00FCF76FFF431C02D12B6803B1236038BD62
:10D07C00540F002038B50023054D044608462B609C
:10D08C00FCF776FF431C02D12B6803B1236038BD3B
:10D09C00540F0020034610B5C9B2024493421846FF
:10D0AC0001D1002003E0047801338C42F6D110BD8D
:10D0BC00F8B500BFF8BC08BC9E467047F8B500BF79
:08D0CC00F8BC08BC9E46704749
:10D0D400484D2D3130206E616D655F313031323312
:10D0E400343500005374617274696E672041707046
:10D0F4006C69636174696F6E207625642E25640DF6
:10D104000A000000496E697469616C697A696E6726
:10D1140020746865204669726D7761726520557068
:10D124006461746520436F6E6669677572617469C2
:10D134006F6E73207375622D6D6F64756C652E2E22
:10D144002E0D0000444F4E453A204669726D7761BA
:10D1540072652055706461746520436F6E666967FB
:10D1640075726174696F6E73207375622D6D6F646F
:10D17400756C6520686173206265656E20737563E4
:10D184006365737366756C6C7920696E6974696123
:10D194006C697A65642E0D005741524E494E473AE8
:10D1A40020546865204669726D77617265205570F8
:10D1B4006461746520436F6E666967757261746932
:10D1C4006F6E73207375622D6D6F64756C6520636B
:10D1D4006F756C64206E6F7420626520696E69746B
:10D1E40069616C697A656420617420617474656D29
:10D1F40070742025642E2E2E0D0A00004552524FC5
:10D20400523A20546865204669726D7761726520D0
:10D2140055706461746520436F6E666967757261E9
:10D2240074696F6E73207375622D6D6F64756C65B0
:10D2340020636F756C64206E6F7420626520696E64
:10D24400697469616C697A65642E204F7572204D2A
:10D2540043552F4D50552077696C6C2068616C7470
:10D26400212E0D00496E697469616C697A696E6773
:10D274002074686520455458204F544120466972F3
:10D284006D7761726520557064617465204D6F64BB
:10D29400756C652E0D0000004552524F523A2054D1
:10D2A400686520455458204F5441204669726D7773
:10D2B40061726520557064617465204D6F64756C8E
:10D2C4006520636F756C64206E6F742062652069DD
:10D2D4006E697469616C697A65642E204F75722079
:10D2E4004D43552F4D50552077696C6C2068616C07
:10D2F40074212E0D00000000444F4E453A2054681E
:10D304006520455458204F5441204669726D776119
:10D31400726520557064617465204D6F64756C6529
:10D3240020686173206265656E207375636365733D
:10D334007366756C6C7920696E697469616C697A5D
:10D3440065642E0D0000000056616C6964617469A7
:10D354006E672063757272656E746C7920696E7382
:10D3640074616C6C6564204170706C69636174698C
:10D374006F6E204669726D7761726520696E206FE9
:10D384007572204D43552F4D50552E2E2E0D0000F5
:10D394004552524F523A204E6F204170706C69636F
:10D3A4006174696F6E204669726D77617265206879
:10D3B4006173206265656E206964656E746966696F
:10D3C400656420746F20626520696E7374616C6C8F
:10D3D400656420696E206F7572204D43552F4D5042
:10D3E400552E0D004552524F523A20546865207212
:10D3F40065636F726465642033322D6269742043FF
:10D404005243206F662074686520696E7374616C82
:10D414006C6564204170706C69636174696F6E201F
:10D424004669726D7761726520686173206E6F2042
:10D4340076616C756520696E2069742E0D0000009C
:10D444004552524F523A20546865207265636F7298
:10D454006465642033322D62697420435243206F23
:10D46400662074686520696E7374616C6C656420F1
:10D474004170706C69636174696F6E204669726D86
:10D484007761726520496D616765206D69736D61AF
:10D4940074636865732077697468207468652063B1
:10D4A400616C63756C61746564206F6E653A205BB2
:10D4B40043616C63756C6174656420435243203D21
:10D4C400203078253038585D205B5265636F726474
:10D4D400656420435243203D203078253038585D20
:10D4E4000D0A0000444F4E453A2054686520637588
:10D4F4007272656E746C7920696E7374616C6C659C
:10D5040064204170706C69636174696F6E20466950
:10D51400726D7761726520696E206F7572204D435C
:10D52400552F4D505520686173206265656E2073D8
:10D5340075636365737366756C6C792076616C6969
:10D5440064617465642E0D00416E20455458204F6B
:10D554005441205472616E73616374696F6E206903
:10D56400732061626F757420746F2067697665201B
:10D57400706C6163652E0D0046696E697368696E2F
:10D5840067206F722073746F7070696E67206120FA
:10D594006365727461696E207461736B2062656681
:10D5A4006F72652070726F63656564696E6720775A
:10D5B4006974682074686520455458204F5441208C
:10D5C4005472616E73616374696F6E2E2E2E0D003A
:10D5D400444F4E453A20416E20455458204F544103
:10D5E400205472616E73616374696F6E2068617335
:10D5F400206265656E207375636365737366756C0D
:10D604006C7920636F6D706C657465642E0D000019
:10D6140053686F77696E6720746865204554582095
:10D624004F544120437573746F6D204461746120BD
:10D6340074686174207761732072656365697665C7
:10D64400643A205B0D00000025642C2000000000DB
:10D6540025645D0D0A000000444F4E453A204554B0
:10D6640058204F54412070726F6365737320686152
:10D6740073206265656E2061626F727465642E202A
:10D6840054727920616761696E2E2E2E0D000000A0
:10D694005741524E494E473A2041204669726D77B0
:10D6A40061726520496D61676520557064617465B8
:10D6B40020686173206265656E207265717565739B
:10D6C400742E0D00526573657474696E67206F75EE
:10D6D40072204D43552F4D505520746F206A756D3F
:10D6E4007020696E746F2069747320426F6F746C5C
:10D6F4006F61646572204669726D7761726520742A
:10D704006F20726563656976652074686520646559
:10D714007369726564204669726D77617265204928
:10D724006D61676520746865726520616E6420743C
:10D7340068656E2074727920616761696E2E2E2E81
:10D744000D0000004552524F523A20455458204F84
:10D7540054412070726F636573732068617320662F
:10D7640061696C65642E2054727920616761696E09
:10D774002E2E2E0D000000004552524F523A2045E5
:10D784007863657074696F6E20436F646520726599
:10D79400636569766564202564206973206E6F74FF
:10D7A400207265636F676E697A65642E204F7572A7
:10D7B400204D43552F4D50552077696C6C2068617E
:10D7C4006C74212E0D0A000000000000B71DC10476
:10D7D4006E3B8209D926430DDC7604136B6BC517A7
:10D7E400B24D861A0550471EB8ED08260FF0C9221F
:10D7F400D6D68A2F61CB4B2B649B0C35D386CD3187
:10D804000AA08E3CBDBD4F3870DB114CC7C6D04852
:10D814001EE09345A9FD5241ACAD155F1BB0D45B2E
:10D82400C2969756758B5652C836196A7F2BD86E96
:10D83400A60D9B6311105A6714401D79A35DDC7D0E
:10D844007A7B9F70CD665E74E0B6239857ABE29CFA
:10D854008E8DA191399060953CC0278B8BDDE68F2E
:10D8640052FBA582E5E66486585B2BBEEF46EABA16
:10D874003660A9B7817D68B3842D2FAD3330EEA90E
:10D88400EA16ADA45D0B6CA0906D32D42770F3D072
:10D89400FE56B0DD494B71D94C1B36C7FB06F7C3A6
:10D8A4002220B4CE953D75CA28803AF29F9DFBF69E
:10D8B40046BBB8FBF1A679FFF4F63EE143EBFFE586
:10D8C4009ACDBCE82DD07DEC77708634C06D47309E
:10D8D400194B043DAE56C539AB0682271C1B4323A6
:10D8E400C53D002E7220C12ACF9D8E1278804F161E
:10D8F400A1A60C1B16BBCD1F13EB8A01A4F64B0586
:10D904007DD00808CACDC90C07AB9778B0B6567C51
:10D9140069901571DE8DD475DBDD936B6CC0526F2D
:10D92400B5E6116202FBD066BF469F5E085B5E5A95
:10D93400D17D1D576660DC5363309B4DD42D5A490D
:10D944000D0B1944BA16D84097C6A5AC20DB64A8C1
:10D95400F9FD27A54EE0E6A14BB0A1BFFCAD60BB2D
:10D96400258B23B69296E2B22F2BAD8A98366C8E15
:10D9740041102F83F60DEE87F35DA9994440689D0D
:10D984009D662B902A7BEA94E71DB4E0500075E471
:10D99400892636E93E3BF7ED3B6BB0F38C7671F7A5
:10D9A400555032FAE24DF3FE5FF0BCC6E8ED7DC29D
:10D9B40031CB3ECF86D6FFCB8386B8D5349B79D185
:10D9C400EDBD3ADC5AA0FBD8EEE00C6959FDCD6DF3
:10D9D40080DB8E6037C64F643296087A858BC97EA9
:10D9E4005CAD8A73EBB04B77560D044FE110C54B19
:10D9F400383686468F2B47428A7B005C3D66C15889
:10DA0400E4408255535D43519E3B1D252926DC216C
:10DA1400F0009F2C471D5E28424D1936F550D83230
:10DA24002C769B3F9B6B5A3B26D6150391CBD40790
:10DA340048ED970AFFF0560EFAA011104DBDD01410
:10DA4400949B93192386521D0E562FF1B94BEEF574
:10DA5400606DADF8D7706CFCD2202BE2653DEAE630
:10DA6400BC1BA9EB0B0668EFB6BB27D701A6E6D310
:10DA7400D880A5DE6F9D64DA6ACD23C4DDD0E2C010
:10DA840004F6A1CDB3EB60C97E8D3EBDC990FFB94C
:10DA940010B6BCB4A7AB7DB0A2FB3AAE15E6FBAAA8
:10DAA400CCC0B8A77BDD79A3C660369B717DF79F98
:10DAB400A85BB4921F4675961A163288AD0BF38C88
:10DAC400742DB081C330718599908A5D2E8D4B5928
