:020000040800F2
:102000000050002039420008914000089740000825
:102010009D400008A3400008A940000800000000FF
:10202000000000000000000000000000AF400008B9
:10203000BB40000800000000C7400008D340000873
:102040008142000881420008814200088142000864
:102050008142000881420008814200088142000854
:102060008142000881420008814200088142000844
:102070008142000881420008814200088142000834
:102080008142000881420008814200088142000824
:102090008142000881420008814200088142000814
:1020A0008142000881420008814200088142000804
:1020B00081420008814200088142000881420008F4
:1020C00081420008814200088142000881420008E4
:1020D00081420008814200088142000881420008D4
:1020E000814200088142000881420008000000008F
:1020F00000000000000000000000000000000000E0
:0C21000000000000000000005FF808F183
:10210C0010B5054C237833B9044B13B10448AFF325
:10211C0000800123237010BD9800002000000000F7
:10212C000069000808B5034B1BB103490348AFF322
:10213C00008008BD000000009C0000200069000821
:10214C0080B58AB000AFB9607A603B600346FB7320
:10215C00464AFB7B1370464ABB681360454A7B6852
:10216C001360454A3B681360FB7B002B76D0012B38
:10217C0072D13F4B1B68184600F00EFF3E4B1B689C
:10218C001A683D4B1B689B889BB21946104602F09F
:10219C007BFD0346012B63D101F008FB0346FB8456
:1021AC00FB8C002B01D104235CE000F075FF03468F
:1021BC00FB84FB8C002B01D0042353E02F4A07F146
:1021CC00180307CA83E8070007F118030C21184607
:1021DC0000F0D4FF0346FB84FB8C002B01D00423BE
:1021EC0040E0302001F092F80346FB84FB8C002B7E
:1021FC0001D0042336E0224A07F1100392E80300D1
:10220C0018600433198007F11003184601F000F927
:10221C000346FB84FB8C002B01D0042322E03020EE
:10222C0001F0C0F90346FB84FB8C002B01D0042386
:10223C0018E0302001F038FA0346FB84FB8C002BAD
:10224C0001D004230EE000F0B5FE0346FB84FB8CAA
:10225C00002B05D0042305E0042303E000BF00E0BD
:10226C0000BF002318462837BD4680BDCC04002093
:10227C00C8040020C4040020D00400201869000801
:10228C002469000880B582B000AF2D4B00221A6083
:10229C002C4B01221A7040F209412B4800F056F8E1
:1022AC000346FB71FB79042B36D0042B39DC002B55
:1022BC0002D0022B2ED034E0234800F0F5F903466F
:1022CC00FB71FB79042B23D801A252F823F000BF39
:1022DC00F1220008FB22000805230008092300084E
:1022EC0013230008002000F0CFFA00BF1EE00020EE
:1022FC0000F0CAFA01231EE004231CE0012000F0C8
:10230C00C3FA032317E0012000F0BEFA042312E005
:10231C00FB7910E002230EE0012000F0B5FA042353
:10232C0009E0012000F0B0FAFB7904E0054B1B78C2
:10233C00002BB0D1002318460837BD4680BD00BF26
:10234C00C0040020BD040020B400002080B588B07B
:10235C0000AF78600B467B800023FB83A24B1B787D
:10236C00002B03D0012B00F0D28074E19F4B186836
:10237C00FB8B7A68D11842F22833012203F097F9CB
:10238C0003467B827B8ADBB2184600F0DBFB0346FC
:10239C007B82B7F91230002B02D07B8ADBB27FE153
:1023AC00FB8B5A1CFA831A467B6813441B78AA2BA6
:1023BC0001D0042374E18D4B1868FB8B7A68D1181B
:1023CC0042F22833012203F072F903467B827B8AA6
:1023DC00DBB2184600F0B6FB03467B82B7F912302D
:1023EC00002B02D07B8ADBB25AE1FB8B5A1CFA839E
:1023FC001A467B6813441B78032B01D904234FE145
:10240C0000BF7A4B1868FB8B7A68D11842F22833DC
:10241C00022203F04CF903467B827B8ADBB218461E
:10242C0000F090FB03467B82B7F91230002B02D0F0
:10243C007B8ADBB234E1FB8B7A6813441B88BB8349
:10244C00FB8B0233FB830023FB821FE0674B186876
:10245C00FB8B5A1CFA831A467B68991842F2283374
:10246C00012203F024F903467B827B8ADBB21846F7
:10247C0000F068FB03467B82B7F91230002B02D0C8
:10248C007B8ADBB20CE1FB8A0133FB82FA8ABB8BC1
:10249C009A42DBD3554B1868FB8B7A68D11842F201
:1024AC002833042203F003F903467B827B8ADBB2D8
:1024BC00184600F047FB03467B82B7F91230002B1D
:1024CC0002D07B8ADBB2EBE0FB8B7A6813441B688F
:1024DC00BB61FB8B0433FB83444B1868FB8B7A6822
:1024EC00D11842F22833012203F0E1F803467B8233
:1024FC007B8ADBB2184600F025FB03467B82B7F9DA
:10250C001230002B00F0A9807B8ADBB2C8E0FB8B79
:10251C007A68134442F228320121184601F0ECF992
:10252C0003467B82B7F91230002B02D07B8ADBB2D8
:10253C00B6E0FB8B5A1CFA831A467B6813441B7853
:10254C00AA2B01D00423ABE0FB8B7A68134442F234
:10255C0028320121184601F0CFF903467B82B7F9E6
:10256C001230002B02D07B8ADBB299E0FB8B5A1C19
:10257C00FA831A467B6813441B78032B01D9042376
:10258C008EE000BFFB8B7A68134442F228320221A2
:10259C00184601F0B1F903467B82B7F91230002BD3
:1025AC0002D07B8ADBB27BE0FB8B7A6813441B88FE
:1025BC00BB83FB8B0233FB830023BB821BE0FB8BB7
:1025CC005A1CFA831A467B68134442F228320121C2
:1025DC00184601F091F903467B82B7F91230002BB3
:1025EC0006D07B8ADBB25BE0CC040020C804002060
:1025FC00BB8A0133BB82BA8ABB8B9A42DFD3FB8B7B
:10260C007A68134442F228320421184601F074F916
:10261C0003467B82B7F91230002B02D07B8ADBB2E7
:10262C003EE0FB8B7A6813441B68BB61FB8B043365
:10263C00FB83FB8B7A68134442F228320121184643
:10264C0001F05AF903467B82B7F91230002B06D001
:10265C007B8ADBB224E0042322E000BF00E000BF51
:10266C00FB8B5A1CFA831A467B6813441B78BB2BD2
:10267C0001D0042314E07B680433BA8B114618464E
:10268C0000F078FAF860FA68BB699A4201D004232A
:10269C0006E07A88FB8B9A4201D2042300E00023E7
:1026AC0018462037BD4680BD80B588B000AF786035
:1026BC007B68FB61FB695B78002B05D1FB691B799F
:1026CC00022B01D10123D2E06B4B1B78042B00F2BF
:1026DC00CD8001A252F823F0F9260008FD2600084F
:1026EC001B270008C32700083B2800080023BEE076
:1026FC00FB695B78002B08D1FB691B79002B04D19B
:10270C005D4B02221A700023B1E00423AFE07B681A
:10271C00FB60FB685B78022B4BD1FB68DB7C022BEC
:10272C0026D0022B26DC002B02D0012B10D021E06E
:10273C00FB685B68B3F5B03F01D9032397E04F4BBF
:10274C001B6800229A754D4B1B680022DA7513E04A
:10275C00FB685B68B3F5C04F01D9032387E0474B97
:10276C001B6801229A75454B1B680122DA7503E040
:10277C0003237CE003237AE0404B1B68FA68526821
:10278C009A603E4B1B68FA689268DA603B4B1B6898
:10279C00184600F0A1FA03467B81B7F90A30002BEA
:1027AC0002D07B89DBB262E0334B03221A70002328
:1027BC005DE004235BE07B687B617B695B78012BCC
:1027CC0033D17B695B889BB203F003039BB2002B74
:1027DC0001D004234BE07B68181D7B695B8899B2A0
:1027EC00274B1B68002B0CBF01230023DBB21A46BE
:1027FC0000F09AF803467B827B8ADBB2184600F025
:10280C00A1F903467B827B8A002B02D07B8ADBB248
:10281C002DE01A4B1B689A68194B1B689A4202D818
:10282C00154B04221A70002321E004231FE0FB69DE
:10283C005B78002B18D1FB691B79012B14D10F4B42
:10284C001B689B6819460F4800F094F9B8610B4B54
:10285C001B68DB68BA699A4201D0042307E0064B77
:10286C0000221A70002302E0042300E0042318461F
:10287C002037BD4680BD00BFBD040020C40400202D
:10288C00C00400200080000880B586B000AF03466D
:10289C00FB71AA233B7303237B730123FB81FB791D
:1028AC003B7400237B740023BB740023FB74002354
:1028BC003B75BB237B7507F10C03043301211846D0
:1028CC0000F058F90346C7F81130154B1B78002B54
:1028DC0002D0012B12D01CE0124B186807F10C012E
:1028EC0042F228330A2202F05FFE0346FB75FB7DA1
:1028FC00184600F027F90346FB750CE007F10C03B2
:10290C0042F228320A21184600F0D6FF0346FB7526
:10291C0001E0042300E0FB7D18461837BD4680BD5E
:10292C00CC040020C80400202DE9B0438CB000AFCB
:10293C0078600B467B8013467B707B687B6201F072
:10294C008FFE034687F8233097F82330184600F0A3
:10295C00F9F8034687F8233097F82330002B02D080
:10296C0097F82330E4E07B78002B21D00023FB6028
:10297C0001233B61714B7B615823BB6107F108025A
:10298C0007F10C031146184601F052FF034687F875
:10299C00233097F82330184600F0D4F8034687F814
:1029AC00233097F82330002B02D097F82330BFE068
:1029BC000023FB617B88043B3B840023BB857B8825
:1029CC00042B59D92FE05E4B1B6803F1006101F514
:1029DC000041BB8D9B089BB29B007A6A13441B6819
:1029EC0000229846914642464B46022001F0C8FD13
:1029FC00034687F8233097F82330184600F0A2F8E6
:102A0C00034687F8233097F82330002B05D14C4B25
:102A1C001B6804334A4A136002E097F8233087E0BE
:102A2C00BB8D0433BB85BA8D3B8C9A42CBD37B8850
:102A3C00DAB2BB8DDBB2D31A87F82F30002387F8BC
:102A4C002B3012E0BA8D97F82B3013441A467B6862
:102A5C001A4497F82B30127830333B4403F8142C7B
:102A6C0097F82B30013387F82B3097F82B2097F8F9
:102A7C002F309A42E6D31CE07B8887F82F30002356
:102A8C0087F82A300FE097F82A307A681A4497F8BA
:102A9C002A30127830333B4403F8142C97F82A3040
:102AAC00013387F82A3097F82A2097F82F309A426A
:102ABC00E9D3234B1B6803F1006101F5004107F1D9
:102ACC001C031B6800221C46154622462B4602207E
:102ADC0001F056FD034687F8233097F8233018464B
:102AEC0000F030F8034687F8233097F82330002B9A
:102AFC001CD197F82F309AB2BB8D1344BB8597F835
:102B0C002F200F4B1B6813440D4A136001F0CEFDB0
:102B1C00034687F8233097F82330184600F012F854
:102B2C00034687F8233097F8233001E097F82330D9
:102B3C0018463037BD46BDE8B08300BF00800008A2
:102B4C00C004002080B483B000AF0346FB71FB7956
:102B5C00012B06D0002B06DD023B012B03D80223F0
:102B6C0002E0042300E0FB7918460C37BD4680BC1C
:102B7C007047000080B487B000AF786039604FF0C8
:102B8C00FF337B613B68B3F1FF3F01D17B691CE0F4
:102B9C0000233B6114E07B691B0EFB737A683B6975
:102BAC0013441A78FB7B5340FB737B691A02FB7B43
:102BBC00084951F8233053407B613B6901333B6139
:102BCC003A693B689A42E6D37B6918461C37BD4686
:102BDC0080BC70477469000880B584B000AF274B87
:102BEC00274A1A60274BFB602BE0FB68DB7FFF2B2F
:102BFC0021D1224B1B68DB7F002B1CD11F4B1B6888
:102C0C0004331C2211461846FFF7B4FFB8601B4B67
:102C1C001B681B68BA689A4218D000F00FF903467B
:102C2C00FB80FB88002B01D0052322E0134B0022F4
:102C3C001A6000231DE0114AFB681360FB68203307
:102C4C00FB60FB68104A9342CFD300E000BFFB68E7
:102C5C000D4A934207D1094B1B68DB7FFF2B02D136
:102C6C00064B00221A6000F009F90346FB80FB8832
:102C7C00DBB218461037BD4680BD00BFD40400201F
:102C8C00E0EF010800E0010800F0010880B584B015
:102C9C0000AF78600E4B1B68FB60FB68002B0AD101
:102CAC000C4BFB60FB68043318221946786803F060
:102CBC00FDF8062307E0FB680433182219467868F0
:102CCC0003F0F4F8002318461037BD4680BD00BF52
:102CDC00D404002000E001082DE9B04390B000AF0F
:102CEC00786007F10C037B63514BFB637B6807F146
:102CFC0010041D4628686968AA68EB680FC4286927
:102D0C00696903C44FF0FF333B624FF6FF73BB841A
:102D1C004FF6FF733B85FF2387F82A30002387F893
:102D2C002B301C231A4607F10C03043311461846AA
:102D3C00FFF720FF0346FB603E4B1B68002B09D0BE
:102D4C003C4B1B682033FB63FB6B3B4A934201D12A
:102D5C00374BFB63FB6B3B6301F082FC034687F84C
:102D6C002F3097F82F30184600F0FEF8034687F8FE
:102D7C002F3097F82F30002B02D097F82F3051E0DE
:102D8C00002387F83B302AE097F83B309B003A6BE6
:102D9C001344194697F83B309B007A6B13441B681D
:102DAC0000229846914642464B46022001F0E8FB31
:102DBC00034687F82F3097F82F30184600F0D4F8D8
:102DCC00034687F82F3097F82F30002B02D097F856
:102DDC002F3027E097F83B30013387F83B3008223F
:102DEC0097F83B309342CFD301F060FC034687F851
:102DFC002F3097F82F30184600F0B6F8034687F8B6
:102E0C002F3097F82F30002B02D097F82F3009E095
:102E1C00084AFB6B136000F031F8034687F82F303B
:102E2C0097F82F3018464037BD46BDE8B08300BF39
:102E3C0000E00108D404002000F0010880B582B045
:102E4C0000AF0C4800F04CF80346FB71FB79002BEB
:102E5C0001D0FB790AE0084800F042F80346FB7108
:102E6C00FB79002B01D0FB7900E0002318460837D2
:102E7C00BD4680BD00E0010800E8010880B582B0C5
:102E8C0000AF134B1B68134A934209D1124BDB7FE3
:102E9C00002B05D1114800F023F80346FB7112E01A
:102EAC000B4B1B680D4A93420BD1094B1B68203B03
:102EBC00DB7F002B05D1074800F012F80346FB71AD
:102ECC0001E00023FB71FB7918460837BD4680BD35
:102EDC00D404002000E00108E0EF010800E801083C
:102EEC0080B588B000AF786001F0BAFB0346FB7781
:102EFC00FB7F184600F038F80346FB77FB7F002B6E
:102F0C0001D0FB7F2CE00023FB6001233B617B683D
:102F1C007B610123BB6107F1080207F10C03114629
:102F2C00184601F085FC0346FB77FB7F184600F042
:102F3C001BF80346FB77FB7F002B01D0FB7F0FE0D8
:102F4C0001F0B4FB0346FB77FB7F184600F00CF84E
:102F5C000346FB77FB7F002B01D0FB7F00E00023B7
:102F6C0018462037BD4680BD80B483B000AF034601
:102F7C00FB71FB79012B06D0002B06DD023B012BEC
:102F8C0003D8022302E0042300E0FB7918460C3737
:102F9C00BD4680BC7047000080B483B000AF786041
:102FAC00034A7B68136000BF0C37BD4680BC70477A
:102FBC00D804002080B582B000AF00F0BDFC334BCC
:102FCC0041221A70314B54225A70304B2B229A707A
:102FDC002E4B5222DA702D4B45221A712B4B532259
:102FEC005A712A4B45229A71284B5422DA71284B7C
:102FFC0018684FF4A0730822244902F0D5FA03464E
:10300C007B807B88DBB2184600F0B0FC03467B80EB
:10301C00B7F90230002B02D07B88DBB231E01C4BBD
:10302C0018684FF4A0730822184902F040FB0346BD
:10303C007B807B88DBB2184600F098FC03467B80D3
:10304C00B7F90230002B02D07B88DBB219E00023E9
:10305C007B600EE00D4A7B6813441A780D497B683F
:10306C000B441B789A4201D004230AE07B6801339D
:10307C007B607B68072BEDDD4FF47A7001F05EF915
:10308C00002318460837BD4680BD00BFDC04002075
:10309C00D80400201800002080B582B000AF00F0EA
:1030AC004BFC334B41221A70314B54225A70304B2B
:1030BC002B229A702E4B5222DA702D4B45221A710C
:1030CC002B4B4E225A712A4B45229A71284B572270
:1030DC00DA71284B18684FF4A0730822244902F0C7
:1030EC0063FA03467B807B88DBB2184600F03EFC1B
:1030FC0003467B80B7F90230002B02D07B88DBB211
:10310C0031E01C4B18684FF4A0730822184902F0E8
:10311C00CEFA03467B807B88DBB2184600F026FC97
:10312C0003467B80B7F90230002B02D07B88DBB2E0
:10313C0019E000237B600EE00D4A7B6813441A787B
:10314C000D497B680B441B789A4201D004230AE09A
:10315C007B6801337B607B68072BEDDD4FF47A7065
:10316C0001F0ECF8002318460837BD4680BD00BFBF
:10317C00DC040020D80400202000002080B584B09E
:10318C0000AF78600B46FB70FB780C2B01D9042345
:10319C00B1E00023FB7300F0CFFBFB7B5A1CFA73EE
:1031AC001A46574B41219954FB7B5A1CFA731A4609
:1031BC00534B54219954FB7B5A1CFA731A46504BAF
:1031CC002B219954FB7B5A1CFA731A464C4B4E21FB
:1031DC009954FB7B5A1CFA731A46494B412199545A
:1031EC00FB7B5A1CFA731A46454B4D219954FB7BB9
:1031FC005A1CFA731A46424B45219954FA78FB7BB8
:10320C001344FB720023BB730CE0BB7B7A681A443B
:10321C00FB7B591CF97319461278394B5A54BB7BFA
:10322C000133BB73FA7BFB7A9A42EED3354B1868A9
:10323C00FB7B9AB24FF4A073314902F0B5F9034607
:10324C003B813B89DBB2184600F090FB03463B8187
:10325C00B7F90830002B02D03B89DBB24BE0FB788E
:10326C000733FB73274B1868FB7B9AB24FF4A073A0
:10327C00234902F01CFA03463B813B89DBB218461A
:10328C0000F074FB03463B81B7F90830002B02D0E9
:10329C003B89DBB22FE000237B730CE07B7B184A6D
:1032AC00D25C7B7B1849CB5C9A4201D0042322E090
:1032BC007B7B01337B737B7B062BEFD9FA787B7B93
:1032CC001344FB7200233B7310E07B7B5A1C7A7314
:1032DC001A460B4B9A5C3B7B79680B441B789A42E1
:1032EC0001D0042307E03B7B01333B737A7BFB7AF1
:1032FC009A42EAD3002318461037BD4680BD00BF62
:10330C00DC040020D80400200000002080B584B02C
:10331C0000AF0346FB71FB79303B012B01D9042331
:10332C006BE000BF00F008FB364B41221A70354BA6
:10333C0054225A70334B2B229A70324B5222DA7031
:10334C00304B4F221A712F4B4C225A712D4B452268
:10335C009A712C4AFB79D3712B4B18684FF4A073DC
:10336C000822284902F020F90346BB81BB89DBB255
:10337C00184600F0FBFA0346BB81B7F90C30002B62
:10338C0002D0BB89DBB238E01F4B18684FF4A07336
:10339C0008221C4902F08BF90346BB81BB89DBB2C6
:1033AC00184600F0E3FA0346BB81B7F90C30002B4A
:1033BC0002D0BB89DBB220E00723FB720023FB7336
:1033CC000EE0FB7B0F4AD25C104B1968FB7B0B4465
:1033DC001B789A4201D004230FE0FB7B0133FB7373
:1033EC00FA7BFB7A9A42ECD3FB7B064AD35CFA79E4
:1033FC009A4201D0042300E0002318461037BD4642
:10340C0080BD00BFDC040020D80400200800002090
:10341C0080B586B000AF78600023FB750CE0FB7DB7
:10342C007A6813441B78303B092B01D90423AEE096
:10343C0000BFFB7D0133FB75FB7D052BEFD9002312
:10344C00BB7500F079FABB7D5A1CBA751A46524B03
:10345C0041219954BB7D5A1CBA751A464E4B5421C6
:10346C009954BB7D5A1CBA751A464B4B2B21995457
:10347C00BB7D5A1CBA751A46474B50219954BB7DDB
:10348C005A1CBA751A46444B41219954BB7D5A1C9F
:10349C00BA751A46404B53219954BB7D5A1CBA75C8
:1034AC001A463D4B5321995400237B750CE07B7DD0
:1034BC007A681A44BB7D591CB97519461278364B7B
:1034CC005A547B7D01337B75BB7D0C2BEFD9334B71
:1034DC0018684FF4A0730D222F4902F065F80346CB
:1034EC003B823B8ADBB2184600F040FA03463B8233
:1034FC00B7F91030002B02D03B8ADBB247E0274BE8
:10350C0018684FF4A0730D22234902F0D0F803463B
:10351C003B823B8ADBB2184600F028FA03463B821A
:10352C00B7F91030002B02D03B8ADBB22FE0072317
:10353C00FB7300233B750EE03B7D174AD25C184BA6
:10354C0019683B7D0B441B789A4201D004231EE082
:10355C003B7D01333B753A7DFB7B9A42ECD30023D8
:10356C00FB7410E03B7D5A1C3A751A460A4B9A5C68
:10357C00FB7C79680B441B789A4201D0042306E04B
:10358C00FB7C0133FB743B7D0C2BEBD900231846E1
:10359C001837BD4680BD00BFDC040020D8040020D5
:1035AC000C00002080B584B000AF0346FB71FB79A2
:1035BC00302B03D0322B01D004236BE000BF00F082
:1035CC00BBF9364B41221A70344B54225A70334B90
:1035DC002B229A70314B5422DA70304B59221A71CB
:1035EC002E4B50225A712D4B45229A712B4AFB7946
:1035FC00D3712B4B18684FF4A0730822274901F0A4
:10360C00D3FF0346BB81BB89DBB2184600F0AEF991
:10361C000346BB81B7F90C30002B02D0BB89DBB25F
:10362C0038E01F4B18684FF4A07308221B4902F0B6
:10363C003EF80346BB81BB89DBB2184600F096F915
:10364C000346BB81B7F90C30002B02D0BB89DBB22F
:10365C0020E00723FB720023FB730EE0FB7B0F4A79
:10366C00D25C104B1968FB7B0B441B789A4201D03F
:10367C0004230FE0FB7B0133FB73FA7BFB7A9A424A
:10368C00ECD3FB7B054AD35CFA799A4201D0042334
:10369C0000E0002318461037BD4680BDDC04002036
:1036AC00D80400201000002080B584B000AF034681
:1036BC00FB71FB79303B022B01D904236BE000BF7B
:1036CC0000F03AF9364B41221A70354B54225A709D
:1036DC00334B2B229A70324B4D22DA70304B4F22E7
:1036EC001A712F4B44225A712D4B45229A712C4A38
:1036FC00FB79D3712B4B18684FF4A073082228491F
:10370C0001F052FF0346BB81BB89DBB2184600F0C7
:10371C002DF90346BB81B7F90C30002B02D0BB89C5
:10372C00DBB238E01F4B18684FF4A07308221C4919
:10373C0001F0BDFF0346BB81BB89DBB2184600F02C
:10374C0015F90346BB81B7F90C30002B02D0BB89AD
:10375C00DBB220E00723FB720023FB730EE0FB7B44
:10376C000F4AD25C104B1968FB7B0B441B789A42B6
:10377C0001D004230FE0FB7B0133FB73FA7BFB7A54
:10378C009A42ECD3FB7B064AD35CFA799A4201D07D
:10379C00042300E0002318461037BD4680BD00BF4F
:1037AC00DC040020D80400201400002080B582B076
:1037BC0000AF00F0C1F83D4B41221A703B4B542234
:1037CC005A703B4B18684FF4A0730222374901F032
:1037DC00EBFE0346BB80BB88DBB2184600F0C6F894
:1037EC000346BB80B7F90430002B01D0002359E00D
:1037FC002F4B18684FF4A07302222C4901F057FF8D
:10380C000346BB80BB88DBB2184600F0AFF803461A
:10381C00BB80B7F90430002B01D0002342E0002319
:10382C00FB710CE0FB79214AD25CFB792149CB5C22
:10383C009A4201D0002335E0FB790133FB71FB790F
:10384C00012BEFD91A4B1868FB79184A99184FF4C9
:10385C00A073052201F02BFF0346BB80BB88DBB2B3
:10386C00184600F083F80346BB80B7F90430002BF0
:10387C0014D0B7F90430022B01D1012312E000233C
:10388C0010E0FB79094AD25CFB790A49CB5C9A427D
:10389C0001D0002306E0FB790133FB71FB79062B89
:1038AC00EFD9022318460837BD4680BDDC04002042
:1038BC00D80400202800002080B586B000AFF86046
:1038CC000B467A607B810B4B18687A897B68F968A8
:1038DC0001F06AFE0346FB82FB8ADBB2184600F05D
:1038EC0045F80346FB82FB8ADBB218461837BD4607
:1038FC0080BD00BFD804002080B586B000AFF86052
:10390C000B467A607B810B4B18687A897B68F96867
:10391C0001F0CDFE0346FB82FB8ADBB2184600F0B9
:10392C0025F80346FB82FB8ADBB218461837BD46E6
:10393C0080BD00BFD804002080B582B000AF094B19
:10394C0018684FF4A0730122074901F0B0FE03463A
:10395C00FB71FB79032B01D0FFF7EEFF00BF08379B
:10396C00BD4680BDD8040020DC04002080B483B0A8
:10397C0000AF0346FB71FB79012B06D0002B06DD53
:10398C00023B012B03D8022302E0042300E0FB7965
:10399C0018460C37BD4680BC7047000080B584B01B
:1039AC0000AF00F069FC00F075F800F02BF900F0A6
:1039BC00ABF800F0D3F800F0FBF80123BB71002347
:1039CC00042219462F4802F0B1F800F091F92E4963
:1039DC00012000F0C3F900F0EBF9BB1D184600F014
:1039EC000DFA40F6B83000F0A9FC274800F03CFA7C
:1039FC0000F09AFC034603F50C532833BB602348B4
:103A0C0002F0FAF8FEF73EFC0346FB71FB79042B3F
:103A1C001FD801A252F823F0393A00083F3A0008A7
:103A2C00473A00084F3A0008573A000800F097FD53
:103A3C0016E000F079FCF86012E000F075FCF8601C
:103A4C000EE000F071FCF8600AE000F06DFCF8602C
:103A5C0006E000224FF400510D4801F02CF9FEE76E
:103A6C00FA68BB689A42CAD3BB79002BC7D0BB1D7E
:103A7C00184600F0C3F9BB79002BC0D000F00CFA4B
:103A8C00FEE700BF2C690008800500204C69000887
:103A9C000010014080B590B000AF07F11803282248
:103AAC000021184602F088F93B1D00221A605A606A
:103ABC009A60DA601A610123BB614FF48033FB61B9
:103ACC0000237B6307F11803184601F00DF9034638
:103ADC00002B01D000F0EEF90F237B600123BB60BB
:103AEC009023FB6000233B6100237B613B1D002185
:103AFC00184601F07BFB0346002B01D000F0DAF9ED
:103B0C0000BF4037BD4680BD80B500AF114B124A97
:103B1C001A60104B4FF4E1325A600E4B00229A603F
:103B2C000C4B0022DA600B4B00221A61094B0C2261
:103B3C005A61084B00229A61064B0022DA61054853
:103B4C0001F0E2FC0346002B01D000F0B3F900BFFA
:103B5C0080BD00BFF00400200038014080B500AFEC
:103B6C00114B124A1A60104B4FF4E1325A600E4B53
:103B7C0000229A600C4B0022DA600B4B00221A6177
:103B8C00094B0C225A61084B00229A61064B002209
:103B9C00DA61054801F0B8FC0346002B01D000F0B7
:103BAC0089F900BF80BD00BF3805002000440040EB
:103BBC0080B500AF114B124A1A60104B4FF41652DD
:103BCC005A600E4B00229A600C4B0022DA600B4BB1
:103BDC0000221A61094B0C225A61084B00229A618F
:103BEC00064B0022DA61054801F08EFC0346002BDF
:103BFC0001D000F05FF900BF80BD00BF8005002040
:103C0C000048004080B588B000AF07F110030022D7
:103C1C001A605A609A60DA602A4B9B69294A43F011
:103C2C0010039361274B9B6903F01003FB60FB6847
:103C3C00244B9B69234A43F020039361214B9B69DE
:103C4C0003F02003BB60BB681E4B9B691D4A43F00D
:103C5C00040393611B4B9B6903F004037B607B683B
:103C6C00184B9B69174A43F008039361154B9B69EA
:103C7C0003F008033B603B6801224FF400511248EB
:103C8C0001F019F84FF400533B6101237B610023D1
:103C9C00BB610223FB6107F1100319460A4800F0CF
:103CAC006FFE4FF480433B6100237B610023BB61BB
:103CBC0007F110031946044800F062FE00BF2037DC
:103CCC00BD4680BD001002400010014080B582B09E
:103CDC0000AF7860391D4FF0FF330122034801F02B
:103CEC0063FC7B6818460837BD4680BDF004002095
:103CFC0080B584B000AF0023FB7300F015FB0346C6
:103D0C0003F5FA737B600023BB6002E000F00CFB50
:103D1C00B860BA687B689A42F8D3FEF75DFF034639
:103D2C007B80FB7B0133FB73B7F90230002B03D193
:103D3C000848FEF7ABFF09E0FB7B022BDDD9002224
:103D4C004FF40051044800F0B6FFFEE71037BD46B3
:103D5C0080BD00BFC80500200010014080B584B0B4
:103D6C0000AF03463960FB710E4B0F4A1A600D4BC6
:103D7C004FF480429A80F8790A4B0C4A3968FEF766
:103D8C00DFF90346FB73FB7B002B06D000224FF4BC
:103D9C000051054800F08FFFFEE700BF1037BD460D
:103DAC0080BD00BFE005002000100140C8050020C8
:103DBC0080B582B000AF0E4B5B68B3F1FF3F12D001
:103DCC000B4B1B6819460B48FEF7D4FE7860084B6A
:103DDC005B687A689A4206D000224FF4005106487C
:103DEC0000F069FFFEE700BF0837BD4680BD00BF8D
:103DFC00C8050020002000080010014080B584B0E8
:103E0C0000AF7860164BDB68B3F1FF3F08D0144B62
:103E1C009B68B3F1FF3F03D0114B9B68002B03D180
:103E2C007B6800221A7016E00D4B9B7D012B03D191
:103E3C007B6800221A700EE0094B9B6819460948F2
:103E4C00FEF798FEF860064BDB68FA689A4202D0DF
:103E5C007B6800221A7000BF1037BD4680BD00BFC2
:103E6C00C80500200080000880B584B000AF7860E1
:103E7C0007F10E0101230122786801F018FC0346BA
:103E8C00FB73FB7B032B02D07868FFF7EDFF00BFC1
:103E9C001037BD4680BD000080B582B000AF044B2A
:103EAC001B687B607B68984700BF0837BD4680BDA8
:103EBC000480000880B400AF72B600BFFEE70000BB
:103ECC0080B483B000AF0E4B9B690D4A43F00103E5
:103EDC0093610B4B9B6903F001037B607B68084B80
:103EEC00DB69074A43F08053D361054BDB6903F070
:103EFC0080533B603B6800BF0C37BD4680BC7047AD
:103F0C000010024080B58CB000AF786007F1200340
:103F1C0000221A605A609A60DA607B681B68534A08
:103F2C00934232D1524B9B69514A43F48043936183
:103F3C004F4B9B6903F48043FB61FB694C4B9B69C2
:103F4C004B4A43F004039361494B9B6903F0040310
:103F5C00BB61BB694FF400733B6202237B6203239A
:103F6C00FB6207F120031946424800F009FD4FF4AB
:103F7C0080633B6200237B620023BB6207F120035A
:103F8C0019463C4800F0FCFC6CE07B681B683A4A24
:103F9C00934230D1364BDB69354A43F40033D3615D
:103FAC00334BDB6903F400337B617B69304B9B69DA
:103FBC002F4A43F0040393612D4B9B6903F00403D8
:103FCC003B613B6904233B6202237B620323FB625C
:103FDC0007F120031946274800F0D2FC08233B6266
:103FEC0000237B620023BB6207F1200319462148A2
:103FFC0000F0C6FC36E07B681B68204A934231D146
:10400C001B4BDB691A4A43F48023D361184BDB69E1
:10401C0003F48023FB60FB68154B9B69144A43F047
:10402C0008039361124B9B6903F00803BB60BB68E8
:10403C004FF480633B6202237B620323FB6207F134
:10404C00200319460E4800F09BFC4FF400633B62C2
:10405C0000237B620023BB6207F12003194608484A
:10406C0000F08EFC00BF3037BD4680BD00380140EB
:10407C00001002400008014000440040004800408D
:10408C00000C014080B400AFFEE780B400AFFEE747
:10409C0080B400AFFEE780B400AFFEE780B400AFA1
:1040AC00FEE780B400AF00BFBD4680BC704780B453
:1040BC0000AF00BFBD4680BC704780B400AF00BFEE
:1040CC00BD4680BC704780B500AF00F01BF900BF47
:1040DC0080BD80B586B000AFF860B9607A6000230F
:1040EC007B610AE0AFF300800146BB685A1CBA60E2
:1040FC00CAB21A707B6901337B617A697B689A4218
:10410C00F0DB7B6818461837BD4680BD80B586B09D
:10411C0000AFF860B9607A6000237B6109E0BB688E
:10412C005A1CBA601B781846FFF7D0FD7B69013327
:10413C007B617A697B689A42F1DB7B681846183799
:10414C00BD4680BD80B483B000AF78604FF0FF33C4
:10415C0018460C37BD4680BC704780B483B000AFA6
:10416C00786039603B684FF400525A60002318465F
:10417C000C37BD4680BC704780B483B000AF78600C
:10418C00012318460C37BD4680BC704780B485B0FF
:10419C0000AFF860B9607A60002318461437BD464A
:1041AC0080BC704780B586B000AF7860144A154B60
:1041BC00D31A7B617B693B61134B1B68002B02D1CB
:1041CC00114B124A1A60104B1A687B6813443A69F7
:1041DC009A4207D201F03EFE03460C221A604FF0C1
:1041EC00FF3309E0084B1B68FB60074B1A687B68C0
:1041FC001344054A1360FB6818461837BD4680BD4A
:10420C000050002000040000E8050020600700209A
:10421C0080B400AF034B044A9A6000BFBD4680BC1B
:10422C00704700BF00ED00E000200008FFF7F0FF32
:10423C000B480C490C4A002302E0D458C4500433F8
:10424C00C4188C42F9D3094A094C002301E01360CD
:10425C000432A242FBD301F003FEFFF79FFB704731
:10426C000000002098000020DC6D00089800002061
:10427C005C070020FEE7000080B500AF084B1B6810
:10428C00074A43F010031360032000F041F90F209C
:10429C0000F008F8FFF714FE0023184680BD00BF9D
:1042AC000020024080B582B000AF7860124B1A68D3
:1042BC00124B1B7819464FF47A73B3FBF1F3B2FB34
:1042CC00F3F3184600F04FF90346002B01D00123FD
:1042DC000EE07B680F2B0AD8002279684FF0FF3074
:1042EC0000F021F9064A7B681360002300E00123EB
:1042FC0018460837BD4680BD30000020380000202D
:10430C003400002080B400AF054B1B781A46054BD7
:10431C001B681344034A136000BFBD4680BC704742
:10432C0038000020EC05002080B400AF024B1B6865
:10433C001846BD4680BC7047EC05002080B584B0A3
:10434C0000AF7860FFF7F0FFB8607B68FB60FB683C
:10435C00B3F1FF3F05D00A4B1B781A46FB68134498
:10436C00FB6000BFFFF7E0FF0246BB68D31AFA6898
:10437C009A42F7D800BF00BF1037BD4680BD00BFC2
:10438C003800002080B485B000AF78607B6803F003
:10439C000703FB600C4BDB68BB60BA684FF6FF038E
:1043AC001340BB60FB681A02BB68134343F0BF6346
:1043BC0043F40033BB60044ABB68D36000BF1437BE
:1043CC00BD4680BC704700BF00ED00E080B400AF7C
:1043DC00044BDB681B0A03F007031846BD4680BC80
:1043EC00704700BF00ED00E080B483B000AF03461F
:1043FC003960FB7197F90730002B0ADB3B68DAB2A6
:10440C000C4997F907301201D2B20B4483F8002300
:10441C000AE03B68DAB20849FB7903F00F03043B6E
:10442C001201D2B20B441A7600BF0C37BD4680BCC9
:10443C00704700BF00E100E000ED00E080B489B0FF
:10444C0000AFF860B9607A60FB6803F00703FB61AA
:10445C00FB69C3F10703042B28BF0423BB61FB6971
:10446C000433062B02D9FB69033B00E000237B617C
:10447C004FF0FF32BB6902FA03F3DA43BB681A4010
:10448C007B699A404FF0FF317B6901FA03F3D94302
:10449C007B680B40134318462437BD4680BC7047DD
:1044AC0080B400AFBFF34F8F00BF064BDB6803F443
:1044BC00E0620449044B1343CB60BFF34F8F00BF42
:1044CC0000BFFDE700ED00E00400FA0580B582B006
:1044DC0000AF78607B68013BB3F1807F01D301238F
:1044EC000FE00A4A7B68013B53600F214FF0FF300D
:1044FC00FFF77AFF054B00229A60044B07221A60E3
:10450C00002318460837BD4680BD00BF10E000E010
:10451C0080B582B000AF78607868FFF733FF00BFDA
:10452C000837BD4680BD80B586B000AF0346B96084
:10453C007A60FB7300237B61FFF748FF78617A6830
:10454C00B9687869FFF77AFF024697F90F30114680
:10455C001846FFF749FF00BF1837BD4680BD80B530
:10456C0000AFFFF79DFF80B582B000AF7860786830
:10457C00FFF7ACFF034618460837BD4680BD000068
:10458C00F0B587B000AFF860B960C7E9002301232C
:10459C00FB750023BB7500237B752F4B1B7E012BFA
:1045AC0001D1022354E02C4B01221A764CF25030EC
:1045BC0000F0A8F80346FB75FB7D002B44D1FB688B
:1045CC00012B02D101237B7507E0FB68022B02D182
:1045DC0002237B7501E004237B750023BB752DE062
:1045EC00BB7D5A00BB6802EB030CBB7D1901D7E9FC
:1045FC000023C1F12006A1F1200022FA01F403FAF4
:10460C0006F6344323FA00F0044323FA01F5A3B26F
:10461C001946604600F05AF84CF2503000F072F82F
:10462C000346FB750D4B1B690C4A23F00103136108
:10463C00FB7D002B07D1BB7D0133BB75BA7D7B7D28
:10464C009A42CDD300E000BF034B00221A76FB7DCB
:10465C0018461C37BD46F0BDF00500200020024076
:10466C0080B483B000AF0023FB710D4B1B6903F0CA
:10467C008003002B0DD00A4B0A4A5A60084B0A4A99
:10468C005A60074B1B6903F08003002B01D00123F8
:10469C00FB71FB7918460C37BD4680BC704700BFD8
:1046AC000020024023016745AB89EFCD80B400AFF9
:1046BC00054B1B69044A43F0800313610023184621
:1046CC00BD4680BC704700BF0020024080B483B060
:1046DC0000AF78600B467B80084B0022DA61084BF8
:1046EC001B69074A43F0010313617B687A881A80BF
:1046FC0000BF0C37BD4680BC704700BFF0050020E2
:10470C000020024080B584B000AF7860FFF70CFE4B
:10471C00F86010E07B68B3F1FF3F0CD07B68002B96
:10472C0007D0FFF701FE0246FB68D31A7A689A425B
:10473C0001D2032325E0154BDB6803F00103002BAA
:10474C00E8D1124BDB6803F02003002B02D00F4B97
:10475C002022DA600D4BDB6803F01003002B0BD129
:10476C000A4BDB6903F00103002B05D1074BDB6817
:10477C0003F00403002B03D000F00AF8012300E03F
:10478C00002318461037BD4680BD00BF00200240F4
:10479C0080B483B000AF00237B60234BDB6803F055
:1047AC001003002B09D0214BDB6943F002031F4A95
:1047BC00D3617B6843F010037B601B4BDB6803F019
:1047CC000403002B09D0194BDB6943F00103174A92
:1047DC00D3617B6843F004037B60134BDB6903F00C
:1047EC000103002B0BD0114BDB6943F004030F4A80
:1047FC00D3610D4BDB690C4A23F00103D3617B6859
:10480C0040F20112934206D1074BDB69064A23F0B2
:10481C000103D36102E0044A7B68D36000BF0C370C
:10482C00BD4680BC704700BF00200240F005002050
:10483C0080B584B000AF786039600123FB7300232E
:10484C00BB602F4B1B7E012B01D1022353E02C4B61
:10485C0001221A767B681B68022B16D14CF2503061
:10486C00FFF750FF0346002B41D1012000F04CF81C
:10487C004CF25030FFF746FF0346FB73214B1B698C
:10488C00204A23F00403136131E04CF25030FFF75F
:10489C0039FF0346002B2AD13B684FF0FF321A60D8
:1048AC007B689B68BB6019E0B86800F049F84CF273
:1048BC005030FFF727FF0346FB73124B1B69114A5D
:1048CC0023F002031361FB7B002B03D03B68BA6817
:1048DC001A600CE0BB6803F58063BB607B68DB6827
:1048EC009A027B689B681344BA689A42DCD3044BE7
:1048FC0000221A76FB7B18461037BD4680BD00BFE0
:10490C00F00500200020024080B483B000AF786036
:10491C00094B0022DA61094B1B69084A43F0040376
:10492C001361064B1B69054A43F04003136100BF3A
:10493C000C37BD4680BC7047F005002000200240BB
:10494C0080B483B000AF78600B4B0022DA610B4B64
:10495C001B690A4A43F002031361084A7B685361DE
:10496C00064B1B69054A43F04003136100BF0C372B
:10497C00BD4680BC704700BFF005002000200240FF
:10498C0080B48BB000AF7860396000237B62002369
:10499C003B6269E101227B6A02FA03F3FB613B682B
:1049AC001B68FA691340BB61BA69FB699A4240F013
:1049BC0058813B685B689A4A93425ED0984A93420E
:1049CC0075D8984A934258D0964A93426FD8964AD3
:1049DC00934252D0944A934269D8944A93424CD011
:1049EC00924A934263D8924A934246D0904A934259
:1049FC005DD8122B2AD8122B59D801A252F823F0C9
:104A0C00874A0008614A0008734A0008B54A000842
:104A1C00BB4A0008BB4A0008BB4A0008BB4A000856
:104A2C00BB4A0008BB4A0008BB4A0008BB4A000846
:104A3C00BB4A0008BB4A0008BB4A0008BB4A000836
:104A4C00BB4A0008694A00087D4A0008794A93422B
:104A5C0013D02CE03B68DB683B6229E03B68DB68E9
:104A6C0004333B6224E03B68DB6808333B621FE0A5
:104A7C003B68DB680C333B621AE03B689B68002B9D
:104A8C0002D104233B6213E03B689B68012B05D1E8
:104A9C0008233B627B68FA691A6109E008233B62D0
:104AAC007B68FA695A6103E000233B6200E000BFB7
:104ABC00BB69FF2B01D87B6801E07B6804337B6109
:104ACC00BB69FF2B02D87B6A9B0002E07B6A083B28
:104ADC009B003B617B691A680F213B6901FA03F368
:104AEC00DB431A40396A3B6901FA03F31A437B69C9
:104AFC001A603B685B6803F08053002B00F0B180B8
:104B0C004D4B9B694C4A43F0010393614A4B9B69A3
:104B1C0003F00103BB60BB68484A7B6A9B08023305
:104B2C0052F82330FB607B6A03F003039B000F22D7
:104B3C0002FA03F3DB43FA681340FB607B68404ADC
:104B4C00934213D07B683F4A93420DD07B683E4A18
:104B5C00934207D07B683D4A934201D1032306E080
:104B6C00042304E0022302E0012300E000237A6A1C
:104B7C0002F0030292009340FA681343FB602F4942
:104B8C007B6A9B080233FA6841F823203B685B6818
:104B9C0003F48013002B06D02D4B9A682C49BB696B
:104BAC0013438B6006E02A4B9A68BB69DB432849A8
:104BBC0013408B603B685B6803F40013002B06D03A
:104BCC00234BDA682249BB691343CB6006E0204BC8
:104BDC00DA68BB69DB431E491340CB603B685B68FA
:104BEC0003F40033002B06D0194B5A681849BB69E3
:104BFC0013434B6006E0164B5A68BB69DB43144900
:104C0C0013404B603B685B6803F48033002B21D06E
:104C1C000F4B1A680E49BB6913430B6021E000BFB0
:104C2C000000321000003110000022100000211092
:104C3C000000121000001110001002400000014092
:104C4C0000080140000C014000100140001401401C
:104C5C00000401400B4B1A68BB69DB430949134044
:104C6C000B607B6A01337B623B681A687B6A22FAB1
:104C7C0003F3002B7FF48EAE00BF00BF2C37BD4674
:104C8C0080BC70470004014080B485B000AF7860F0
:104C9C000B467B807B689A687B881340002B02D084
:104CAC000123FB7301E00023FB73FB7B18461437D5
:104CBC00BD4680BC704780B483B000AF78600B46B3
:104CCC007B8013467B707B78002B03D07A887B68C3
:104CDC001A6103E07B881A047B681A6100BF0C37E9
:104CEC00BD4680BC7047000080B586B000AF7860D0
:104CFC007B68002B01D1012372E27B681B6803F0F7
:104D0C000103002B00F08780924B5B6803F00C03CF
:104D1C00042B0CD08F4B5B6803F00C03082B12D1C7
:104D2C008C4B5B6803F48033B3F5803F0BD1894B1C
:104D3C001B6803F40033002B6CD07B685B68002B82
:104D4C0068D101234CE27B685B68B3F5803F06D1E8
:104D5C00804B1B687F4A43F4803313602EE07B68E2
:104D6C005B68002B0CD17B4B1B687A4A23F4803395
:104D7C001360784B1B68774A23F4802313601DE083
:104D8C007B685B68B3F5A02F0CD1724B1B68714A22
:104D9C0043F4802313606F4B1B686E4A43F48033DB
:104DAC0013600BE06B4B1B686A4A23F4803313606F
:104DBC00684B1B68674A23F4802313607B685B682D
:104DCC00002B13D0FFF7B0FA386108E0FFF7ACFA0C
:104DDC0002463B69D31A642B01D9032300E25D4BD5
:104DEC001B6803F40033002BF0D014E0FFF79CFA9F
:104DFC00386108E0FFF798FA02463B69D31A642B36
:104E0C0001D90323ECE1534B1B6803F40033002B53
:104E1C00F0D100E000BF7B681B6803F00203002B9D
:104E2C0063D04C4B5B6803F00C03002B0BD0494B4D
:104E3C005B6803F00C03082B1CD1464B5B6803F436
:104E4C008033002B16D1434B1B6803F00203002B5D
:104E5C0005D07B681B69012B01D00123C0E13D4BC0
:104E6C001B6823F0F8027B685B69DB00394913434C
:104E7C000B603AE07B681B69002B20D0364B01227B
:104E8C001A60FFF751FA386108E0FFF74DFA024655
:104E9C003B69D31A022B01D90323A1E12D4B1B68CB
:104EAC0003F00203002BF0D02A4B1B6823F0F8020E
:104EBC007B685B69DB00274913430B6015E0264BCD
:104ECC0000221A60FFF730FA386108E0FFF72CFA7D
:104EDC0002463B69D31A022B01D9032380E11D4BF7
:104EEC001B6803F00203002BF0D17B681B6803F0F6
:104EFC000803002B3AD07B689B69002B19D0174B09
:104F0C0001221A60FFF710FA386108E0FFF70CFA7B
:104F1C0002463B69D31A022B01D9032360E10D4BE6
:104F2C005B6A03F00203002BF0D0012000F0CEFAF4
:104F3C001CE00A4B00221A60FFF7F6F938610FE00B
:104F4C00FFF7F2F902463B69D31A022B08D9032367
:104F5C0046E100BF00100240000042428004424281
:104F6C00924B5B6A03F00203002BE9D17B681B6850
:104F7C0003F00403002B00F0A6800023FB758B4B81
:104F8C00DB6903F08053002B0DD1884BDB69874A1A
:104F9C0043F08053D361854BDB6903F08053BB60D6
:104FAC00BB680123FB75824B1B6803F48073002BD9
:104FBC0018D17F4B1B687E4A43F480731360FFF754
:104FCC00B3F9386108E0FFF7AFF902463B69D31A31
:104FDC00642B01D9032303E1754B1B6803F4807325
:104FEC00002BF0D07B68DB68012B06D16F4B1B6A62
:104FFC006E4A43F0010313622DE07B68DB68002BE3
:10500C000CD16A4B1B6A694A23F001031362674B8C
:10501C001B6A664A23F0040313621CE07B68DB689E
:10502C00052B0CD1614B1B6A604A43F004031362DD
:10503C005E4B1B6A5D4A43F0010313620BE05B4B52
:10504C001B6A5A4A23F001031362584B1B6A574AD6
:10505C0023F0040313627B68DB68002B15D0FFF789
:10506C0063F938610AE0FFF75FF902463B69D31A2E
:10507C0041F28832934201D90323B1E04B4B1B6AB6
:10508C0003F00203002BEED014E0FFF74DF938616A
:10509C000AE0FFF749F902463B69D31A41F288321C
:1050AC00934201D903239BE0404B1B6A03F002039C
:1050BC00002BEED1FB7D012B05D13C4BDB693B4A30
:1050CC0023F08053D3617B68DB69002B00F0878071
:1050DC00364B5B6803F00C03082B61D07B68DB69F3
:1050EC00022B46D1334B00221A60FFF71DF93861B1
:1050FC0008E0FFF719F902463B69D31A022B01D9D4
:10510C0003236DE0294B1B6803F00073002BF0D1D7
:10511C007B681B6AB3F5803F08D1244B5B6823F492
:10512C0000327B689B68214913434B601F4B5B68C3
:10513C0023F474127B68196A7B685B6A0B431B4906
:10514C0013434B601B4B01221A60FFF7EDF83861DB
:10515C0008E0FFF7E9F802463B69D31A022B01D9A4
:10516C0003233DE0114B1B6803F00073002BF0D0C0
:10517C0035E0104B00221A60FFF7D6F8386108E0D2
:10518C00FFF7D2F802463B69D31A022B01D903234D
:10519C0026E0064B1B6803F00073002BF0D11EE0D9
:1051AC007B68DB69012B07D1012319E00010024059
:1051BC0000700040600042420B4B5B68FB60FB6878
:1051CC0003F480327B681B6A9A4206D1FB6803F4B5
:1051DC0070127B685B6A9A4201D0012300E00023C5
:1051EC0018461837BD4680BD0010024080B584B00B
:1051FC0000AF786039607B68002B01D10123D0E0CF
:10520C006A4B1B6803F007033A689A4210D9674B44
:10521C001B6823F0070265493B6813430B60634B23
:10522C001B6803F007033A689A4201D00123B8E0E7
:10523C007B681B6803F00203002B20D07B681B6883
:10524C0003F00403002B05D0594B5B68584A43F418
:10525C00E06353607B681B6803F00803002B05D0E8
:10526C00534B5B68524A43F460535360504B5B683A
:10527C0023F0F0027B689B684D4913434B607B68BD
:10528C001B6803F00103002B40D07B685B68012B8B
:10529C0007D1474B1B6803F40033002B15D10123B6
:1052AC007FE07B685B68022B07D1414B1B6803F0E6
:1052BC000073002B09D1012373E03D4B1B6803F0F5
:1052CC000203002B01D101236BE0394B5B6823F007
:1052DC0003027B685B68364913434B60FFF724F885
:1052EC00F8600AE0FFF720F80246FB68D31A41F297
:1052FC008832934201D9032353E02D4B5B6803F0B2
:10530C000C027B685B689B009A42EBD1274B1B68B5
:10531C0003F007033A689A4210D2244B1B6823F01F
:10532C00070222493B6813430B60204B1B6803F0B8
:10533C0007033A689A4201D0012332E07B681B686C
:10534C0003F00403002B08D0194B5B6823F4E062D4
:10535C007B68DB68164913434B607B681B6803F062
:10536C000803002B09D0124B5B6823F460527B6856
:10537C001B69DB000E4913434B6000F021F8024619
:10538C000B4B5B681B0903F00F030A49CB5C22FA39
:10539C0003F3094A1360094B1B681846FEF782FF9A
:1053AC00002318461037BD4680BD00BF00200240C8
:1053BC0000100240746D0008300000203400002002
:1053CC0080B487B000AF0023FB600023BB600023D8
:1053DC007B6100237B6000233B611E4B5B68FB60A1
:1053EC00FB6803F00C03042B02D0082B03D027E03E
:1053FC00194B3B6127E0FB689B0C03F00F03174A2A
:10540C00D35C7B60FB6803F48033002B10D0114B12
:10541C005B685B0C03F00103114AD35CBB607B68D7
:10542C000D4A03FB02F2BB68B2FBF3F37B6104E0B1
:10543C007B680C4A02FB03F37B617B693B6102E0F6
:10544C00054B3B6100BF3B6918461C37BD4680BC11
:10545C00704700BF0010024000127A008C6D0008EB
:10546C009C6D000800093D0080B400AF024B1B6826
:10547C001846BD4680BC70473000002080B500AF98
:10548C00FFF7F2FF0246054B5B681B0A03F00703AC
:10549C000349CB5C22FA03F3184680BD001002408E
:1054AC00846D000880B500AFFFF7DEFF0246054BA8
:1054BC005B68DB0A03F007030349CB5C22FA03F3B6
:1054CC00184680BD00100240846D000880B485B081
:1054DC0000AF78600A4B1B680A4AA2FB03235B0AE5
:1054EC007A6802FB03F3FB6000BFFB685A1EFA608C
:1054FC00002BF9D100BF00BF1437BD4680BC7047EC
:10550C0030000020D34D621080B582B000AF7860BF
:10551C007B68002B01D1012342E07B6893F841307A
:10552C00DBB2002B06D17B68002283F84020786820
:10553C00FEF7E8FC7B68242283F841207B681B681B
:10554C00DA687B681B6822F40052DA60786800F035
:10555C00AFF97B681B681A697B681B6822F4904260
:10556C001A617B681B685A697B681B6822F02A02E7
:10557C005A617B681B68DA687B681B6842F40052CE
:10558C00DA607B6800225A647B68202283F8412011
:10559C007B68202283F842207B6800225A63002318
:1055AC0018460837BD4680BD80B58AB002AFF8609A
:1055BC00B9603B601346FB8000237B61FB6893F86A
:1055CC004130DBB2202B6DD1BB68002B02D0FB88A5
:1055DC00002B01D1012366E0FB6800225A64FB68B2
:1055EC00212283F84120FEF79FFE7861FB68FA8840
:1055FC009A84FB68FA88DA84FB689B68B3F5805F51
:10560C0008D1FB681B69002B04D10023FB61BB682C
:10561C00BB6103E0BB68FB610023BB612AE03B6814
:10562C0000937B6900228021F86800F0D2F80346D1
:10563C00002B01D0032336E0FB69002B0BD1BB6997
:10564C001B881A46FB681B68C2F308025A60BB69C8
:10565C000233BB6107E0FB691A78FB681B685A6070
:10566C00FB690133FB61FB68DB8C9BB2013B9AB29B
:10567C00FB68DA84FB68DB8C9BB2002BCFD13B68D8
:10568C0000937B6900224021F86800F0A2F80346E1
:10569C00002B01D0032306E0FB68202283F8412075
:1056AC00002300E0022318462037BD4680BD80B59C
:1056BC008AB002AFF860B9603B601346FB800023F0
:1056CC007B61FB6893F84230DBB2202B7CD1BB684A
:1056DC00002B02D0FB88002B01D1012375E0FB6865
:1056EC0000225A64FB68222283F84220FB680022C5
:1056FC001A63FEF719FE7861FB68FA889A85FB68D5
:10570C00FA88DA85FB689B68B3F5805F08D1FB6883
:10571C001B69002B04D10023FB61BB68BB6103E058
:10572C00BB68FB610023BB6143E03B6800937B6972
:10573C0000222021F86800F04CF80346002B01D021
:10574C00032342E0FB69002B0CD1FB681B685B68F0
:10575C009BB2C3F308039AB2BB691A80BB690233CC
:10576C00BB611FE0FB689B68B3F5805F07D0FB68EB
:10577C009B68002B0AD1FB681B69002B06D1FB68C8
:10578C001B685B68DAB2FB691A7008E0FB681B687F
:10579C005B68DBB203F07F03DAB2FB691A70FB695A
:1057AC000133FB61FB68DB8D9BB2013B9AB2FB685A
:1057BC00DA85FB68DB8D9BB2002BB6D1FB6820220F
:1057CC0083F84220002300E0022318462037BD4610
:1057DC0080BD80B590B000AFF860B9603B601346F7
:1057EC00FB7150E0BB6CB3F1FF3F4CD0BB6C002B9A
:1057FC0007D0FEF799FD02463B68D31ABA6C9A4261
:10580C0041D2FB681B680C33BB62BB6A53E8003F98
:10581C007B627B6A23F4D073FB63FB681B680C33DD
:10582C00FA6B7A633B63396B7A6B41E80023FB625A
:10583C00FB6A002BE5D1FB681B6814337B617B6929
:10584C0053E8003F3B613B6923F00103BB63FB68FA
:10585C001B681433BA6B3A62FB61F9693A6A41E826
:10586C000023BB61BB69002BE5D1FB68202283F8C8
:10587C004120FB68202283F84220FB68002283F839
:10588C00402003230FE0FB681B681A68BB681340B9
:10589C00BA689A420CBF01230023DBB21A46FB798B
:1058AC009A429FD0002318464037BD4680BD000069
:1058BC0080B584B000AF78607B681B681B6923F4EB
:1058CC0040517B68DA687B681B680A431A617B6805
:1058DC009A687B681B691A437B685B691343BB60DE
:1058EC007B681B68DB6823F4B05323F00C037A68E5
:1058FC001268B9680B43D3607B681B685B6923F43F
:10590C0040717B689A697B681B680A435A617B68A3
:10591C001B682C4A934203D1FFF7C4FDF86002E0E8
:10592C00FFF7ACFDF860FA6813469B0013449A002D
:10593C001A447B685B689B00B2FBF3F3224AA2FB20
:10594C0003235B091901FA6813469B0013449A0060
:10595C001A447B685B689B00B2FBF3F21A4BA3FB07
:10596C0002035B09642000FB03F3D31A1B013233DF
:10597C00154AA2FB03235B0903F0F0031944FA68F0
:10598C0013469B0013449A001A447B685B689B0087
:10599C00B2FBF3F20C4BA3FB02035B09642000FB8C
:1059AC0003F3D31A1B013233074AA2FB03235B090F
:1059BC0003F00F027B681B680A449A6000BF103723
:1059CC00BD4680BD003801401F85EB51002310B54A
:1059DC000446C0E90033C0E9043383608181436627
:1059EC00C2818361194608225C3000F0E5F9054B51
:1059FC0024626362044BA362044BE362044B236393
:105A0C0010BD00BF155C0008375C00086F5C000817
:105A1C00935C0008024A0349034800F069B800BFD0
:105A2C003C0000206D6700084800002041680C4BCA
:105A3C0010B59942044601D000F092FEA168094BC2
:105A4C00994202D0204600F08BFEE168064B994249
:105A5C0004D02046BDE8104000F082BE10BD00BF4F
:105A6C001006002078060020E006002010B50B4B35
:105A7C000B4C0C4A20461A6004210022FFF7A6FFAB
:105A8C0004F1680001220921FFF7A0FF04F1D00006
:105A9C000222BDE810401221FFF798BF48070020F2
:105AAC0010060020215A0008014800F0FDB900BF83
:105ABC0051070020014800F0F8B900BF5107002041
:105ACC0010B50446FFF7F0FF236A1BB1BDE8104088
:105ADC00FFF7F0BF044B2362044B1B68002BF5D17E
:105AEC00FFF7C4FFF2E700BF395A0008480700204F
:105AFC002DE9F8430746884614460026D4E901955B
:105B0C00B9F1010905D52468002CF7D13046BDE860
:105B1C00F883AB89012B07D9B5F90E30013303D0CB
:105B2C0029463846C04706436835E9E70FB407B540
:105B3C00064904AB086853F8042B8168019300F004
:105B4C00DFFA03B05DF804EB04B07047940000205A
:105B5C00036A70B505460E4684680BB9FFF7B0FFB3
:105B6C00636EDB0705D4A389980502D4A06D00F001
:105B7C009BF9A389190713D523698BB1013EA3683F
:105B8C0016F8011F013BA360E9B9002B2EDA22465F
:105B9C000A21284600F07BF8013007D00A2507E0DF
:105BAC002146284600F0B0F80028E7D04FF0FF352A
:105BBC00636EDA0705D4A3899B0502D4A06D00F0AF
:105BCC0074F9284670BD002B04DAA2699A4206DCEF
:105BDC000A2904D023685A1C22601970CFE7224688
:105BEC00284600F054F80130C9D1DFE70A252368B4
:105BFC005A1C22601D70DBE7024B01461868FFF748
:105C0C00A7BF00BF9400002010B50C46B1F90E10D0
:105C1C0000F0FCF80028ABBF636DA3891B1823F4BC
:105C2C008053ACBF6365A38110BD2DE9F0411F46C5
:105C3C008B890546DB050C46164605D5022300224A
:105C4C00B1F90E1000F0D0F8A389324623F480533A
:105C5C00A38128463B46B4F90E10BDE8F04100F094
:105C6C00E7B810B50C46B1F90E1000F0BDF8431CA6
:105C7C00A38915BF606523F4805343F48053A3813B
:105C8C0018BFA38110BDB1F90E1000F09DB8F8B586
:105C9C000E461446054618B1036A0BB9FFF710FF00
:105CAC00A369A360A3891A0725D523691BB32368AD
:105CBC002269F6B2981A63693746834204DC21469E
:105CCC00284600F04DFDE0B9A368013BA3602368B2
:105CDC005A1C22601E706269431C9A4204D0A3892C
:105CEC00DB0706D50A2E04D12146284600F038FDE4
:105CFC0038B93846F8BD2146284600F005F800288A
:105D0C00D5D04FF0FF37F4E738B52A4B0546186865
:105D1C000C4618B1036A0BB9FFF7D2FEA389B4F98C
:105D2C000C20180722D4D90607D409232B6042F083
:105D3C0040034FF0FF30A38134E0580712D5616B5C
:105D4C0041B104F14403994202D0284600F0BCF85A
:105D5C0000236363A38923F02403A38100236360DE
:105D6C0023692360A38943F00803A38123694BB9FA
:105D7C00A38903F42073B3F5007F03D02146284692
:105D8C0000F03BFDA089B4F90C2010F001030AD0FF
:105D9C000023A36063695B42A361236943B910F0DC
:105DAC008000C4D138BD810758BF6369A360F4E794
:105DBC000020F7E79400002003460244934200D1F0
:105DCC00704703F8011BF9E738B50023054D04466D
:105DDC0008462B60FEF7B6F9431C02D12B6803B1C1
:105DEC00236038BD4C07002038B5044608461146E0
:105DFC000022054D2A601A46FEF7C8F9431C02D151
:105E0C002B6803B1236038BD4C07002038B504461D
:105E1C00084611460022054D2A601A46FEF759F92C
:105E2C00431C02D12B6803B1236038BD4C07002002
:105E3C0038B50446084611460022054D2A601A461C
:105E4C00FEF764F9431C02D12B6803B1236038BD03
:105E5C004C070020014B1868704700BF94000020CD
:105E6C0070B500260C4D0D4C641BA410A64209D134
:105E7C0000F040FD00260A4D0A4C641BA410A642FB
:105E8C0005D170BD55F8043B98470136EEE755F83F
:105E9C00043B98470136F2E7D46D0008D46D000836
:105EAC00D46D0008D86D0008704770470A449142C1
:105EBC0000F1FF3300D1704710B511F8014B91423E
:105ECC0003F8014FF9D110BD38B50546002940D073
:105EDC0051F8043C0C1F002BB8BFE41800F0DCF8A0
:105EEC001C4A136833B9636014602846BDE8384017
:105EFC0000F0D8B8A34208D9206821188B4201BF02
:105F0C0019685B6809182160EDE71A465B680BB1EC
:105F1C00A342FAD911685018A0420BD12068014451
:105F2C00501883421160E0D118685B680844106017
:105F3C005360DAE702D90C232B60D6E720682118CE
:105F4C008B4201BF19685B6809182160636054605B
:105F5C00CBE738BD5407002070B50E4E0C463168A7
:105F6C00054611B900F0A8FC30602146284600F027
:105F7C00A3FC431C0AD0C41C24F00304A04207D089
:105F8C00211A284600F098FC013001D14FF0FF3463
:105F9C00204670BD580700202DE9F843CD1C25F094
:105FAC00030508350C2D38BF0C25002D074601DBE9
:105FBC00A94205D90C2300263B603046BDE8F88386
:105FCC00DFF8D08000F068F8D8F800301C465CBBD5
:105FDC0029463846FFF7C0FF431C044655D1D8F874
:105FEC0000402646002E45D1002C48D0236831466F
:105FFC00384604EB030900F05FFC81453FD1216872
:10600C0038466D1A2946FFF7A7FF013037D02368B1
:10601C002B442360D8F80030002B38D05A68A242A9
:10602C002BD100225A600FE02268521B1FD40B2A7E
:10603C0017D96119A342256018BF5960636808BF5E
:10604C00C8F8001062514B60384604F10B0600F0A2
:10605C0029F826F00706231DF21AAED09B1BA3507D
:10606C00ABE7A3426268DDD1C8F80020ECE7234619
:10607C006468ACE734467668B4E71346CCE70C2387
:10608C0038463B6000F00EF897E72560DCE75B6074
:10609C00FFDE00BF540700200148FFF705BF00BF1B
:1060AC00500700200148FFF700BF00BF5007002039
:1060BC00936810B4013B002B936007DA9469A342F8
:1060CC0001DB0A2902D110BCFFF7E1BD1368581C93
:1060DC0010601970084610BC7047F8B506460F469C
:1060EC001446D518AC4201D1002007E03A463046A0
:1060FC0014F8011BFFF7DCFF431CF3D1F8BD0000C3
:10610C002DE9F04F0D461446984606469DB018B141
:10611C00036A0BB9FFF7D4FC6B6ED90705D4AB89B6
:10612C009A0502D4A86DFFF7BFFEAB891B0701D5FA
:10613C002B699BB929463046FFF7E6FD70B16B6EB3
:10614C00DC0704D54FF0FF301DB0BDE8F08FAB89F4
:10615C009805F7D4A86DFFF7A8FEF3E70023099381
:10616C0020238DF8293030234FF00109CDF80C8015
:10617C00DFF8AC818DF82A3023469A4613F8012BB0
:10618C000AB1252AF9D1BAEB040B0BD05B46224697
:10619C0029463046FFF7A1FF013000F0A980099A8B
:1061AC005A4409929AF80030002B00F0A180002389
:1061BC004FF0FF32CDE905230AF1010A049307934E
:1061CC008DF853301A935446052214F8011B544889
:1061DC0000F082FB049AD8B9D10644BF20238DF875
:1061EC005330130744BF2B238DF853309AF80030EB
:1061FC002A2B15D0544600204FF00A0C079A214642
:10620C0011F8013B303B092B4DD9B0B1079214E08A
:10621C00A0EB080309FA03F31343A2460493D2E755
:10622C00039B191D1B680391002BBBBF5B4242F003
:10623C00020207930793B8BF049223782E2B0CD13C
:10624C0063782A2B34D1039B02341A1D1B680392EA
:10625C00002BB8BF4FF0FF330593DFF8C8A0032223
:10626C005046217800F038FB38B14022049BA0EB5B
:10627C000A00824013430134049314F8011B0622D4
:10628C0029488DF8281000F027FB00283FD0274B19
:10629C001BBB039B073323F0070308330393099BB2
:1062AC003B44099368E70C4601200CFB0232A6E73D
:1062BC0000234FF00A0C194601340593204610F8C0
:1062CC00012B303A092A03D9002BC6D00591C4E71B
:1062DC00044601230CFB0121F0E703AB00932A4693
:1062EC003046134B04A9AFF300800746781CD6D177
:1062FC006B6ED90705D4AB899A0502D4A86DFFF74C
:10630C00D4FDAB895B063FF51DAF09981CE703ABC9
:10631C0000932A463046064B04A900F07DF8E4E7CA
:10632C009E6D0008A46D0008A86D00080000000018
:10633C00E76000082DE9F047164699468A680B6914
:10634C0007469342B8BF1346336091F843200C467E
:10635C00DDF820800AB1013333602368990642BF0F
:10636C00336802333360256815F0060506D104F155
:10637C00190AE36832689B1AAB422BDC94F8432071
:10638C00131E226818BF0123920630D449463846A2
:10639C0004F14302C047013023D02368226903F083
:1063AC000603042B14BF002533684FF0000608BF0A
:1063BC00E56804F11A0408BFED1A54F8123C08BF42
:1063CC0025EAE5759342C4BF9B1AED18B5421AD164
:1063DC00002008E00123524649463846C0470130A8
:1063EC0003D14FF0FF30BDE8F0870135C1E7302015
:1063FC00E11881F843005A1C94F8451022440233EA
:10640C0082F84310C2E70123224649463846C0476A
:10641C000130E6D00136D9E72DE9FF470F7E9146D2
:10642C00782F80460C469A460C9D01F1430207D802
:10643C00622F0AD8002F00F0D580582F00F0C180B1
:10644C0004F1420584F842703AE0A7F16303152B7E
:10645C00F6D801A151F823F0BD640008D1640008FE
:10646C004D6400084D6400084D6400084D6400083C
:10647C00D16400084D6400084D6400084D640008A8
:10648C004D640008D7650008FD640008916500089C
:10649C004D6400084D640008F96500084D6400085F
:1064AC00FD6400084D6400084D64000899650008FF
:1064BC002B681A1D1B682A6004F1420584F84230CF
:1064CC000123A0E020682B68070603F10401296072
:1064DC0001D51E6803E04606FBD5B3F90060002E1B
:1064EC0003DA2D23764284F843300A23594812E00C
:1064FC002B682068191D2960050601D51E6802E06D
:10650C004106FBD51E886F2F0CBF08230A23514868
:10651C00002184F843106568002DA8BF2168A56090
:10652C00A4BF21F0040121600EB9002D4BD01546FB
:10653C00B6FBF3F103FB1167C75D05F8017D374628
:10654C00BB420E46F4D9082B0BD12368DE0708D5C5
:10655C00236961689942DEBF302305F8013C05F1DF
:10656C00FF35521B22614B4621464046CDF800A018
:10657C0003AAFFF7DFFE01304AD14FF0FF3004B021
:10658C00BDE8F087236843F0200323607827324866
:10659C0084F84570236829681F0651F8046B02D4EF
:1065AC005F0648BFB6B2DF0748BF43F0200329603F
:1065BC0048BF23601EB9236823F0200323601023F7
:1065CC00A6E72448E4E71546BDE72B682668181DA6
:1065DC006169286035061B6801D5196002E07006F8
:1065EC00FBD51980002315462361BCE72B680021DD
:1065FC001A1D2A601D686268284600F06DF908B102
:10660C00401B606063682361002384F84330AAE771
:10661C002A46494640462369D0470130ADD023680D
:10662C009B0713D4E068039B9842B8BF1846A6E7B3
:10663C000123324649464046D04701309DD00135B2
:10664C00E36803995B1AAB42F2DCEBE7002504F13B
:10665C001906F5E7AF6D0008C06D00088A89F8B51A
:10666C00054610070C4657D44B68002B04DC0B6C0A
:10667C00002B01DC0020F8BDE66A002EFAD00023C6
:10668C0012F480522F68216A2B6032D0606DA3897E
:10669C005A0705D56368C01A636B0BB1236CC01A1B
:1066AC0000230246E66A2846216AB047431CA389A8
:1066BC0006D129681D292BD8284A0A41D60727D488
:1066CC00002262602269D904226004D5421C01D1E7
:1066DC002B6803B96065616B2F600029CAD004F187
:1066EC004403994202D02846FFF7EEFB002060637A
:1066FC00C1E701232846B047411CC8D12B68002BA9
:10670C00C5D01D2B01D0162B01D12F60B2E7A38968
:10671C0043F04003A381AEE70F69002FAAD0930783
:10672C0018BF00230E6808BF4B69F61B0F608B6007
:10673C00002E9FDD33463A462846216AD4F828C0FD
:10674C00E047002806DCA3894FF0FF3043F04003FC
:10675C00A38190E70744361AEAE700BFFEFFBFDFCC
:10676C0038B50B6905460C4613B90025284638BDCB
:10677C0018B1036A0BB9FFF7A3F9B4F90C30002B6D
:10678C00F3D0626ED00704D4990502D4A06DFFF744
:10679C008BFB28462146FFF761FF636E0546DA073F
:1067AC00E4D4A3899B05E1D4A06DFFF77EFBDDE764
:1067BC0070B50C46B1F90E10154600291E4696B060
:1067CC000CDAA389002113F0800F0CBF4FF4806307
:1067DC004023002031602B6016B070BD6A4600F07B
:1067EC0049F80028EDDB019901F47041A1F5005343
:1067FC00594259414FF48063EBE78B8973B59D0780
:10680C0006460C4607D504F1470323602361012398
:10681C00636102B070BD6A4601ABFFF7C9FF009916
:10682C0005463046FFF7B8FB48B9B4F90C309A0569
:10683C00EFD423F0030343F00203A381E3E7A3891E
:10684C00206043F08003A381009B20616361019B66
:10685C005BB13046B4F90E1000F01EF828B1A389D4
:10686C0023F0030343F00103A381A3891D43A581F6
:10687C00CFE7000038B50023064D04460846114604
:10688C002B60FDF76AFC431C02D12B6803B123601B
:10689C0038BD00BF4C07002038B50023054D044619
:1068AC0008462B60FDF768FC431C02D12B6803B132
:1068BC00236038BD4C07002038B50023054D044635
:1068CC0008462B60FDF76EFC431C02D12B6803B10C
:1068DC00236038BD4C070020034610B5C9B20244F2
:1068EC009342184601D1002003E0047801338C4216
:1068FC00F6D110BDF8B500BFF8BC08BC9E46704779
:0C690C00F8B500BFF8BC08BC9E46704700
:10691800484D2D3130206E616D655F313031323335
:10692800343500005374617274696E6720426F6F6A
:10693800746C6F61646572207625642E25640D0A77
:106948000000000057616974696E6720666F7220E5
:10695800616E20455458204F5441205472616E7323
:10696800616374696F6E2E2E2E0D0000000000000A
:10697800B71DC1046E3B8209D926430DDC7604138A
:106988006B6BC517B24D861A0550471EB8ED082621
:106998000FF0C922D6D68A2F61CB4B2B649B0C35BE
:1069A800D386CD310AA08E3CBDBD4F3870DB114C6B
:1069B800C7C6D0481EE09345A9FD5241ACAD155F4E
:1069C8001BB0D45BC2969756758B5652C836196A57
:1069D8007F2BD86EA60D9B6311105A6714401D7942
:1069E800A35DDC7D7A7B9F70CD665E74E0B62398EC
:1069F80057ABE29C8E8DA191399060953CC0278B56
:106A08008BDDE68F52FBA582E5E66486585B2BBEDC
:106A1800EF46EABA3660A9B7817D68B3842D2FADF9
:106A28003330EEA9EA16ADA45D0B6CA0906D32D49C
:106A38002770F3D0FE56B0DD494B71D94C1B36C7D1
:106A4800FB06F7C32220B4CE953D75CA28803AF2DA
:106A58009F9DFBF646BBB8FBF1A679FFF4F63EE135
:106A680043EBFFE59ACDBCE82DD07DEC77708634FA
:106A7800C06D4730194B043DAE56C539AB06822769
:106A88001C1B4323C53D002E7220C12ACF9D8E12A8
:106A980078804F16A1A60C1B16BBCD1F13EB8A01DD
:106AA800A4F64B057DD00808CACDC90C07AB97786A
:106AB800B0B6567C69901571DE8DD475DBDD936BAD
:106AC8006CC0526FB5E6116202FBD066BF469F5E8E
:106AD800085B5E5AD17D1D576660DC5363309B4D61
:106AE800D42D5A490D0B1944BA16D84097C6A5ACEF
:106AF80020DB64A8F9FD27A54EE0E6A14BB0A1BFB5
:106B0800FCAD60BB258B23B69296E2B22F2BAD8AE3
:106B180098366C8E41102F83F60DEE87F35DA99998
:106B28004440689D9D662B902A7BEA94E71DB4E05B
:106B3800500075E4892636E93E3BF7ED3B6BB0F330
:106B48008C7671F7555032FAE24DF3FE5FF0BCC611
:106B5800E8ED7DC231CB3ECF86D6FFCB8386B8D554
:106B6800349B79D1EDBD3ADC5AA0FBD8EEE00C6934
:106B780059FDCD6D80DB8E6037C64F643296087A3A
:106B8800858BC97E5CAD8A73EBB04B77560D044F8D
:106B9800E110C54B383686468F2B47428A7B005C0E
:106BA8003D66C158E4408255535D43519E3B1D25C7
:106BB8002926DC21F0009F2C471D5E28424D1936FE
:106BC800F550D8322C769B3F9B6B5A3B26D6150343
:106BD80091CBD40748ED970AFFF0560EFAA0111092
:106BE8004DBDD014949B93192386521D0E562FF138
:106BF800B94BEEF5606DADF8D7706CFCD2202BE286
:106C0800653DEAE6BC1BA9EB0B0668EFB6BB27D7C8
:106C180001A6E6D3D880A5DE6F9D64DA6ACD23C4C9
:106C2800DDD0E2C004F6A1CDB3EB60C97E8D3EBDD8
:106C3800C990FFB910B6BCB4A7AB7DB0A2FB3AAE01
:106C480015E6FBAACCC0B8A77BDD79A3C660369B46
:106C5800717DF79FA85BB4921F4675961A16328805
:106C6800AD0BF38C742DB081C330718599908A5D1A
:106C78002E8D4B59F7AB085440B6C95045E68E4E99
:106C8800F2FB4F4A2BDD0C479CC0CD43217D827B14
:106C98009660437F4F460072F85BC176FD0B8668AD
:106CA8004A16476C93300461242DC565E94B9B1146
:106CB8005E565A1587701918306DD81C353D9F02DD
:106CC80082205E065B061D0BEC1BDC0F51A693377A
:106CD800E6BB52333F9D113E8880D03A8DD0972431
:106CE8003ACD5620E3EB152D54F6D4297926A9C5BB
:106CF800CE3B68C1171D2BCCA000EAC8A550ADD665
:106D0800124D6CD2CB6B2FDF7C76EEDBC1CBA1E3CF
:106D180076D660E7AFF023EA18EDE2EE1DBDA5F0E8
:106D2800AAA064F4738627F9C49BE6FD09FDB88917
:106D3800BEE0798D67C63A80D0DBFB84D58BBC9AE0
:106D480062967D9EBBB03E930CADFF97B110B0AF7D
:106D5800060D71ABDF2B32A66836F3A26D66B4BCA4
:106D6800DA7B75B8035D36B5B440F7B100000000B2
:106D780000000000010203040607080900000000E3
:106D88000102030402030405060708090A0B0C0D97
:106D98000E0F10100102232D302B2000686C4C00C0
:106DA8006566674546470030313233343536373803
:106DB8003941424344454600303132333435363761
:0C6DC800383961626364656600000000F9
:046DD4003121000861
:046DD8000D21000881
:106DDC004F4B2B5365743A0000000020000000203C
:106DEC0000000020000000204F4B2B52455345540F
:106DFC004F4B2B52454E45574F4B2B4C4F5354003A
:106E0C000024F4001000000001000000000000004D
:106E1C0003000000100600200000000010060020F7
:106E2C0078060020E00600200000000000000000B2
:106E3C000000000000000000000000000000000046
:106E4C000000000000000000000000000000000036
:106E5C000000000000000000000000000000000026
:086E6C000000000048000020B6
:040000050800423974
:00000001FF
