:020000040800F2
:10000000005000204D090008F1080008F70800081A
:10001000FD080008030900080909000800000000A5
:100020000000000000000000000000000F090008B0
:100030001B09000800000000270900083309000818
:100040009509000895090008950900089509000818
:100050009509000895090008950900089509000808
:1000600095090008950900089509000895090008F8
:1000700095090008950900089509000895090008E8
:1000800095090008950900089509000895090008D8
:1000900095090008950900089509000895090008C8
:1000A00095090008950900089509000895090008B8
:1000B00095090008950900089509000895090008A8
:1000C0009509000895090008950900089509000898
:1000D0009509000895090008950900089509000888
:1000E000950900089509000895090008000000001E
:1000F0000000000000000000000000000000000000
:0C01000000000000000000005FF808F1A3
:10010C0010B5054C237833B9044B13B10448AFF345
:10011C0000800123237010BD10000020000000009F
:10012C008818000808B5034B1BB103490348AFF30B
:10013C00008008BD00000000140000208818000892
:10014C0080B487B000AF786039604FF0FF337B61CB
:10015C003B68B3F1FF3F01D17B691CE000233B619D
:10016C0014E07B691B0EFB737A683B6913441A78A5
:10017C00FB7B5340FB737B691A02FB7B084951F8EC
:10018C00233053407B613B6901333B613A693B68E7
:10019C009A42E6D37B6918461C37BD4680BC704733
:1001AC00A018000880B584B000AF274B274A1A600E
:1001BC00274BFB602BE0FB68DB7FFF2B21D1224B15
:1001CC001B68DB7F002B1CD11F4B1B6804331C22CC
:1001DC0011461846FFF7B4FFB8601B4B1B681B6831
:1001EC00BA689A4218D000F009F90346FB80FB88E4
:1001FC00002B01D0052322E0134B00221A600023B0
:10020C001DE0114AFB681360FB682033FB60FB6840
:10021C00104A9342CFD300E000BFFB680D4A9342D3
:10022C0007D1094B1B68DB7FFF2B02D1064B002249
:10023C001A6000F003F90346FB80FB88DBB218461A
:10024C001037BD4680BD00BF2C000020E0EF010838
:10025C0000E0010800F0010880B584B000AF7860C0
:10026C00094B1B68FB60FB68002B01D1074BFB6043
:10027C00FB68043318221946786801F0F1FA002360
:10028C0018461037BD4680BD2C00002000E0010848
:10029C002DE9B04390B000AF786007F10C037B639D
:1002AC00534BFB63002387F82B30FF2387F82A304E
:1002BC004FF6FF733B857B684FF0FF321A744FF09B
:1002CC00FF325A744FF0FF329A744FF0FF32DA74E7
:1002DC007B684FF0FF321A754FF0FF325A757B680E
:1002EC0007F110041D4628686968AA68EB680FC4FA
:1002FC002869696903C41C231A4607F10C030433EB
:10030C0011461846FFF71CFF0346FB60394B1B6870
:10031C00002B09D0374B1B682033FB63FB6B364A31
:10032C00934201D1324BFB63FB6B3B6300F0FEFC51
:10033C000346FB85FB8DDBB2184600F0F7F803464D
:10034C00FB85FB8D002B02D0FB8DDBB24AE000233A
:10035C0087F83B3027E097F83B309B003A6B13440F
:10036C00194697F83B309B007A6B13441B680022AC
:10037C009846914642464B46022000F067FC0346E5
:10038C00FB85FB8DDBB2184600F0D0F80346FB85ED
:10039C00FB8D002B02D0FB8DDBB223E097F83B30BA
:1003AC00013387F83B30082297F83B309342D2D385
:1003BC0000F0E2FC0346FB85FB8DDBB2184600F037
:1003CC00B5F80346FB85FB8D002B02D0FB8DDBB211
:1003DC0008E0084AFB6B136000F030F80346FB851D
:1003EC00FB8DDBB218464037BD46BDE8B08300BF7D
:1003FC0000E001082C00002000F0010880B582B05C
:10040C0000AF0C4800F04EF80346FB80FB88002B35
:10041C0002D0FB88DBB209E0074800F043F8FB8808
:10042C00002B02D0FB88DBB200E000231846083713
:10043C00BD4680BD00E0010800E8010880B582B02F
:10044C0000AF144B1B68144A934209D1134BDB7F4A
:10045C00002B05D1124800F025F80346FB8012E072
:10046C000C4B1B680E4A93420BD10A4B1B68203B6A
:10047C00DB7F002B05D1084800F014F80346FB8005
:10048C0001E00023FB80FB88DBB218460837BD4631
:10049C0080BD00BF2C00002000E00108E0EF010847
:1004AC0000E8010880B588B000AF786000F03EFC31
:1004BC000346FB77FB7F184600F038F80346FB77C2
:1004CC00FB7F002B01D0FB7F2CE00023FB60012382
:1004DC003B617B687B610123BB6107F1080207F17B
:1004EC000C031146184600F009FD0346FB77FB7F11
:1004FC00184600F01BF80346FB77FB7F002B01D05E
:10050C00FB7F0FE000F038FC0346FB77FB7F1846BF
:10051C0000F00CF80346FB77FB7F002B01D0FB7F30
:10052C0000E0002318462037BD4680BD80B483B060
:10053C0000AF0346FB71FB79012B06D0002B06DDC7
:10054C00023B012B03D8022302E0042300E0FB79D9
:10055C0018460C37BD4680BC7047000080B582B091
:10056C0000AF00F013FA00F02DF800F065F800F081
:10057C0079F80346FB71FB79002B00D0FEE7104B9A
:10058C00DB7DFF2B06D0FF2B18DC002B02D0012BC0
:10059C0002D013E000F0CAF800F09CF80346002BE0
:1005AC0003D1074B9B7D012B01D000F0BFF8044811
:1005BC0000F0D0F80346FB7100F037FBFEE700BFFC
:1005CC003000002080B590B000AF07F1180328224E
:1005DC000021184601F018F93B1D00221A605A60E0
:1005EC009A60DA601A610123BB614FF48033FB61BE
:1005FC0000237B6307F11803184600F027FD034620
:10060C00002B01D000F0A0F80F237B600123BB600E
:10061C009023FB6000233B6100237B613B1D002189
:10062C00184600F095FF0346002B01D000F08CF823
:10063C0000BF4037BD4680BD80B483B000AF084BCF
:10064C009B69074A43F020039361054B9B6903F0B8
:10065C0020037B607B6800BF0C37BD4680BC7047B5
:10066C000010024080B584B000AF00F0E7F90346FB
:10067C0003F5FA73BB60154B1B78022B04D90423CA
:10068C001FE000F0DBF9F860FA68BB689A42F8D317
:10069C00FFF788FD0346FB800C4B1B780133DAB265
:1006AC000A4B1A70B7F90630002B06D0FFF7DAFFA9
:1006BC000346FB80FB88DBB203E00548FFF7CCFD6B
:1006CC00002318461037BD4680BD00BF48000020EF
:1006DC003000002080B582B000AF124B9B68B3F1A4
:1006EC00FF3F03D00F4B9B68002B01D1042315E077
:1006FC000C4BDB68B3F1FF3F01D104230EE0094B37
:10070C009B6819460848FFF71BFD7860054BDB68B2
:10071C007A689A4201D0042300E000231846083777
:10072C00BD4680BD300000200080000880B582B03E
:10073C0000AF044B1B687B607B68984700BF083791
:10074C00BD4680BD0420000880B400AF72B600BF67
:10075C00FEE70000B0B58AB000AF78600023FB84E0
:10076C00414B3B627B689B6803F00303002B01D079
:10077C00042374E000F0DAFA0346FB77FB7F18469B
:10078C0000F076F80346FB77FB7F002B01D0FB7F54
:10079C0065E00023FB6001233B61344B7B61182334
:1007AC00BB6107F1080207F10C031146184600F073
:1007BC00A5FB0346FB77FB7F184600F059F8034670
:1007CC00FB77FB7F002B25D0FB7F48E0FB8C03F1F4
:1007DC00006101F50051FB8C9B089BB29B003A6AAF
:1007EC0013441B6800221C46154622462B46022049
:1007FC0000F02CFA0346FB77FB7F184600F038F824
:10080C000346FB77FB7F002B01D0FB7F27E0FB8CA3
:10081C000433FB84FA8C7B689B689A42D6D300F035
:10082C00ABFA0346FB77FB7F184600F021F8034632
:10083C00FB77FB7F002B01D0FB7F10E07B689A6875
:10084C007B681A607B68DA687B685A607B68002278
:10085C00DA757868FFF71CFD0346FB77FB7F1846BB
:10086C002837BD46B0BD00BF00800008002000083E
:10087C0080B483B000AF0346FB71FB79012B06D02B
:10088C00002B06DD023B012B03D8022302E00423DC
:10089C0000E0FB7918460C37BD4680BC7047000061
:1008AC0080B483B000AF0E4B9B690D4A43F001033B
:1008BC0093610B4B9B6903F001037B607B68084BD6
:1008CC00DB69074A43F08053D361054BDB6903F0C6
:1008DC0080533B603B6800BF0C37BD4680BC704703
:1008EC000010024080B400AFFEE780B400AFFEE71A
:1008FC0080B400AFFEE780B400AFFEE780B400AF79
:10090C00FEE780B400AF00BFBD4680BC704780B42A
:10091C0000AF00BFBD4680BC704780B400AF00BFC5
:10092C00BD4680BC704780B500AF00F075F800BFC5
:10093C0080BD80B400AF00BFBD4680BC70470000D6
:10094C00FFF7F7FF0B480C490C4A002302E0D45880
:10095C00C4500433C4188C42F9D3094A094C0023FF
:10096C0001E013600432A242FBD300F055FFFFF705
:10097C00F5FD7047000000200C000020CC1C000886
:10098C001000002070000020FEE7000080B500AFD2
:10099C00084B1B68074A43F010031360032000F058
:1009AC001DF90F2000F008F8FFF77AFF0023184616
:1009BC0080BD00BF0020024080B582B000AF7860DF
:1009CC00124B1A68124B1B7819464FF47A73B3FB0F
:1009DC00F1F3B2FBF3F3184600F02BF90346002BAE
:1009EC0001D001230EE07B680F2B0AD80022796816
:1009FC004FF0FF3000F0FDF8064A7B6813600023CF
:100A0C0000E0012318460837BD4680BD00000020D9
:100A1C00080000200400002080B400AF054B1B78B8
:100A2C001A46054B1B681344034A136000BFBD46AE
:100A3C0080BC7047080000204C00002080B400AF40
:100A4C00024B1B681846BD4680BC70474C0000200A
:100A5C0080B485B000AF78607B6803F00703FB605F
:100A6C000C4BDB68BB60BA684FF6FF031340BB60EE
:100A7C00FB681A02BB68134343F0BF6343F40033B3
:100A8C00BB60044ABB68D36000BF1437BD4680BC52
:100A9C00704700BF00ED00E080B400AF044BDB6892
:100AAC001B0A03F007031846BD4680BC704700BF05
:100ABC0000ED00E080B483B000AF03463960FB71F9
:100ACC0097F90730002B0ADB3B68DAB20C4997F92F
:100ADC0007301201D2B20B4483F800230AE03B68C2
:100AEC00DAB20849FB7903F00F03043B1201D2B2CE
:100AFC000B441A7600BF0C37BD4680BC704700BF54
:100B0C0000E100E000ED00E080B489B000AFF860D7
:100B1C00B9607A60FB6803F00703FB61FB69C3F102
:100B2C000703042B28BF0423BB61FB690433062B8A
:100B3C0002D9FB69033B00E000237B614FF0FF32DD
:100B4C00BB6902FA03F3DA43BB681A407B699A402B
:100B5C004FF0FF317B6901FA03F3D9437B680B40FB
:100B6C00134318462437BD4680BC704780B400AF91
:100B7C00BFF34F8F00BF064BDB6803F4E062044900
:100B8C00044B1343CB60BFF34F8F00BF00BFFDE797
:100B9C0000ED00E00400FA0580B582B000AF78608B
:100BAC007B68013BB3F1807F01D301230FE00A4A3C
:100BBC007B68013B53600F214FF0FF30FFF77AFF4A
:100BCC00054B00229A60044B07221A60002318463A
:100BDC000837BD4680BD00BF10E000E080B582B094
:100BEC0000AF78607868FFF733FF00BF0837BD4669
:100BFC0080BD80B586B000AF0346B9607A60FB73E8
:100C0C0000237B61FFF748FF78617A68B9687869DF
:100C1C00FFF77AFF024697F90F3011461846FFF797
:100C2C0049FF00BF1837BD4680BD80B500AFFFF748
:100C3C009DFF80B582B000AF78607868FFF7ACFF9D
:100C4C00034618460837BD4680BD0000F0B587B096
:100C5C0000AFF860B960C7E900230123FB750023DE
:100C6C00BB7500237B752F4B1B7E012B01D10223FF
:100C7C0054E02C4B01221A764CF2503000F0A8F8BC
:100C8C000346FB75FB7D002B44D1FB68012B02D185
:100C9C0001237B7507E0FB68022B02D102237B75D5
:100CAC0001E004237B750023BB752DE0BB7D5A004E
:100CBC00BB6802EB030CBB7D1901D7E90023C1F122
:100CCC002006A1F1200022FA01F403FA06F63443BF
:100CDC0023FA00F0044323FA01F5A3B21946604647
:100CEC0000F05AF84CF2503000F072F80346FB75E5
:100CFC000D4B1B690C4A23F001031361FB7D002B88
:100D0C0007D1BB7D0133BB75BA7D7B7D9A42CDD3B8
:100D1C0000E000BF034B00221A76FB7D18461C37FF
:100D2C00BD46F0BD500000200020024080B483B0CE
:100D3C0000AF0023FB710D4B1B6903F08003002BEC
:100D4C000DD00A4B0A4A5A60084B0A4A5A60074BA4
:100D5C001B6903F08003002B01D00123FB71FB798D
:100D6C0018460C37BD4680BC704700BF00200240BF
:100D7C0023016745AB89EFCD80B400AF054B1B69F0
:100D8C00044A43F08003136100231846BD4680BC1F
:100D9C00704700BF0020024080B483B000AF786081
:100DAC000B467B80084B0022DA61084B1B69074A13
:100DBC0043F0010313617B687A881A8000BF0C37FB
:100DCC00BD4680BC704700BF500000200020024090
:100DDC0080B584B000AF7860FFF730FEF86010E0AB
:100DEC007B68B3F1FF3F0CD07B68002B07D0FFF77B
:100DFC0025FE0246FB68D31A7A689A4201D2032375
:100E0C0025E0154BDB6803F00103002BE8D1124BF6
:100E1C00DB6803F02003002B02D00F4B2022DA609A
:100E2C000D4BDB6803F01003002B0BD10A4BDB6975
:100E3C0003F00103002B05D1074BDB6803F004031F
:100E4C00002B03D000F00AF8012300E00023184621
:100E5C001037BD4680BD00BF0020024080B483B077
:100E6C0000AF00237B60234BDB6803F01003002BE7
:100E7C0009D0214BDB6943F002031F4AD3617B6825
:100E8C0043F010037B601B4BDB6803F00403002B67
:100E9C0009D0194BDB6943F00103174AD3617B6816
:100EAC0043F004037B60134BDB6903F00103002B5D
:100EBC000BD0114BDB6943F004030F4AD3610D4B8C
:100ECC00DB690C4A23F00103D3617B6840F2011209
:100EDC00934206D1074BDB69064A23F00103D36129
:100EEC0002E0044A7B68D36000BF0C37BD4680BC6F
:100EFC00704700BF002002405000002080B584B035
:100F0C0000AF786039600123FB730023BB602F4B6B
:100F1C001B7E012B01D1022353E02C4B01221A76AC
:100F2C007B681B68022B16D14CF25030FFF750FF38
:100F3C000346002B41D1012000F04CF84CF250300C
:100F4C00FFF746FF0346FB73214B1B69204A23F036
:100F5C000403136131E04CF25030FFF739FF0346C4
:100F6C00002B2AD13B684FF0FF321A607B689B68DC
:100F7C00BB6019E0B86800F049F84CF25030FFF74C
:100F8C0027FF0346FB73124B1B69114A23F0020324
:100F9C001361FB7B002B03D03B68BA681A600CE032
:100FAC00BB6803F58063BB607B68DB689A027B6877
:100FBC009B681344BA689A42DCD3044B00221A761D
:100FCC00FB7B18461037BD4680BD00BF500000208B
:100FDC000020024080B483B000AF7860094B00223F
:100FEC00DA61094B1B69084A43F004031361064B91
:100FFC001B69054A43F04003136100BF0C37BD4623
:10100C0080BC7047500000200020024080B483B0A8
:10101C0000AF78600B4B0022DA610B4B1B690A4A5C
:10102C0043F002031361084A7B685361064B1B694A
:10103C00054A43F04003136100BF0C37BD4680BC2A
:10104C00704700BF500000200020024080B586B0E1
:10105C0000AF78607B68002B01D1012372E27B68C2
:10106C001B6803F00103002B00F08780924B5B6838
:10107C0003F00C03042B0CD08F4B5B6803F00C03B8
:10108C00082B12D18C4B5B6803F48033B3F5803F93
:10109C000BD1894B1B6803F40033002B6CD07B689D
:1010AC005B68002B68D101234CE27B685B68B3F56D
:1010BC00803F06D1804B1B687F4A43F4803313601A
:1010CC002EE07B685B68002B0CD17B4B1B687A4A4B
:1010DC0023F480331360784B1B68774A23F4802306
:1010EC0013601DE07B685B68B3F5A02F0CD1724BCD
:1010FC001B68714A43F4802313606F4B1B686E4A64
:10110C0043F4803313600BE06B4B1B686A4A23F487
:10111C0080331360684B1B68674A23F48023136089
:10112C007B685B68002B13D0FFF788FC386108E004
:10113C00FFF784FC02463B69D31A642B01D90323C5
:10114C0000E25D4B1B6803F40033002BF0D014E07D
:10115C00FFF774FC386108E0FFF770FC02463B694E
:10116C00D31A642B01D90323ECE1534B1B6803F412
:10117C000033002BF0D100E000BF7B681B6803F04C
:10118C000203002B63D04C4B5B6803F00C03002B69
:10119C000BD0494B5B6803F00C03082B1CD1464B5E
:1011AC005B6803F48033002B16D1434B1B6803F0B0
:1011BC000203002B05D07B681B69012B01D0012396
:1011CC00C0E13D4B1B6823F0F8027B685B69DB00D8
:1011DC00394913430B603AE07B681B69002B20D024
:1011EC00364B01221A60FFF729FC386108E0FFF743
:1011FC0025FC02463B69D31A022B01D90323A1E13A
:10120C002D4B1B6803F00203002BF0D02A4B1B68FC
:10121C0023F0F8027B685B69DB00274913430B6002
:10122C0015E0264B00221A60FFF708FC386108E035
:10123C00FFF704FC02463B69D31A022B01D90323A6
:10124C0080E11D4B1B6803F00203002BF0D17B687F
:10125C001B6803F00803002B3AD07B689B69002BBA
:10126C0019D0174B01221A60FFF7E8FB386108E030
:10127C00FFF7E4FB02463B69D31A022B01D9032387
:10128C0060E10D4B5B6A03F00203002BF0D00120F0
:10129C0000F09CFA1CE00A4B00221A60FFF7CEFB10
:1012AC0038610FE0FFF7CAFB02463B69D31A022BE9
:1012BC0008D9032346E100BF00100240000042425F
:1012CC0080044242924B5B6A03F00203002BE9D18B
:1012DC007B681B6803F00403002B00F0A68000233E
:1012EC00FB758B4BDB6903F08053002B0DD1884BC6
:1012FC00DB69874A43F08053D361854BDB6903F08C
:10130C008053BB60BB680123FB75824B1B6803F4E5
:10131C008073002B18D17F4B1B687E4A43F480737B
:10132C001360FFF78BFB386108E0FFF787FB024681
:10133C003B69D31A642B01D9032303E1754B1B685A
:10134C0003F48073002BF0D07B68DB68012B06D193
:10135C006F4B1B6A6E4A43F0010313622DE07B68EE
:10136C00DB68002B0CD16A4B1B6A694A23F0010322
:10137C001362674B1B6A664A23F0040313621CE07A
:10138C007B68DB68052B0CD1614B1B6A604A43F010
:10139C00040313625E4B1B6A5D4A43F00103136244
:1013AC000BE05B4B1B6A5A4A23F001031362584B48
:1013BC001B6A574A23F0040313627B68DB68002B1B
:1013CC0015D0FFF73BFB38610AE0FFF737FB02460D
:1013DC003B69D31A41F28832934201D90323B1E01D
:1013EC004B4B1B6A03F00203002BEED014E0FFF70B
:1013FC0025FB38610AE0FFF721FB02463B69D31A53
:10140C0041F28832934201D903239BE0404B1B6A83
:10141C0003F00203002BEED1FB7D012B05D13C4BDD
:10142C00DB693B4A23F08053D3617B68DB69002B7B
:10143C0000F08780364B5B6803F00C03082B61D0FF
:10144C007B68DB69022B46D1334B00221A60FFF715
:10145C00F5FA386108E0FFF7F1FA02463B69D31A56
:10146C00022B01D903236DE0294B1B6803F0007399
:10147C00002BF0D17B681B6AB3F5803F08D1244B5D
:10148C005B6823F400327B689B68214913434B60F3
:10149C001F4B5B6823F474127B68196A7B685B6A68
:1014AC000B431B4913434B601B4B01221A60FFF784
:1014BC00C5FA386108E0FFF7C1FA02463B69D31A56
:1014CC00022B01D903233DE0114B1B6803F0007381
:1014DC00002BF0D035E0104B00221A60FFF7AEFA6B
:1014EC00386108E0FFF7AAFA02463B69D31A022BCF
:1014FC0001D9032326E0064B1B6803F00073002B75
:10150C00F0D11EE07B68DB69012B07D1012319E0C8
:10151C000010024000700040600042420B4B5B68C0
:10152C00FB60FB6803F480327B681B6A9A4206D12D
:10153C00FB6803F470127B685B6A9A4201D001234A
:10154C0000E0002318461837BD4680BD001002404D
:10155C0080B584B000AF786039607B68002B01D116
:10156C000123D0E06A4B1B6803F007033A689A42E8
:10157C0010D9674B1B6823F0070265493B6813437E
:10158C000B60634B1B6803F007033A689A4201D067
:10159C000123B8E07B681B6803F00203002B20D00A
:1015AC007B681B6803F00403002B05D0594B5B6868
:1015BC00584A43F4E06353607B681B6803F00803EC
:1015CC00002B05D0534B5B68524A43F46053536075
:1015DC00504B5B6823F0F0027B689B684D491343CA
:1015EC004B607B681B6803F00103002B40D07B68C9
:1015FC005B68012B07D1474B1B6803F40033002BAE
:10160C0015D101237FE07B685B68022B07D1414B2E
:10161C001B6803F00073002B09D1012373E03D4BD1
:10162C001B6803F00203002B01D101236BE0394B43
:10163C005B6823F003027B685B68364913434B609D
:10164C00FFF7FCF9F8600AE0FFF7F8F90246FB68CF
:10165C00D31A41F28832934201D9032353E02D4B24
:10166C005B6803F00C027B685B689B009A42EBD1D1
:10167C00274B1B6803F007033A689A4210D2244B9D
:10168C001B6823F0070222493B6813430B60204B75
:10169C001B6803F007033A689A4201D0012332E039
:1016AC007B681B6803F00403002B08D0194B5B68A4
:1016BC0023F4E0627B68DB68164913434B607B685C
:1016CC001B6803F00803002B09D0124B5B6823F452
:1016DC0060527B681B69DB000E4913434B6000F0C2
:1016EC0021F802460B4B5B681B0903F00F030A49F8
:1016FC00CB5C22FA03F3094A1360094B1B681846AA
:10170C00FFF75AF9002318461037BD4680BD00BFBD
:10171C000020024000100240A01C00080000002025
:10172C000400002080B487B000AF0023FB600023CE
:10173C00BB6000237B6100237B6000233B611E4B5D
:10174C005B68FB60FB6803F00C03042B02D0082BD6
:10175C0003D027E0194B3B6127E0FB689B0C03F09F
:10176C000F03174AD35C7B60FB6803F48033002BB8
:10177C0010D0114B5B685B0C03F00103114AD35C76
:10178C00BB607B680D4A03FB02F2BB68B2FBF3F350
:10179C007B6104E07B680C4A02FB03F37B617B6991
:1017AC003B6102E0054B3B6100BF3B6918461C37AF
:1017BC00BD4680BC704700BF0010024000127A008A
:1017CC00B01C0008C01C000800093D0080B485B0A6
:1017DC0000AF78600A4B1B680A4AA2FB03235B0A22
:1017EC007A6802FB03F3FB6000BFFB685A1EFA60C9
:1017FC00002BF9D100BF00BF1437BD4680BC704729
:10180C0000000020D34D621003460244934200D1E5
:10181C00704703F8011BF9E770B500260C4D0D4C11
:10182C00641BA410A64209D100F028F800260A4D2A
:10183C000A4C641BA410A64205D170BD55F8043B9C
:10184C0098470136EEE755F8043B98470136F2E726
:10185C00C41C0008C41C0008C41C0008C81C0008D8
:10186C000A44914200F1FF3300D1704710B511F8D2
:10187C00014B914203F8014FF9D110BDF8B500BFEF
:10188C00F8BC08BC9E467047F8B500BFF8BC08BC55
:04189C009E467047AD
:1018A00000000000B71DC1046E3B8209D926430D1C
:1018B000DC7604136B6BC517B24D861A0550471EB4
:1018C000B8ED08260FF0C922D6D68A2F61CB4B2B54
:1018D000649B0C35D386CD310AA08E3CBDBD4F38FC
:1018E00070DB114CC7C6D0481EE09345A9FD52419C
:1018F000ACAD155F1BB0D45BC2969756758B565234
:10190000C836196A7F2BD86EA60D9B6311105A67D3
:1019100014401D79A35DDC7D7A7B9F70CD665E747B
:10192000E0B6239857ABE29C8E8DA19139906095DB
:101930003CC0278B8BDDE68F52FBA582E5E66486F3
:10194000585B2BBEEF46EABA3660A9B7817D68B313
:10195000842D2FAD3330EEA9EA16ADA45D0B6CA03B
:10196000906D32D42770F3D0FE56B0DD494B71D95B
:101970004C1B36C7FB06F7C32220B4CE953D75CA73
:1019800028803AF29F9DFBF646BBB8FBF1A679FF93
:10199000F4F63EE143EBFFE59ACDBCE82DD07DECBB
:1019A00077708634C06D4730194B043DAE56C5394B
:1019B000AB0682271C1B4323C53D002E7220C12A83
:1019C000CF9D8E1278804F16A1A60C1B16BBCD1F83
:1019D00013EB8A01A4F64B057DD00808CACDC90CCB
:1019E00007AB9778B0B6567C69901571DE8DD475CB
:1019F000DBDD936B6CC0526FB5E6116202FBD06603
:101A0000BF469F5E085B5E5AD17D1D576660DC5302
:101A100063309B4DD42D5A490D0B1944BA16D8404A
:101A200097C6A5AC20DB64A8F9FD27A54EE0E6A18A
:101A30004BB0A1BFFCAD60BB258B23B69296E2B242
:101A40002F2BAD8A98366C8E41102F83F60DEE87C2
:101A5000F35DA9994440689D9D662B902A7BEA948A
:101A6000E71DB4E0500075E4892636E93E3BF7ED0A
:101A70003B6BB0F38C7671F7555032FAE24DF3FEC2
:101A80005FF0BCC6E8ED7DC231CB3ECF86D6FFCB42
:101A90008386B8D5349B79D1EDBD3ADC5AA0FBD80A
:101AA000EEE00C6959FDCD6D80DB8E6037C64F646A
:101AB0003296087A858BC97E5CAD8A73EBB04B7722
:101AC000560D044FE110C54B383686468F2B4742E2
:101AD0008A7B005C3D66C158E4408255535D4351AA
:101AE0009E3B1D252926DC21F0009F2C471D5E28EA
:101AF000424D1936F550D8322C769B3F9B6B5A3BA2
:101B000026D6150391CBD40748ED970AFFF0560E61
:101B1000FAA011104DBDD014949B93192386521D29
:101B20000E562FF1B94BEEF5606DADF8D7706CFC29
:101B3000D2202BE2653DEAE6BC1BA9EB0B0668EF61
:101B4000B6BB27D701A6E6D3D880A5DE6F9D64DAA1
:101B50006ACD23C4DDD0E2C004F6A1CDB3EB60C9E9
:101B60007E8D3EBDC990FFB910B6BCB4A7AB7DB0A9
:101B7000A2FB3AAE15E6FBAACCC0B8A77BDD79A3E1
:101B8000C660369B717DF79FA85BB4921F46759621
:101B90001A163288AD0BF38C742DB081C330718569
:101BA00099908A5D2E8D4B59F7AB085440B6C950B9
:101BB00045E68E4EF2FB4F4A2BDD0C479CC0CD43D1
:101BC000217D827B9660437F4F460072F85BC17631
:101BD000FD0B86684A16476C93300461242DC56559
:101BE000E94B9B115E565A1587701918306DD81C39
:101BF000353D9F0282205E065B061D0BEC1BDC0F51
:101C000051A69337E6BB52333F9D113E8880D03AB0
:101C10008DD097243ACD5620E3EB152D54F6D429D8
:101C20007926A9C5CE3B68C1171D2BCCA000EAC8F8
:101C3000A550ADD6124D6CD2CB6B2FDF7C76EEDB90
:101C4000C1CBA1E376D660E7AFF023EA18EDE2EE70
:101C50001DBDA5F0AAA064F4738627F9C49BE6FD18
:101C600009FDB889BEE0798D67C63A80D0DBFB8478
:101C7000D58BBC9A62967D9EBBB03E930CADFF9710
:101C8000B110B0AF060D71ABDF2B32A66836F3A2F0
:101C90006D66B4BCDA7B75B8035D36B5B440F7B198
:101CA000000000000000000001020304060708090C
:101CB00002030405060708090A0B0C0D0E0F10108D
:041CC000010200001D
:041CC40031010008E2
:041CC8000D01000802
:0C1CCC000024F4001000000001000000E3
:040000050800094D99
:00000001FF
